{
  "_format": "hh-sol-artifact-1",
  "contractName": "FlappyRewardCoin",
  "sourceName": "contracts/ERC20/FlappyRewardCoin.sol",
  "abi": [
    {
      "inputs": [],
      "stateMutability": "nonpayable",
      "type": "constructor"
    },
    {
      "inputs": [],
      "name": "FlappyRewardCoin__OnlyControllersCanMint",
      "type": "error"
    },
    {
      "anonymous": false,
      "inputs": [
        {
          "indexed": true,
          "internalType": "address",
          "name": "owner",
          "type": "address"
        },
        {
          "indexed": true,
          "internalType": "address",
          "name": "spender",
          "type": "address"
        },
        {
          "indexed": false,
          "internalType": "uint256",
          "name": "value",
          "type": "uint256"
        }
      ],
      "name": "Approval",
      "type": "event"
    },
    {
      "anonymous": false,
      "inputs": [
        {
          "indexed": true,
          "internalType": "address",
          "name": "previousOwner",
          "type": "address"
        },
        {
          "indexed": true,
          "internalType": "address",
          "name": "newOwner",
          "type": "address"
        }
      ],
      "name": "OwnershipTransferred",
      "type": "event"
    },
    {
      "anonymous": false,
      "inputs": [
        {
          "indexed": true,
          "internalType": "address",
          "name": "from",
          "type": "address"
        },
        {
          "indexed": true,
          "internalType": "address",
          "name": "to",
          "type": "address"
        },
        {
          "indexed": false,
          "internalType": "uint256",
          "name": "value",
          "type": "uint256"
        }
      ],
      "name": "Transfer",
      "type": "event"
    },
    {
      "inputs": [
        {
          "internalType": "uint256",
          "name": "",
          "type": "uint256"
        }
      ],
      "name": "INITIAL_SUPPLY_ALLOCATION",
      "outputs": [
        {
          "internalType": "uint256",
          "name": "",
          "type": "uint256"
        }
      ],
      "stateMutability": "view",
      "type": "function"
    },
    {
      "inputs": [
        {
          "internalType": "uint256",
          "name": "",
          "type": "uint256"
        }
      ],
      "name": "INITIAL_SUPPLY_RECEIVER",
      "outputs": [
        {
          "internalType": "address",
          "name": "",
          "type": "address"
        }
      ],
      "stateMutability": "view",
      "type": "function"
    },
    {
      "inputs": [
        {
          "internalType": "address",
          "name": "owner",
          "type": "address"
        },
        {
          "internalType": "address",
          "name": "spender",
          "type": "address"
        }
      ],
      "name": "allowance",
      "outputs": [
        {
          "internalType": "uint256",
          "name": "",
          "type": "uint256"
        }
      ],
      "stateMutability": "view",
      "type": "function"
    },
    {
      "inputs": [
        {
          "internalType": "address",
          "name": "spender",
          "type": "address"
        },
        {
          "internalType": "uint256",
          "name": "amount",
          "type": "uint256"
        }
      ],
      "name": "approve",
      "outputs": [
        {
          "internalType": "bool",
          "name": "",
          "type": "bool"
        }
      ],
      "stateMutability": "nonpayable",
      "type": "function"
    },
    {
      "inputs": [
        {
          "internalType": "address",
          "name": "account",
          "type": "address"
        }
      ],
      "name": "balanceOf",
      "outputs": [
        {
          "internalType": "uint256",
          "name": "",
          "type": "uint256"
        }
      ],
      "stateMutability": "view",
      "type": "function"
    },
    {
      "inputs": [
        {
          "internalType": "uint256",
          "name": "amount",
          "type": "uint256"
        }
      ],
      "name": "burn",
      "outputs": [],
      "stateMutability": "nonpayable",
      "type": "function"
    },
    {
      "inputs": [
        {
          "internalType": "uint256",
          "name": "amount",
          "type": "uint256"
        }
      ],
      "name": "burnFrom",
      "outputs": [],
      "stateMutability": "nonpayable",
      "type": "function"
    },
    {
      "inputs": [
        {
          "internalType": "address",
          "name": "account",
          "type": "address"
        },
        {
          "internalType": "uint256",
          "name": "amount",
          "type": "uint256"
        }
      ],
      "name": "burnFrom",
      "outputs": [],
      "stateMutability": "nonpayable",
      "type": "function"
    },
    {
      "inputs": [],
      "name": "decimals",
      "outputs": [
        {
          "internalType": "uint8",
          "name": "",
          "type": "uint8"
        }
      ],
      "stateMutability": "view",
      "type": "function"
    },
    {
      "inputs": [
        {
          "internalType": "address",
          "name": "spender",
          "type": "address"
        },
        {
          "internalType": "uint256",
          "name": "subtractedValue",
          "type": "uint256"
        }
      ],
      "name": "decreaseAllowance",
      "outputs": [
        {
          "internalType": "bool",
          "name": "",
          "type": "bool"
        }
      ],
      "stateMutability": "nonpayable",
      "type": "function"
    },
    {
      "inputs": [
        {
          "internalType": "address",
          "name": "spender",
          "type": "address"
        },
        {
          "internalType": "uint256",
          "name": "addedValue",
          "type": "uint256"
        }
      ],
      "name": "increaseAllowance",
      "outputs": [
        {
          "internalType": "bool",
          "name": "",
          "type": "bool"
        }
      ],
      "stateMutability": "nonpayable",
      "type": "function"
    },
    {
      "inputs": [],
      "name": "initialMinted",
      "outputs": [
        {
          "internalType": "bool",
          "name": "",
          "type": "bool"
        }
      ],
      "stateMutability": "view",
      "type": "function"
    },
    {
      "inputs": [],
      "name": "initialSupply",
      "outputs": [
        {
          "internalType": "uint256",
          "name": "",
          "type": "uint256"
        }
      ],
      "stateMutability": "view",
      "type": "function"
    },
    {
      "inputs": [
        {
          "internalType": "address",
          "name": "to",
          "type": "address"
        },
        {
          "internalType": "uint256",
          "name": "amount",
          "type": "uint256"
        }
      ],
      "name": "mint",
      "outputs": [],
      "stateMutability": "nonpayable",
      "type": "function"
    },
    {
      "inputs": [],
      "name": "name",
      "outputs": [
        {
          "internalType": "string",
          "name": "",
          "type": "string"
        }
      ],
      "stateMutability": "view",
      "type": "function"
    },
    {
      "inputs": [],
      "name": "owner",
      "outputs": [
        {
          "internalType": "address",
          "name": "",
          "type": "address"
        }
      ],
      "stateMutability": "view",
      "type": "function"
    },
    {
      "inputs": [],
      "name": "renounceOwnership",
      "outputs": [],
      "stateMutability": "nonpayable",
      "type": "function"
    },
    {
      "inputs": [
        {
          "internalType": "address",
          "name": "controller",
          "type": "address"
        },
        {
          "internalType": "bool",
          "name": "_state",
          "type": "bool"
        }
      ],
      "name": "setController",
      "outputs": [],
      "stateMutability": "payable",
      "type": "function"
    },
    {
      "inputs": [],
      "name": "symbol",
      "outputs": [
        {
          "internalType": "string",
          "name": "",
          "type": "string"
        }
      ],
      "stateMutability": "view",
      "type": "function"
    },
    {
      "inputs": [],
      "name": "totalSupply",
      "outputs": [
        {
          "internalType": "uint256",
          "name": "",
          "type": "uint256"
        }
      ],
      "stateMutability": "view",
      "type": "function"
    },
    {
      "inputs": [
        {
          "internalType": "address",
          "name": "to",
          "type": "address"
        },
        {
          "internalType": "uint256",
          "name": "amount",
          "type": "uint256"
        }
      ],
      "name": "transfer",
      "outputs": [
        {
          "internalType": "bool",
          "name": "",
          "type": "bool"
        }
      ],
      "stateMutability": "nonpayable",
      "type": "function"
    },
    {
      "inputs": [
        {
          "internalType": "address",
          "name": "from",
          "type": "address"
        },
        {
          "internalType": "address",
          "name": "to",
          "type": "address"
        },
        {
          "internalType": "uint256",
          "name": "amount",
          "type": "uint256"
        }
      ],
      "name": "transferFrom",
      "outputs": [
        {
          "internalType": "bool",
          "name": "",
          "type": "bool"
        }
      ],
      "stateMutability": "nonpayable",
      "type": "function"
    },
    {
      "inputs": [
        {
          "internalType": "address",
          "name": "newOwner",
          "type": "address"
        }
      ],
      "name": "transferOwnership",
      "outputs": [],
      "stateMutability": "nonpayable",
      "type": "function"
    }
  ],
  "bytecode": "0x60806040526a115eec47f6cf7e35000000600955604051806080016040528073ee66bda0bc2c9ab72127ce90944b4048775f5fd973ffffffffffffffffffffffffffffffffffffffff1673ffffffffffffffffffffffffffffffffffffffff168152602001738e14398d793938a3e17852320cb97d1479a05feb73ffffffffffffffffffffffffffffffffffffffff1673ffffffffffffffffffffffffffffffffffffffff16815260200173ee5a230528b70c6caa1cd17fa54aea481241deaa73ffffffffffffffffffffffffffffffffffffffff1673ffffffffffffffffffffffffffffffffffffffff16815260200173a977bb7de34298126092738db59177541ab6080d73ffffffffffffffffffffffffffffffffffffffff1673ffffffffffffffffffffffffffffffffffffffff16815250600a90600462000146929190620005d4565b5060405180608001604052806005815260200160468152602001600f8152602001600a815250600b9060046200017e92919062000663565b503480156200018c57600080fd5b506040518060400160405280600381526020017f46524300000000000000000000000000000000000000000000000000000000008152506040518060400160405280600381526020017f465243000000000000000000000000000000000000000000000000000000000081525081600390816200020a91906200094e565b5080600490816200021c91906200094e565b5050506200023f620002336200025560201b60201c565b6200025d60201b60201c565b6200024f6200032360201b60201c565b62000cf0565b600033905090565b6000600560009054906101000a900473ffffffffffffffffffffffffffffffffffffffff16905081600560006101000a81548173ffffffffffffffffffffffffffffffffffffffff021916908373ffffffffffffffffffffffffffffffffffffffff1602179055508173ffffffffffffffffffffffffffffffffffffffff168173ffffffffffffffffffffffffffffffffffffffff167f8be0079c531659141344cd1fd0a4f28419497f9722a3daafe3b4186f6b6457e060405160405180910390a35050565b6000806000600a805490509050600860009054906101000a900460ff161562000383576040517f08c379a00000000000000000000000000000000000000000000000000000000081526004016200037a9062000a96565b60405180910390fd5b6001600860006101000a81548160ff02191690831515021790555060005b818110156200045757600a8181548110620003c157620003c062000ab8565b5b9060005260206000200160009054906101000a900473ffffffffffffffffffffffffffffffffffffffff1692506064600954600b83815481106200040a576200040962000ab8565b5b906000526020600020015462000421919062000b16565b6200042d919062000b90565b93506200044183856200045d60201b60201c565b80806200044e9062000bc8565b915050620003a1565b50505050565b600073ffffffffffffffffffffffffffffffffffffffff168273ffffffffffffffffffffffffffffffffffffffff1603620004cf576040517f08c379a0000000000000000000000000000000000000000000000000000000008152600401620004c69062000c65565b60405180910390fd5b620004e360008383620005ca60201b60201c565b8060026000828254620004f7919062000c87565b92505081905550806000808473ffffffffffffffffffffffffffffffffffffffff1673ffffffffffffffffffffffffffffffffffffffff168152602001908152602001600020600082825401925050819055508173ffffffffffffffffffffffffffffffffffffffff16600073ffffffffffffffffffffffffffffffffffffffff167fddf252ad1be2c89b69c2b068fc378daa952ba7f163c4a11628f55a4df523b3ef83604051620005aa919062000cd3565b60405180910390a3620005c660008383620005cf60201b60201c565b5050565b505050565b505050565b82805482825590600052602060002090810192821562000650579160200282015b828111156200064f5782518260006101000a81548173ffffffffffffffffffffffffffffffffffffffff021916908373ffffffffffffffffffffffffffffffffffffffff16021790555091602001919060010190620005f5565b5b5090506200065f9190620006b5565b5090565b828054828255906000526020600020908101928215620006a2579160200282015b82811115620006a157825182559160200191906001019062000684565b5b509050620006b19190620006b5565b5090565b5b80821115620006d0576000816000905550600101620006b6565b5090565b600081519050919050565b7f4e487b7100000000000000000000000000000000000000000000000000000000600052604160045260246000fd5b7f4e487b7100000000000000000000000000000000000000000000000000000000600052602260045260246000fd5b600060028204905060018216806200075657607f821691505b6020821081036200076c576200076b6200070e565b5b50919050565b60008190508160005260206000209050919050565b60006020601f8301049050919050565b600082821b905092915050565b600060088302620007d67fffffffffffffffffffffffffffffffffffffffffffffffffffffffffffffffff8262000797565b620007e2868362000797565b95508019841693508086168417925050509392505050565b6000819050919050565b6000819050919050565b60006200082f620008296200082384620007fa565b62000804565b620007fa565b9050919050565b6000819050919050565b6200084b836200080e565b620008636200085a8262000836565b848454620007a4565b825550505050565b600090565b6200087a6200086b565b6200088781848462000840565b505050565b5b81811015620008af57620008a360008262000870565b6001810190506200088d565b5050565b601f821115620008fe57620008c88162000772565b620008d38462000787565b81016020851015620008e3578190505b620008fb620008f28562000787565b8301826200088c565b50505b505050565b600082821c905092915050565b6000620009236000198460080262000903565b1980831691505092915050565b60006200093e838362000910565b9150826002028217905092915050565b6200095982620006d4565b67ffffffffffffffff811115620009755762000974620006df565b5b6200098182546200073d565b6200098e828285620008b3565b600060209050601f831160018114620009c65760008415620009b1578287015190505b620009bd858262000930565b86555062000a2d565b601f198416620009d68662000772565b60005b8281101562000a0057848901518255600182019150602085019450602081019050620009d9565b8683101562000a20578489015162000a1c601f89168262000910565b8355505b6001600288020188555050505b505050505050565b600082825260208201905092915050565b7f496e697469616c20737570706c7920686173206d696e7465642e000000000000600082015250565b600062000a7e601a8362000a35565b915062000a8b8262000a46565b602082019050919050565b6000602082019050818103600083015262000ab18162000a6f565b9050919050565b7f4e487b7100000000000000000000000000000000000000000000000000000000600052603260045260246000fd5b7f4e487b7100000000000000000000000000000000000000000000000000000000600052601160045260246000fd5b600062000b2382620007fa565b915062000b3083620007fa565b925082820262000b4081620007fa565b9150828204841483151762000b5a5762000b5962000ae7565b5b5092915050565b7f4e487b7100000000000000000000000000000000000000000000000000000000600052601260045260246000fd5b600062000b9d82620007fa565b915062000baa83620007fa565b92508262000bbd5762000bbc62000b61565b5b828204905092915050565b600062000bd582620007fa565b91507fffffffffffffffffffffffffffffffffffffffffffffffffffffffffffffffff820362000c0a5762000c0962000ae7565b5b600182019050919050565b7f45524332303a206d696e7420746f20746865207a65726f206164647265737300600082015250565b600062000c4d601f8362000a35565b915062000c5a8262000c15565b602082019050919050565b6000602082019050818103600083015262000c808162000c3e565b9050919050565b600062000c9482620007fa565b915062000ca183620007fa565b925082820190508082111562000cbc5762000cbb62000ae7565b5b92915050565b62000ccd81620007fa565b82525050565b600060208201905062000cea600083018462000cc2565b92915050565b611f7a8062000d006000396000f3fe6080604052600436106101405760003560e01c8063715018a6116100b6578063a9059cbb1161006f578063a9059cbb14610470578063bd6271da146104ad578063ca1c4de9146104ea578063dd62ed3e14610515578063e0dba60f14610552578063f2fde38b1461056e57610140565b8063715018a61461036057806379cc6790146103775780638da5cb5b146103a057806395d89b41146103cb578063a457c2d7146103f6578063a6b11c601461043357610140565b8063313ce56711610108578063313ce5671461023e578063378dc3dc14610269578063395093511461029457806340c10f19146102d157806342966c68146102fa57806370a082311461032357610140565b806306fdde0314610145578063095ea7b31461017057806318160ddd146101ad57806323b872dd146101d8578063274ff7ce14610215575b600080fd5b34801561015157600080fd5b5061015a610597565b6040516101679190611506565b60405180910390f35b34801561017c57600080fd5b50610197600480360381019061019291906115c1565b610629565b6040516101a4919061161c565b60405180910390f35b3480156101b957600080fd5b506101c261064c565b6040516101cf9190611646565b60405180910390f35b3480156101e457600080fd5b506101ff60048036038101906101fa9190611661565b610656565b60405161020c919061161c565b60405180910390f35b34801561022157600080fd5b5061023c600480360381019061023791906116b4565b610685565b005b34801561024a57600080fd5b50610253610692565b60405161026091906116fd565b60405180910390f35b34801561027557600080fd5b5061027e61069b565b60405161028b9190611646565b60405180910390f35b3480156102a057600080fd5b506102bb60048036038101906102b691906115c1565b6106a1565b6040516102c8919061161c565b60405180910390f35b3480156102dd57600080fd5b506102f860048036038101906102f391906115c1565b6106d8565b005b34801561030657600080fd5b50610321600480360381019061031c91906116b4565b610769565b005b34801561032f57600080fd5b5061034a60048036038101906103459190611718565b61077d565b6040516103579190611646565b60405180910390f35b34801561036c57600080fd5b506103756107c5565b005b34801561038357600080fd5b5061039e600480360381019061039991906115c1565b6107d9565b005b3480156103ac57600080fd5b506103b56107f9565b6040516103c29190611754565b60405180910390f35b3480156103d757600080fd5b506103e0610823565b6040516103ed9190611506565b60405180910390f35b34801561040257600080fd5b5061041d600480360381019061041891906115c1565b6108b5565b60405161042a919061161c565b60405180910390f35b34801561043f57600080fd5b5061045a600480360381019061045591906116b4565b61092c565b6040516104679190611754565b60405180910390f35b34801561047c57600080fd5b50610497600480360381019061049291906115c1565b61096b565b6040516104a4919061161c565b60405180910390f35b3480156104b957600080fd5b506104d460048036038101906104cf91906116b4565b61098e565b6040516104e19190611646565b60405180910390f35b3480156104f657600080fd5b506104ff6109b2565b60405161050c919061161c565b60405180910390f35b34801561052157600080fd5b5061053c6004803603810190610537919061176f565b6109c5565b6040516105499190611646565b60405180910390f35b61056c600480360381019061056791906117db565b610a4c565b005b34801561057a57600080fd5b5061059560048036038101906105909190611718565b610aaf565b005b6060600380546105a69061184a565b80601f01602080910402602001604051908101604052809291908181526020018280546105d29061184a565b801561061f5780601f106105f45761010080835404028352916020019161061f565b820191906000526020600020905b81548152906001019060200180831161060257829003601f168201915b5050505050905090565b600080610634610b32565b9050610641818585610b3a565b600191505092915050565b6000600254905090565b600080610661610b32565b905061066e858285610d03565b610679858585610d8f565b60019150509392505050565b61068f3382611005565b50565b60006012905090565b60095481565b6000806106ac610b32565b90506106cd8185856106be85896109c5565b6106c891906118aa565b610b3a565b600191505092915050565b600660003373ffffffffffffffffffffffffffffffffffffffff1673ffffffffffffffffffffffffffffffffffffffff16815260200190815260200160002060009054906101000a900460ff1661075b576040517fffc9a48a00000000000000000000000000000000000000000000000000000000815260040160405180910390fd5b61076582826111d2565b5050565b61077a610774610b32565b82611005565b50565b60008060008373ffffffffffffffffffffffffffffffffffffffff1673ffffffffffffffffffffffffffffffffffffffff168152602001908152602001600020549050919050565b6107cd611328565b6107d760006113a6565b565b6107eb826107e5610b32565b83610d03565b6107f58282611005565b5050565b6000600560009054906101000a900473ffffffffffffffffffffffffffffffffffffffff16905090565b6060600480546108329061184a565b80601f016020809104026020016040519081016040528092919081815260200182805461085e9061184a565b80156108ab5780601f10610880576101008083540402835291602001916108ab565b820191906000526020600020905b81548152906001019060200180831161088e57829003601f168201915b5050505050905090565b6000806108c0610b32565b905060006108ce82866109c5565b905083811015610913576040517f08c379a000000000000000000000000000000000000000000000000000000000815260040161090a90611950565b60405180910390fd5b6109208286868403610b3a565b60019250505092915050565b600a818154811061093c57600080fd5b906000526020600020016000915054906101000a900473ffffffffffffffffffffffffffffffffffffffff1681565b600080610976610b32565b9050610983818585610d8f565b600191505092915050565b600b818154811061099e57600080fd5b906000526020600020016000915090505481565b600860009054906101000a900460ff1681565b6000600160008473ffffffffffffffffffffffffffffffffffffffff1673ffffffffffffffffffffffffffffffffffffffff16815260200190815260200160002060008373ffffffffffffffffffffffffffffffffffffffff1673ffffffffffffffffffffffffffffffffffffffff16815260200190815260200160002054905092915050565b610a54611328565b80600660008473ffffffffffffffffffffffffffffffffffffffff1673ffffffffffffffffffffffffffffffffffffffff16815260200190815260200160002060006101000a81548160ff0219169083151502179055505050565b610ab7611328565b600073ffffffffffffffffffffffffffffffffffffffff168173ffffffffffffffffffffffffffffffffffffffff1603610b26576040517f08c379a0000000000000000000000000000000000000000000000000000000008152600401610b1d906119e2565b60405180910390fd5b610b2f816113a6565b50565b600033905090565b600073ffffffffffffffffffffffffffffffffffffffff168373ffffffffffffffffffffffffffffffffffffffff1603610ba9576040517f08c379a0000000000000000000000000000000000000000000000000000000008152600401610ba090611a74565b60405180910390fd5b600073ffffffffffffffffffffffffffffffffffffffff168273ffffffffffffffffffffffffffffffffffffffff1603610c18576040517f08c379a0000000000000000000000000000000000000000000000000000000008152600401610c0f90611b06565b60405180910390fd5b80600160008573ffffffffffffffffffffffffffffffffffffffff1673ffffffffffffffffffffffffffffffffffffffff16815260200190815260200160002060008473ffffffffffffffffffffffffffffffffffffffff1673ffffffffffffffffffffffffffffffffffffffff168152602001908152602001600020819055508173ffffffffffffffffffffffffffffffffffffffff168373ffffffffffffffffffffffffffffffffffffffff167f8c5be1e5ebec7d5bd14f71427d1e84f3dd0314c0f7b2291e5b200ac8c7c3b92583604051610cf69190611646565b60405180910390a3505050565b6000610d0f84846109c5565b90507fffffffffffffffffffffffffffffffffffffffffffffffffffffffffffffffff8114610d895781811015610d7b576040517f08c379a0000000000000000000000000000000000000000000000000000000008152600401610d7290611b72565b60405180910390fd5b610d888484848403610b3a565b5b50505050565b600073ffffffffffffffffffffffffffffffffffffffff168373ffffffffffffffffffffffffffffffffffffffff1603610dfe576040517f08c379a0000000000000000000000000000000000000000000000000000000008152600401610df590611c04565b60405180910390fd5b600073ffffffffffffffffffffffffffffffffffffffff168273ffffffffffffffffffffffffffffffffffffffff1603610e6d576040517f08c379a0000000000000000000000000000000000000000000000000000000008152600401610e6490611c96565b60405180910390fd5b610e7883838361146c565b60008060008573ffffffffffffffffffffffffffffffffffffffff1673ffffffffffffffffffffffffffffffffffffffff16815260200190815260200160002054905081811015610efe576040517f08c379a0000000000000000000000000000000000000000000000000000000008152600401610ef590611d28565b60405180910390fd5b8181036000808673ffffffffffffffffffffffffffffffffffffffff1673ffffffffffffffffffffffffffffffffffffffff16815260200190815260200160002081905550816000808573ffffffffffffffffffffffffffffffffffffffff1673ffffffffffffffffffffffffffffffffffffffff168152602001908152602001600020600082825401925050819055508273ffffffffffffffffffffffffffffffffffffffff168473ffffffffffffffffffffffffffffffffffffffff167fddf252ad1be2c89b69c2b068fc378daa952ba7f163c4a11628f55a4df523b3ef84604051610fec9190611646565b60405180910390a3610fff848484611471565b50505050565b600073ffffffffffffffffffffffffffffffffffffffff168273ffffffffffffffffffffffffffffffffffffffff1603611074576040517f08c379a000000000000000000000000000000000000000000000000000000000815260040161106b90611dba565b60405180910390fd5b6110808260008361146c565b60008060008473ffffffffffffffffffffffffffffffffffffffff1673ffffffffffffffffffffffffffffffffffffffff16815260200190815260200160002054905081811015611106576040517f08c379a00000000000000000000000000000000000000000000000000000000081526004016110fd90611e4c565b60405180910390fd5b8181036000808573ffffffffffffffffffffffffffffffffffffffff1673ffffffffffffffffffffffffffffffffffffffff1681526020019081526020016000208190555081600260008282540392505081905550600073ffffffffffffffffffffffffffffffffffffffff168373ffffffffffffffffffffffffffffffffffffffff167fddf252ad1be2c89b69c2b068fc378daa952ba7f163c4a11628f55a4df523b3ef846040516111b99190611646565b60405180910390a36111cd83600084611471565b505050565b600073ffffffffffffffffffffffffffffffffffffffff168273ffffffffffffffffffffffffffffffffffffffff1603611241576040517f08c379a000000000000000000000000000000000000000000000000000000000815260040161123890611eb8565b60405180910390fd5b61124d6000838361146c565b806002600082825461125f91906118aa565b92505081905550806000808473ffffffffffffffffffffffffffffffffffffffff1673ffffffffffffffffffffffffffffffffffffffff168152602001908152602001600020600082825401925050819055508173ffffffffffffffffffffffffffffffffffffffff16600073ffffffffffffffffffffffffffffffffffffffff167fddf252ad1be2c89b69c2b068fc378daa952ba7f163c4a11628f55a4df523b3ef836040516113109190611646565b60405180910390a361132460008383611471565b5050565b611330610b32565b73ffffffffffffffffffffffffffffffffffffffff1661134e6107f9565b73ffffffffffffffffffffffffffffffffffffffff16146113a4576040517f08c379a000000000000000000000000000000000000000000000000000000000815260040161139b90611f24565b60405180910390fd5b565b6000600560009054906101000a900473ffffffffffffffffffffffffffffffffffffffff16905081600560006101000a81548173ffffffffffffffffffffffffffffffffffffffff021916908373ffffffffffffffffffffffffffffffffffffffff1602179055508173ffffffffffffffffffffffffffffffffffffffff168173ffffffffffffffffffffffffffffffffffffffff167f8be0079c531659141344cd1fd0a4f28419497f9722a3daafe3b4186f6b6457e060405160405180910390a35050565b505050565b505050565b600081519050919050565b600082825260208201905092915050565b60005b838110156114b0578082015181840152602081019050611495565b60008484015250505050565b6000601f19601f8301169050919050565b60006114d882611476565b6114e28185611481565b93506114f2818560208601611492565b6114fb816114bc565b840191505092915050565b6000602082019050818103600083015261152081846114cd565b905092915050565b600080fd5b600073ffffffffffffffffffffffffffffffffffffffff82169050919050565b60006115588261152d565b9050919050565b6115688161154d565b811461157357600080fd5b50565b6000813590506115858161155f565b92915050565b6000819050919050565b61159e8161158b565b81146115a957600080fd5b50565b6000813590506115bb81611595565b92915050565b600080604083850312156115d8576115d7611528565b5b60006115e685828601611576565b92505060206115f7858286016115ac565b9150509250929050565b60008115159050919050565b61161681611601565b82525050565b6000602082019050611631600083018461160d565b92915050565b6116408161158b565b82525050565b600060208201905061165b6000830184611637565b92915050565b60008060006060848603121561167a57611679611528565b5b600061168886828701611576565b935050602061169986828701611576565b92505060406116aa868287016115ac565b9150509250925092565b6000602082840312156116ca576116c9611528565b5b60006116d8848285016115ac565b91505092915050565b600060ff82169050919050565b6116f7816116e1565b82525050565b600060208201905061171260008301846116ee565b92915050565b60006020828403121561172e5761172d611528565b5b600061173c84828501611576565b91505092915050565b61174e8161154d565b82525050565b60006020820190506117696000830184611745565b92915050565b6000806040838503121561178657611785611528565b5b600061179485828601611576565b92505060206117a585828601611576565b9150509250929050565b6117b881611601565b81146117c357600080fd5b50565b6000813590506117d5816117af565b92915050565b600080604083850312156117f2576117f1611528565b5b600061180085828601611576565b9250506020611811858286016117c6565b9150509250929050565b7f4e487b7100000000000000000000000000000000000000000000000000000000600052602260045260246000fd5b6000600282049050600182168061186257607f821691505b6020821081036118755761187461181b565b5b50919050565b7f4e487b7100000000000000000000000000000000000000000000000000000000600052601160045260246000fd5b60006118b58261158b565b91506118c08361158b565b92508282019050808211156118d8576118d761187b565b5b92915050565b7f45524332303a2064656372656173656420616c6c6f77616e63652062656c6f7760008201527f207a65726f000000000000000000000000000000000000000000000000000000602082015250565b600061193a602583611481565b9150611945826118de565b604082019050919050565b600060208201905081810360008301526119698161192d565b9050919050565b7f4f776e61626c653a206e6577206f776e657220697320746865207a65726f206160008201527f6464726573730000000000000000000000000000000000000000000000000000602082015250565b60006119cc602683611481565b91506119d782611970565b604082019050919050565b600060208201905081810360008301526119fb816119bf565b9050919050565b7f45524332303a20617070726f76652066726f6d20746865207a65726f2061646460008201527f7265737300000000000000000000000000000000000000000000000000000000602082015250565b6000611a5e602483611481565b9150611a6982611a02565b604082019050919050565b60006020820190508181036000830152611a8d81611a51565b9050919050565b7f45524332303a20617070726f766520746f20746865207a65726f20616464726560008201527f7373000000000000000000000000000000000000000000000000000000000000602082015250565b6000611af0602283611481565b9150611afb82611a94565b604082019050919050565b60006020820190508181036000830152611b1f81611ae3565b9050919050565b7f45524332303a20696e73756666696369656e7420616c6c6f77616e6365000000600082015250565b6000611b5c601d83611481565b9150611b6782611b26565b602082019050919050565b60006020820190508181036000830152611b8b81611b4f565b9050919050565b7f45524332303a207472616e736665722066726f6d20746865207a65726f20616460008201527f6472657373000000000000000000000000000000000000000000000000000000602082015250565b6000611bee602583611481565b9150611bf982611b92565b604082019050919050565b60006020820190508181036000830152611c1d81611be1565b9050919050565b7f45524332303a207472616e7366657220746f20746865207a65726f206164647260008201527f6573730000000000000000000000000000000000000000000000000000000000602082015250565b6000611c80602383611481565b9150611c8b82611c24565b604082019050919050565b60006020820190508181036000830152611caf81611c73565b9050919050565b7f45524332303a207472616e7366657220616d6f756e742065786365656473206260008201527f616c616e63650000000000000000000000000000000000000000000000000000602082015250565b6000611d12602683611481565b9150611d1d82611cb6565b604082019050919050565b60006020820190508181036000830152611d4181611d05565b9050919050565b7f45524332303a206275726e2066726f6d20746865207a65726f2061646472657360008201527f7300000000000000000000000000000000000000000000000000000000000000602082015250565b6000611da4602183611481565b9150611daf82611d48565b604082019050919050565b60006020820190508181036000830152611dd381611d97565b9050919050565b7f45524332303a206275726e20616d6f756e7420657863656564732062616c616e60008201527f6365000000000000000000000000000000000000000000000000000000000000602082015250565b6000611e36602283611481565b9150611e4182611dda565b604082019050919050565b60006020820190508181036000830152611e6581611e29565b9050919050565b7f45524332303a206d696e7420746f20746865207a65726f206164647265737300600082015250565b6000611ea2601f83611481565b9150611ead82611e6c565b602082019050919050565b60006020820190508181036000830152611ed181611e95565b9050919050565b7f4f776e61626c653a2063616c6c6572206973206e6f7420746865206f776e6572600082015250565b6000611f0e602083611481565b9150611f1982611ed8565b602082019050919050565b60006020820190508181036000830152611f3d81611f01565b905091905056fea2646970667358221220069e054c08c6ba8b6d4347c8ac6caf88a52ea0999bedbe3b75ecfa80f58d79ff64736f6c63430008110033",
  "linkReferences": {},
  "deployedLinkReferences": {}
}