{
  "_format": "hh-sol-artifact-1",
  "contractName": "NftFactoryDescriptor",
  "sourceName": "contracts/utils/NftFactoryDescriptor.sol",
  "abi": [
    {
      "inputs": [
        {
          "internalType": "uint256",
          "name": "tokenId",
          "type": "uint256"
        },
        {
          "internalType": "uint256",
          "name": "seed",
          "type": "uint256"
        }
      ],
      "name": "tokenURI",
      "outputs": [
        {
          "internalType": "string",
          "name": "",
          "type": "string"
        }
      ],
      "stateMutability": "pure",
      "type": "function"
    }
  ],
  "bytecode": "0x608060405234801561001057600080fd5b506131b4806100206000396000f3fe608060405234801561001057600080fd5b506004361061002b5760003560e01c806392cb829d14610030575b600080fd5b61004a60048036038101906100459190612152565b610060565b6040516100579190612222565b60405180910390f35b60606000604051806080016040528064e8d4a51000655af3107a4000866100879190612273565b61009191906122d3565b81526020016305f5e1006402540be400866100ac9190612273565b6100b691906122d3565b8152602001612710620f4240866100cd9190612273565b6100d791906122d3565b81526020016064856100e99190612273565b81525090506000610123655af3107a40008561010591906122d3565b8360006004811061011957610118612304565b5b6020020151610358565b905060006101696402540be40064e8d4a51000876101419190612273565b61014b91906122d3565b8460016004811061015f5761015e612304565b5b602002015161070a565b905060006101ac620f42406305f5e100886101849190612273565b61018e91906122d3565b856002600481106101a2576101a1612304565b5b6020020151610b35565b905060006101eb6064612710896101c39190612273565b6101cd91906122d3565b866003600481106101e1576101e0612304565b5b6020020151610ee7565b905060006101f8866110b5565b9050600085600001518560000151856000015185600001516040518060400160405280600681526020017f3c2f7376673e000000000000000000000000000000000000000000000000000081525060405160200161025a95949392919061261b565b60405160208183030381529060405290506000610276826112a3565b905060006040518060400160405280601681526020017f4f6e636861696e205374616b6561626c65204e46542e0000000000000000000081525090506103286102be8d61141b565b82848b602001518c60400151602001518c602001518d60400151602001518d602001518e60400151602001518e602001518f60400151602001518f6040516020016103149c9b9a99989796959493929190612c1b565b6040516020818303038152906040526112a3565b6040516020016103389190612e41565b604051602081830303815290604052995050505050505050505092915050565b6103606120d6565b600061036b8361157b565b9050606080600a86036103e9576040518060400160405280600481526020017f285c285c0000000000000000000000000000000000000000000000000000000081525091506040518060400160405280600a81526020017f526967687420436f6d620000000000000000000000000000000000000000000081525090505b600b8603610462576040518060400160405280600481526020017f2f292f290000000000000000000000000000000000000000000000000000000081525091506040518060400160405280600981526020017f4c65667420436f6d62000000000000000000000000000000000000000000000081525090505b600c86036104db576040518060400160405280600681526020017f28292c2c2829000000000000000000000000000000000000000000000000000081525091506040518060400160405280600981526020017f5369646520436f6d62000000000000000000000000000000000000000000000081525090505b600d8603610554576040518060400160405280600681526020017f28292f2f2829000000000000000000000000000000000000000000000000000081525091506040518060400160405280600481526020017f50756e6b0000000000000000000000000000000000000000000000000000000081525090505b600e86036105cd576040518060400160405280600581526020017f285c2b2f2900000000000000000000000000000000000000000000000000000081525091506040518060400160405280600781526020017f6d65646963616c0000000000000000000000000000000000000000000000000081525090505b600f8603610646576040518060400160405280600581526020017f285c5e2f2900000000000000000000000000000000000000000000000000000081525091506040518060400160405280600881526020017f436f6e652048617400000000000000000000000000000000000000000000000081525090505b601086036106bf576040518060400160405280600581526020017f285c2a2f2900000000000000000000000000000000000000000000000000000081525091506040518060400160405280600481526020017f537461720000000000000000000000000000000000000000000000000000000081525090505b60405180606001604052808460000151846040516020016106e1929190612f47565b604051602081830303815290604052815260200182815260200184815250935050505092915050565b6107126120d6565b600061071d8361157b565b9050606080600a860361079b576040518060400160405280600781526020017f3d286f2e6f293d0000000000000000000000000000000000000000000000000081525091506040518060400160405280600981526020017f45796573206f70656e000000000000000000000000000000000000000000000081525090505b600b8603610814576040518060400160405280600781526020017f3d282d2e2d293d0000000000000000000000000000000000000000000000000081525091506040518060400160405280600881526020017f536c656570696e6700000000000000000000000000000000000000000000000081525090505b600c860361088d576040518060400160405280600781526020017f3d286f2e2d293d0000000000000000000000000000000000000000000000000081525091506040518060400160405280600481526020017f57696e6b0000000000000000000000000000000000000000000000000000000081525090505b600d8603610906576040518060400160405280600781526020017f3d286f2e4f293d0000000000000000000000000000000000000000000000000081525091506040518060400160405280600a81526020017f537573706963696f75730000000000000000000000000000000000000000000081525090505b600e860361097f576040518060400160405280600781526020017f3d285e2e5e293d0000000000000000000000000000000000000000000000000081525091506040518060400160405280600581526020017f536d696c6500000000000000000000000000000000000000000000000000000081525090505b600f86036109f8576040518060400160405280600781526020017f3d28782e78293d0000000000000000000000000000000000000000000000000081525091506040518060400160405280600981526020017f446561642046616365000000000000000000000000000000000000000000000081525090505b60108603610a71576040518060400160405280600781526020017f3d5b3d2e3d5d3d0000000000000000000000000000000000000000000000000081525091506040518060400160405280600581526020017f526f626f7400000000000000000000000000000000000000000000000000000081525090505b60108603610aea576040518060400160405280600781526020017f3d28242e24293d0000000000000000000000000000000000000000000000000081525091506040518060400160405280600e81526020017f4d6f6e65792d6f7269656e74656400000000000000000000000000000000000081525090505b6040518060600160405280846000015184604051602001610b0c929190612fd8565b604051602081830303815290604052815260200182815260200184815250935050505092915050565b610b3d6120d6565b6000610b488361157b565b9050606080600a8603610bc6576040518060400160405280600781526020017f6f5b203a2d5d6f0000000000000000000000000000000000000000000000000081525091506040518060400160405280600881526020017f466561746865727300000000000000000000000000000000000000000000000081525090505b600b8603610c3f576040518060400160405280600781526020017f6f285c242f296f0000000000000000000000000000000000000000000000000081525091506040518060400160405280600481526020017f537761670000000000000000000000000000000000000000000000000000000081525090505b600c8603610cb8576040518060400160405280600781526020017f6f283d7c3d296f0000000000000000000000000000000000000000000000000081525091506040518060400160405280600881526020017f4d757363756c617200000000000000000000000000000000000000000000000081525090505b600d8603610d31576040518060400160405280600781526020017f6f285c2b2f296f0000000000000000000000000000000000000000000000000081525091506040518060400160405280600681526020017f507269657374000000000000000000000000000000000000000000000000000081525090505b600e8603610daa576040518060400160405280600781526020017f6f28203a7e296f0000000000000000000000000000000000000000000000000081525091506040518060400160405280600581526020017f536869727400000000000000000000000000000000000000000000000000000081525090505b600f8603610e23576040518060400160405280600781526020017f6f285c3a2f296f0000000000000000000000000000000000000000000000000081525091506040518060400160405280600481526020017f537569740000000000000000000000000000000000000000000000000000000081525090505b60108603610e9c576040518060400160405280600781526020017f6f285c7e2f296f0000000000000000000000000000000000000000000000000081525091506040518060400160405280600681526020017f54757865646f000000000000000000000000000000000000000000000000000081525090505b6040518060600160405280846000015184604051602001610ebe929190612fd8565b604051602081830303815290604052815260200182815260200184815250935050505092915050565b610eef6120d6565b6000610efa8361157b565b9050606080600a8603610f78576040518060400160405280600781526020017f2822292d2822290000000000000000000000000000000000000000000000000081525091506040518060400160405280600881526020017f42696720466f6f7400000000000000000000000000000000000000000000000081525090505b600b8603610ff1576040518060400160405280600581526020017f5f2f2d5c5f00000000000000000000000000000000000000000000000000000081525091506040518060400160405280600881526020017f5374616e64696e6700000000000000000000000000000000000000000000000081525090505b600c860361106a576040518060400160405280600481526020017f2f5e2f5e0000000000000000000000000000000000000000000000000000000081525091506040518060400160405280600a81526020017f48696768204865656c730000000000000000000000000000000000000000000081525090505b604051806060016040528084600001518460405160200161108c929190612fd8565b604051602081830303815290604052815260200182815260200184815250935050505092915050565b6060600080600090505b600481101561113f5760005b600481101561112b578481600481106110e7576110e6612304565b5b60200201518583600481106110ff576110fe612304565b5b6020020151036111185782806111149061301d565b9350505b80806111239061301d565b9150506110cb565b5080806111379061301d565b9150506110bf565b5060048103611186576040518060400160405280600181526020017f340000000000000000000000000000000000000000000000000000000000000081525091505061129e565b600681036111cc576040518060400160405280600181526020017f330000000000000000000000000000000000000000000000000000000000000081525091505061129e565b60088114806111db5750600a81145b1561121e576040518060400160405280600181526020017f320000000000000000000000000000000000000000000000000000000000000081525091505061129e565b60108103611264576040518060400160405280600181526020017f310000000000000000000000000000000000000000000000000000000000000081525091505061129e565b6040518060400160405280600181526020017f30000000000000000000000000000000000000000000000000000000000000008152509150505b919050565b606060008251036112c557604051806020016040528060008152509050611416565b600060405180606001604052806040815260200161313f60409139905060006003600285516112f49190613065565b6112fe91906122d3565b600461130a9190613099565b9050600060208261131b9190613065565b67ffffffffffffffff811115611334576113336130db565b5b6040519080825280601f01601f1916602001820160405280156113665781602001600182028036833780820191505090505b509050818152600183018586518101602084015b818310156113d5576003830192508251603f8160121c168501518253600182019150603f81600c1c168501518253600182019150603f8160061c168501518253600182019150603f811685015182536001820191505061137a565b6003895106600181146113ef57600281146113ff5761140a565b613d3d60f01b600283035261140a565b603d60f81b60018303525b50505050508093505050505b919050565b606060008203611462576040518060400160405280600181526020017f30000000000000000000000000000000000000000000000000000000000000008152509050611576565b600082905060005b6000821461149457808061147d9061301d565b915050600a8261148d91906122d3565b915061146a565b60008167ffffffffffffffff8111156114b0576114af6130db565b5b6040519080825280601f01601f1916602001820160405280156114e25781602001600182028036833780820191505090505b5090505b6000851461156f576001826114fb919061310a565b9150600a8561150a9190612273565b60306115169190613065565b60f81b81838151811061152c5761152b612304565b5b60200101907effffffffffffffffffffffffffffffffffffffffffffffffffffffffffffff1916908160001a905350600a8561156891906122d3565b94506114e6565b8093505050505b919050565b6115836120fd565b600a82036116115760405180604001604052806040518060400160405280600781526020017f236536303034390000000000000000000000000000000000000000000000000081525081526020016040518060400160405280600a81526020017f486578206536303034390000000000000000000000000000000000000000000081525081525090506120d1565b600b820361169f5760405180604001604052806040518060400160405280600781526020017f233832623662390000000000000000000000000000000000000000000000000081525081526020016040518060400160405280600a81526020017f486578203832623662390000000000000000000000000000000000000000000081525081525090506120d1565b600c820361172d5760405180604001604052806040518060400160405280600781526020017f236233643466660000000000000000000000000000000000000000000000000081525081526020016040518060400160405280600a81526020017f486578206233643466660000000000000000000000000000000000000000000081525081525090506120d1565b600d82036117bb5760405180604001604052806040518060400160405280600781526020017f233030666666660000000000000000000000000000000000000000000000000081525081526020016040518060400160405280600a81526020017f486578203030666666660000000000000000000000000000000000000000000081525081525090506120d1565b600e82036118495760405180604001604052806040518060400160405280600781526020017f233062623466660000000000000000000000000000000000000000000000000081525081526020016040518060400160405280600a81526020017f486578203062623466660000000000000000000000000000000000000000000081525081525090506120d1565b600f82036118d75760405180604001604052806040518060400160405280600781526020017f233138353366660000000000000000000000000000000000000000000000000081525081526020016040518060400160405280600a81526020017f486578203138353366660000000000000000000000000000000000000000000081525081525090506120d1565b601082036119655760405180604001604052806040518060400160405280600781526020017f233335643433350000000000000000000000000000000000000000000000000081525081526020016040518060400160405280600a81526020017f486578203335643433350000000000000000000000000000000000000000000081525081525090506120d1565b601182036119f35760405180604001604052806040518060400160405280600781526020017f233631666637350000000000000000000000000000000000000000000000000081525081526020016040518060400160405280600a81526020017f486578203631666637350000000000000000000000000000000000000000000081525081525090506120d1565b60128203611a815760405180604001604052806040518060400160405280600781526020017f233030626661300000000000000000000000000000000000000000000000000081525081526020016040518060400160405280600a81526020017f486578203030626661300000000000000000000000000000000000000000000081525081525090506120d1565b60138203611b0f5760405180604001604052806040518060400160405280600781526020017f236666613330300000000000000000000000000000000000000000000000000081525081526020016040518060400160405280600a81526020017f486578206666613330300000000000000000000000000000000000000000000081525081525090506120d1565b60148203611b9d5760405180604001604052806040518060400160405280600781526020017f236664376636660000000000000000000000000000000000000000000000000081525081526020016040518060400160405280600a81526020017f486578206664376636660000000000000000000000000000000000000000000081525081525090506120d1565b60158203611c2b5760405180604001604052806040518060400160405280600781526020017f236430663430300000000000000000000000000000000000000000000000000081525081526020016040518060400160405280600a81526020017f486578206430663430300000000000000000000000000000000000000000000081525081525090506120d1565b60168203611cb95760405180604001604052806040518060400160405280600781526020017f233962313966350000000000000000000000000000000000000000000000000081525081526020016040518060400160405280600a81526020017f486578203962313966350000000000000000000000000000000000000000000081525081525090506120d1565b60178203611d475760405180604001604052806040518060400160405280600781526020017f236463306162340000000000000000000000000000000000000000000000000081525081526020016040518060400160405280600a81526020017f486578206463306162340000000000000000000000000000000000000000000081525081525090506120d1565b60188203611dd55760405180604001604052806040518060400160405280600781526020017f236634366139620000000000000000000000000000000000000000000000000081525081526020016040518060400160405280600a81526020017f486578206634366139620000000000000000000000000000000000000000000081525081525090506120d1565b60198203611e635760405180604001604052806040518060400160405280600781526020017f236264376562650000000000000000000000000000000000000000000000000081525081526020016040518060400160405280600a81526020017f486578206264376562650000000000000000000000000000000000000000000081525081525090506120d1565b601a8203611ef15760405180604001604052806040518060400160405280600781526020017f236664434565350000000000000000000000000000000000000000000000000081525081526020016040518060400160405280600a81526020017f486578206664434565350000000000000000000000000000000000000000000081525081525090506120d1565b601b8203611f7f5760405180604001604052806040518060400160405280600781526020017f234643453734430000000000000000000000000000000000000000000000000081525081526020016040518060400160405280600a81526020017f486578204643453734430000000000000000000000000000000000000000000081525081525090506120d1565b601c820361200d5760405180604001604052806040518060400160405280600781526020017f236565656565650000000000000000000000000000000000000000000000000081525081526020016040518060400160405280600a81526020017f486578206565656565650000000000000000000000000000000000000000000081525081525090506120d1565b601d820361209b5760405180604001604052806040518060400160405280600781526020017f233766373636640000000000000000000000000000000000000000000000000081525081526020016040518060400160405280600a81526020017f486578203766373636640000000000000000000000000000000000000000000081525081525090506120d1565b60405180604001604052806040518060200160405280600081525081526020016040518060200160405280600081525081525090505b919050565b604051806060016040528060608152602001606081526020016120f76120fd565b81525090565b604051806040016040528060608152602001606081525090565b600080fd5b6000819050919050565b61212f8161211c565b811461213a57600080fd5b50565b60008135905061214c81612126565b92915050565b6000806040838503121561216957612168612117565b5b60006121778582860161213d565b92505060206121888582860161213d565b9150509250929050565b600081519050919050565b600082825260208201905092915050565b60005b838110156121cc5780820151818401526020810190506121b1565b60008484015250505050565b6000601f19601f8301169050919050565b60006121f482612192565b6121fe818561219d565b935061220e8185602086016121ae565b612217816121d8565b840191505092915050565b6000602082019050818103600083015261223c81846121e9565b905092915050565b7f4e487b7100000000000000000000000000000000000000000000000000000000600052601260045260246000fd5b600061227e8261211c565b91506122898361211c565b92508261229957612298612244565b5b828206905092915050565b7f4e487b7100000000000000000000000000000000000000000000000000000000600052601160045260246000fd5b60006122de8261211c565b91506122e98361211c565b9250826122f9576122f8612244565b5b828204905092915050565b7f4e487b7100000000000000000000000000000000000000000000000000000000600052603260045260246000fd5b600081905092915050565b7f3c7376672077696474683d2235313222206865696768743d223531322220766960008201527f6577426f783d2230203020353132203531322220786d6c6e733d22687474703a60208201527f2f2f7777772e77332e6f72672f323030302f737667223e000000000000000000604082015250565b60006123c0605783612333565b91506123cb8261233e565b605782019050919050565b7f3c726563742077696474683d223130302522206865696768743d22313030252260008201527f2066696c6c3d2223323533313464222f3e000000000000000000000000000000602082015250565b6000612432603183612333565b915061243d826123d6565b603182019050919050565b7f3c7465787420783d223237302220793d223136352220666f6e742d66616d696c60008201527f793d22417269616c2c6d6f6e6f73706163652220666f6e742d7765696768743d60208201527f223930302220666f6e742d73697a653d2236352220746578742d616e63686f7260408201527f3d226d6964646c6522206c65747465722d73706163696e673d223130223e0000606082015250565b60006124f0607e83612333565b91506124fb82612448565b607e82019050919050565b7f3c616e696d617465206174747269627574654e616d653d226479222076616c7560008201527f65733d2231303b303b303a3022206475723d22302e347322207265706561744360208201527f6f756e743d22696e646566696e69746522202f3e000000000000000000000000604082015250565b6000612588605483612333565b915061259382612506565b605482019050919050565b60006125a982612192565b6125b38185612333565b93506125c38185602086016121ae565b80840191505092915050565b7f3c2f746578743e00000000000000000000000000000000000000000000000000600082015250565b6000612605600783612333565b9150612610826125cf565b600782019050919050565b6000612626826123b3565b915061263182612425565b915061263c826124e3565b91506126478261257b565b9150612653828861259e565b915061265f828761259e565b915061266b828661259e565b9150612677828561259e565b9150612682826125f8565b915061268e828461259e565b91508190509695505050505050565b7f7b00000000000000000000000000000000000000000000000000000000000000600082015250565b60006126d3600183612333565b91506126de8261269d565b600182019050919050565b7f226e616d65223a22784e46542023000000000000000000000000000000000000600082015250565b600061271f600e83612333565b915061272a826126e9565b600e82019050919050565b7f222c000000000000000000000000000000000000000000000000000000000000600082015250565b600061276b600283612333565b915061277682612735565b600282019050919050565b7f226465736372697074696f6e223a220000000000000000000000000000000000600082015250565b60006127b7600f83612333565b91506127c282612781565b600f82019050919050565b7f22696d616765223a202200000000000000000000000000000000000000000000600082015250565b6000612803600a83612333565b915061280e826127cd565b600a82019050919050565b7f646174613a696d6167652f7376672b786d6c3b6261736536342c000000000000600082015250565b600061284f601a83612333565b915061285a82612819565b601a82019050919050565b7f2261747472696275746573223a205b7b2274726169745f74797065223a20224860008201527f656164222c202276616c7565223a202200000000000000000000000000000000602082015250565b60006128c1603083612333565b91506128cc82612865565b603082019050919050565b7f2028000000000000000000000000000000000000000000000000000000000000600082015250565b600061290d600283612333565b9150612918826128d7565b600282019050919050565b7f2900000000000000000000000000000000000000000000000000000000000000600082015250565b6000612959600183612333565b915061296482612923565b600182019050919050565b7f227d2c0000000000000000000000000000000000000000000000000000000000600082015250565b60006129a5600383612333565b91506129b08261296f565b600382019050919050565b7f7b2274726169745f74797065223a202246616365222c202276616c7565223a2060008201527f2200000000000000000000000000000000000000000000000000000000000000602082015250565b6000612a17602183612333565b9150612a22826129bb565b602182019050919050565b7f7b2274726169745f74797065223a2022426f6479222c202276616c7565223a2060008201527f2200000000000000000000000000000000000000000000000000000000000000602082015250565b6000612a89602183612333565b9150612a9482612a2d565b602182019050919050565b7f7b2274726169745f74797065223a2022466f6f74222c202276616c7565223a2060008201527f2200000000000000000000000000000000000000000000000000000000000000602082015250565b6000612afb602183612333565b9150612b0682612a9f565b602182019050919050565b7f7b2274726169745f74797065223a2022436f6c6f7273222c202276616c75652260008201527f3a20000000000000000000000000000000000000000000000000000000000000602082015250565b6000612b6d602283612333565b9150612b7882612b11565b602282019050919050565b7f7d00000000000000000000000000000000000000000000000000000000000000600082015250565b6000612bb9600183612333565b9150612bc482612b83565b600182019050919050565b7f5d00000000000000000000000000000000000000000000000000000000000000600082015250565b6000612c05600183612333565b9150612c1082612bcf565b600182019050919050565b6000612c26826126c6565b9150612c3182612712565b9150612c3d828f61259e565b9150612c488261275e565b9150612c53826127aa565b9150612c5f828e61259e565b9150612c6a8261275e565b9150612c75826127f6565b9150612c8082612842565b9150612c8c828d61259e565b9150612c978261275e565b9150612ca2826128b4565b9150612cae828c61259e565b9150612cb982612900565b9150612cc5828b61259e565b9150612cd08261294c565b9150612cdb82612998565b9150612ce682612a0a565b9150612cf2828a61259e565b9150612cfd82612900565b9150612d09828961259e565b9150612d148261294c565b9150612d1f82612998565b9150612d2a82612a7c565b9150612d36828861259e565b9150612d4182612900565b9150612d4d828761259e565b9150612d588261294c565b9150612d6382612998565b9150612d6e82612aee565b9150612d7a828661259e565b9150612d8582612900565b9150612d91828561259e565b9150612d9c8261294c565b9150612da782612998565b9150612db282612b60565b9150612dbe828461259e565b9150612dc982612bac565b9150612dd482612bf8565b9150612ddf82612bac565b91508190509d9c50505050505050505050505050565b7f646174613a6170706c69636174696f6e2f6a736f6e3b6261736536342c000000600082015250565b6000612e2b601d83612333565b9150612e3682612df5565b601d82019050919050565b6000612e4c82612e1e565b9150612e58828461259e565b915081905092915050565b7f3c747370616e2066696c6c3d2200000000000000000000000000000000000000600082015250565b6000612e99600d83612333565b9150612ea482612e63565b600d82019050919050565b7f223e000000000000000000000000000000000000000000000000000000000000600082015250565b6000612ee5600283612333565b9150612ef082612eaf565b600282019050919050565b7f3c2f747370616e3e000000000000000000000000000000000000000000000000600082015250565b6000612f31600883612333565b9150612f3c82612efb565b600882019050919050565b6000612f5282612e8c565b9150612f5e828561259e565b9150612f6982612ed8565b9150612f75828461259e565b9150612f8082612f24565b91508190509392505050565b7f3c747370616e2064793d2236352220783d22323730222066696c6c3d22000000600082015250565b6000612fc2601d83612333565b9150612fcd82612f8c565b601d82019050919050565b6000612fe382612fb5565b9150612fef828561259e565b9150612ffa82612ed8565b9150613006828461259e565b915061301182612f24565b91508190509392505050565b60006130288261211c565b91507fffffffffffffffffffffffffffffffffffffffffffffffffffffffffffffffff820361305a576130596122a4565b5b600182019050919050565b60006130708261211c565b915061307b8361211c565b9250828201905080821115613093576130926122a4565b5b92915050565b60006130a48261211c565b91506130af8361211c565b92508282026130bd8161211c565b915082820484148315176130d4576130d36122a4565b5b5092915050565b7f4e487b7100000000000000000000000000000000000000000000000000000000600052604160045260246000fd5b60006131158261211c565b91506131208361211c565b9250828203905081811115613138576131376122a4565b5b9291505056fe4142434445464748494a4b4c4d4e4f505152535455565758595a6162636465666768696a6b6c6d6e6f707172737475767778797a303132333435363738392b2fa2646970667358221220934f00ed53fbcd83dd488e8aae82899176fa8ce52b46d485598dceff5d11712664736f6c63430008110033",
  "linkReferences": {},
  "deployedLinkReferences": {}
}