{
  "_format": "hh-sol-artifact-1",
  "contractName": "StakingVault",
  "sourceName": "contracts/utils/StakingVault.sol",
  "abi": [
    {
      "inputs": [
        {
          "internalType": "address",
          "name": "_nftAddress",
          "type": "address"
        },
        {
          "internalType": "address",
          "name": "_tokenAddress",
          "type": "address"
        }
      ],
      "stateMutability": "nonpayable",
      "type": "constructor"
    },
    {
      "inputs": [],
      "name": "PikaBounchingVault__ItemAlreadyStaked",
      "type": "error"
    },
    {
      "inputs": [],
      "name": "PikaBounchingVault__NotItemOwner",
      "type": "error"
    },
    {
      "anonymous": false,
      "inputs": [
        {
          "indexed": false,
          "internalType": "address",
          "name": "owner",
          "type": "address"
        },
        {
          "indexed": false,
          "internalType": "uint256",
          "name": "reward",
          "type": "uint256"
        }
      ],
      "name": "Claimed",
      "type": "event"
    },
    {
      "anonymous": false,
      "inputs": [
        {
          "indexed": false,
          "internalType": "uint256",
          "name": "tokenId",
          "type": "uint256"
        },
        {
          "indexed": false,
          "internalType": "address",
          "name": "owner",
          "type": "address"
        },
        {
          "indexed": false,
          "internalType": "uint256",
          "name": "timestamp",
          "type": "uint256"
        }
      ],
      "name": "ItemStaked",
      "type": "event"
    },
    {
      "anonymous": false,
      "inputs": [
        {
          "indexed": false,
          "internalType": "uint256",
          "name": "tokenId",
          "type": "uint256"
        },
        {
          "indexed": false,
          "internalType": "address",
          "name": "owner",
          "type": "address"
        },
        {
          "indexed": false,
          "internalType": "uint256",
          "name": "timestamp",
          "type": "uint256"
        }
      ],
      "name": "ItemUnstaked",
      "type": "event"
    },
    {
      "anonymous": false,
      "inputs": [
        {
          "indexed": true,
          "internalType": "address",
          "name": "previousOwner",
          "type": "address"
        },
        {
          "indexed": true,
          "internalType": "address",
          "name": "newOwner",
          "type": "address"
        }
      ],
      "name": "OwnershipTransferred",
      "type": "event"
    },
    {
      "inputs": [
        {
          "internalType": "address",
          "name": "user",
          "type": "address"
        }
      ],
      "name": "balanceOf",
      "outputs": [
        {
          "internalType": "uint256",
          "name": "nftStakedbalance",
          "type": "uint256"
        }
      ],
      "stateMutability": "view",
      "type": "function"
    },
    {
      "inputs": [
        {
          "internalType": "uint256",
          "name": "stakingPeriod",
          "type": "uint256"
        }
      ],
      "name": "calculateReward",
      "outputs": [
        {
          "internalType": "uint256",
          "name": "rewardEstimate",
          "type": "uint256"
        }
      ],
      "stateMutability": "view",
      "type": "function"
    },
    {
      "inputs": [
        {
          "internalType": "uint256[]",
          "name": "tokenIds",
          "type": "uint256[]"
        }
      ],
      "name": "claim",
      "outputs": [],
      "stateMutability": "nonpayable",
      "type": "function"
    },
    {
      "inputs": [
        {
          "internalType": "uint256",
          "name": "_tokenId",
          "type": "uint256"
        }
      ],
      "name": "getRewardEarnedPerNft",
      "outputs": [
        {
          "internalType": "uint256",
          "name": "rewardEarned",
          "type": "uint256"
        },
        {
          "internalType": "uint256",
          "name": "stakingPeriod",
          "type": "uint256"
        }
      ],
      "stateMutability": "view",
      "type": "function"
    },
    {
      "inputs": [
        {
          "internalType": "address",
          "name": "user",
          "type": "address"
        }
      ],
      "name": "getTotalRewardEarned",
      "outputs": [
        {
          "internalType": "uint256",
          "name": "rewardEarned",
          "type": "uint256"
        }
      ],
      "stateMutability": "view",
      "type": "function"
    },
    {
      "inputs": [
        {
          "internalType": "address",
          "name": "",
          "type": "address"
        },
        {
          "internalType": "address",
          "name": "",
          "type": "address"
        },
        {
          "internalType": "uint256",
          "name": "",
          "type": "uint256"
        },
        {
          "internalType": "bytes",
          "name": "",
          "type": "bytes"
        }
      ],
      "name": "onERC721Received",
      "outputs": [
        {
          "internalType": "bytes4",
          "name": "",
          "type": "bytes4"
        }
      ],
      "stateMutability": "pure",
      "type": "function"
    },
    {
      "inputs": [],
      "name": "owner",
      "outputs": [
        {
          "internalType": "address",
          "name": "",
          "type": "address"
        }
      ],
      "stateMutability": "view",
      "type": "function"
    },
    {
      "inputs": [],
      "name": "renounceOwnership",
      "outputs": [],
      "stateMutability": "nonpayable",
      "type": "function"
    },
    {
      "inputs": [],
      "name": "rewardRatePerSecond",
      "outputs": [
        {
          "internalType": "uint256",
          "name": "",
          "type": "uint256"
        }
      ],
      "stateMutability": "view",
      "type": "function"
    },
    {
      "inputs": [
        {
          "internalType": "uint256[]",
          "name": "tokenIds",
          "type": "uint256[]"
        }
      ],
      "name": "stake",
      "outputs": [],
      "stateMutability": "nonpayable",
      "type": "function"
    },
    {
      "inputs": [
        {
          "internalType": "address",
          "name": "user",
          "type": "address"
        }
      ],
      "name": "tokensOfOwner",
      "outputs": [
        {
          "internalType": "uint256[]",
          "name": "tokens",
          "type": "uint256[]"
        }
      ],
      "stateMutability": "view",
      "type": "function"
    },
    {
      "inputs": [],
      "name": "totalItemsStaked",
      "outputs": [
        {
          "internalType": "uint256",
          "name": "",
          "type": "uint256"
        }
      ],
      "stateMutability": "view",
      "type": "function"
    },
    {
      "inputs": [
        {
          "internalType": "address",
          "name": "newOwner",
          "type": "address"
        }
      ],
      "name": "transferOwnership",
      "outputs": [],
      "stateMutability": "nonpayable",
      "type": "function"
    },
    {
      "inputs": [
        {
          "internalType": "uint256[]",
          "name": "tokenIds",
          "type": "uint256[]"
        }
      ],
      "name": "unstake",
      "outputs": [],
      "stateMutability": "nonpayable",
      "type": "function"
    },
    {
      "inputs": [
        {
          "internalType": "address",
          "name": "_nftAddress",
          "type": "address"
        },
        {
          "internalType": "address",
          "name": "_tokenAddress",
          "type": "address"
        }
      ],
      "name": "updateVaultInterface",
      "outputs": [],
      "stateMutability": "nonpayable",
      "type": "function"
    }
  ],
  "bytecode": "0x608060405260646002553480156200001657600080fd5b5060405162001e2a38038062001e2a83398181016040528101906200003c91906200021c565b6200005c62000050620000e660201b60201c565b620000ee60201b60201c565b81600360006101000a81548173ffffffffffffffffffffffffffffffffffffffff021916908373ffffffffffffffffffffffffffffffffffffffff16021790555080600460006101000a81548173ffffffffffffffffffffffffffffffffffffffff021916908373ffffffffffffffffffffffffffffffffffffffff160217905550505062000263565b600033905090565b60008060009054906101000a900473ffffffffffffffffffffffffffffffffffffffff169050816000806101000a81548173ffffffffffffffffffffffffffffffffffffffff021916908373ffffffffffffffffffffffffffffffffffffffff1602179055508173ffffffffffffffffffffffffffffffffffffffff168173ffffffffffffffffffffffffffffffffffffffff167f8be0079c531659141344cd1fd0a4f28419497f9722a3daafe3b4186f6b6457e060405160405180910390a35050565b600080fd5b600073ffffffffffffffffffffffffffffffffffffffff82169050919050565b6000620001e482620001b7565b9050919050565b620001f681620001d7565b81146200020257600080fd5b50565b6000815190506200021681620001eb565b92915050565b60008060408385031215620002365762000235620001b2565b5b6000620002468582860162000205565b9250506020620002598582860162000205565b9150509250929050565b611bb780620002736000396000f3fe608060405234801561001057600080fd5b50600436106100f55760003560e01c80636ba4c138116100975780638da5cb5b116100665780638da5cb5b14610285578063d2d7231f146102a3578063e449f341146102d3578063f2fde38b146102ef576100f5565b80636ba4c138146101ff57806370a082311461021b578063715018a61461024b5780638462151c14610255576100f5565b806333e58779116100d357806333e5877914610162578063454938e0146101805780635704589c146101b05780635d773b2c146101e1576100f5565b80630fbf0a93146100fa578063150b7a021461011657806325ae6bae14610146575b600080fd5b610114600480360381019061010f9190611348565b61030b565b005b610130600480360381019061012b919061147f565b610666565b60405161013d9190611542565b60405180910390f35b610160600480360381019061015b919061155d565b61067b565b005b61016a610709565b60405161017791906115ac565b60405180910390f35b61019a600480360381019061019591906115c7565b61070f565b6040516101a791906115ac565b60405180910390f35b6101ca60048036038101906101c591906115f4565b6107ee565b6040516101d8929190611621565b60405180910390f35b6101e961087b565b6040516101f691906115ac565b60405180910390f35b61021960048036038101906102149190611348565b610881565b005b610235600480360381019061023091906115c7565b610892565b60405161024291906115ac565b60405180910390f35b6102536109b4565b005b61026f600480360381019061026a91906115c7565b6109c8565b60405161027c9190611708565b60405180910390f35b61028d610b89565b60405161029a9190611739565b60405180910390f35b6102bd60048036038101906102b891906115f4565b610bb2565b6040516102ca91906115ac565b60405180910390f35b6102ed60048036038101906102e89190611348565b610bc4565b005b610309600480360381019061030491906115c7565b610bd5565b005b600080600084849050905060005b8181101561064a5785858281811061033457610333611754565b5b905060200201359350600073ffffffffffffffffffffffffffffffffffffffff166005600086815260200190815260200160002060000160009054906101000a900473ffffffffffffffffffffffffffffffffffffffff1673ffffffffffffffffffffffffffffffffffffffff16146103d9576040517fe172d6ce00000000000000000000000000000000000000000000000000000000815260040160405180910390fd5b3373ffffffffffffffffffffffffffffffffffffffff16600360009054906101000a900473ffffffffffffffffffffffffffffffffffffffff1673ffffffffffffffffffffffffffffffffffffffff16636352211e866040518263ffffffff1660e01b815260040161044b91906115ac565b602060405180830381865afa158015610468573d6000803e3d6000fd5b505050506040513d601f19601f8201168201806040525081019061048c9190611798565b73ffffffffffffffffffffffffffffffffffffffff16146104d9576040517fc7ceed2a00000000000000000000000000000000000000000000000000000000815260040160405180910390fd5b600360009054906101000a900473ffffffffffffffffffffffffffffffffffffffff1673ffffffffffffffffffffffffffffffffffffffff166342842e0e3330876040518463ffffffff1660e01b8152600401610538939291906117c5565b600060405180830381600087803b15801561055257600080fd5b505af1158015610566573d6000803e3d6000fd5b5050505060405180604001604052803373ffffffffffffffffffffffffffffffffffffffff168152602001428152506005600086815260200190815260200160002060008201518160000160006101000a81548173ffffffffffffffffffffffffffffffffffffffff021916908373ffffffffffffffffffffffffffffffffffffffff160217905550602082015181600101559050507f718e21c56085c799f7e177a1bd6691cdbf9c929d9760133b991577c48871529084334260405161062f939291906117fc565b60405180910390a18280600101935050806001019050610319565b50816001546106599190611862565b6001819055505050505050565b600063150b7a0260e01b905095945050505050565b610683610c58565b80600460006101000a81548173ffffffffffffffffffffffffffffffffffffffff021916908373ffffffffffffffffffffffffffffffffffffffff16021790555081600360006101000a81548173ffffffffffffffffffffffffffffffffffffffff021916908373ffffffffffffffffffffffffffffffffffffffff1602179055505050565b60015481565b600080600061071d846109c8565b905060008151905060005b818110156107d65760006005600085848151811061074957610748611754565b5b60200260200101518152602001908152602001600020600101549050600081426107739190611896565b9050600061078082610cd6565b905062015180670de0b6b3a76400008383606461079d91906118ca565b6107a791906118ca565b6107b191906118ca565b6107bb919061193b565b876107c69190611862565b9650836001019350505050610728565b506064836107e4919061193b565b9350505050919050565b60008060006005600085815260200190815260200160002060010154905080426108189190611896565b9150600061082583610cd6565b9050600062015180670de0b6b3a76400008584606461084491906118ca565b61084e91906118ca565b61085891906118ca565b610862919061193b565b9050606481610871919061193b565b9450505050915091565b60025481565b61088e3383836000610d84565b5050565b600080600360009054906101000a900473ffffffffffffffffffffffffffffffffffffffff1673ffffffffffffffffffffffffffffffffffffffff166318160ddd6040518163ffffffff1660e01b8152600401602060405180830381865afa158015610902573d6000803e3d6000fd5b505050506040513d601f19601f820116820180604052508101906109269190611981565b905060005b8181116109ad578373ffffffffffffffffffffffffffffffffffffffff166005600083815260200190815260200160002060000160009054906101000a900473ffffffffffffffffffffffffffffffffffffffff1673ffffffffffffffffffffffffffffffffffffffff16036109a2576001830192505b80600101905061092b565b5050919050565b6109bc610c58565b6109c66000610ff6565b565b606060006109d583610892565b90506000600360009054906101000a900473ffffffffffffffffffffffffffffffffffffffff1673ffffffffffffffffffffffffffffffffffffffff166318160ddd6040518163ffffffff1660e01b8152600401602060405180830381865afa158015610a46573d6000803e3d6000fd5b505050506040513d601f19601f82011682018060405250810190610a6a9190611981565b90508167ffffffffffffffff811115610a8657610a856119ae565b5b604051908082528060200260200182016040528015610ab45781602001602082028036833780820191505090505b5092506000808303610ac857505050610b84565b60005b828111610b7f578573ffffffffffffffffffffffffffffffffffffffff166005600083815260200190815260200160002060000160009054906101000a900473ffffffffffffffffffffffffffffffffffffffff1673ffffffffffffffffffffffffffffffffffffffff1603610b645780858381518110610b4f57610b4e611754565b5b60200260200101818152505081806001019250505b838203610b745750505050610b84565b806001019050610acb565b505050505b919050565b60008060009054906101000a900473ffffffffffffffffffffffffffffffffffffffff16905090565b6000610bbd82610cd6565b9050919050565b610bd13383836001610d84565b5050565b610bdd610c58565b600073ffffffffffffffffffffffffffffffffffffffff168173ffffffffffffffffffffffffffffffffffffffff1603610c4c576040517f08c379a0000000000000000000000000000000000000000000000000000000008152600401610c4390611a60565b60405180910390fd5b610c5581610ff6565b50565b610c606110ba565b73ffffffffffffffffffffffffffffffffffffffff16610c7e610b89565b73ffffffffffffffffffffffffffffffffffffffff1614610cd4576040517f08c379a0000000000000000000000000000000000000000000000000000000008152600401610ccb90611acc565b60405180910390fd5b565b600062278d008211610cf8576001546064610cf1919061193b565b9050610d7f565b62278d006003610d0891906118ca565b821015610d255760015460c8610d1e919061193b565b9050610d7e565b62278d006006610d3591906118ca565b821015610d5357600154610190610d4c919061193b565b9050610d7d565b62278d006006610d6391906118ca565b8210610d7c57600154610320610d79919061193b565b90505b5b5b5b919050565b60008060008086869050905060005b81811015610ef957878782818110610dae57610dad611754565b5b9050602002013594508873ffffffffffffffffffffffffffffffffffffffff166005600087815260200190815260200160002060000160009054906101000a900473ffffffffffffffffffffffffffffffffffffffff1673ffffffffffffffffffffffffffffffffffffffff1614610e52576040517fc7ceed2a00000000000000000000000000000000000000000000000000000000815260040160405180910390fd5b60006005600087815260200190815260200160002060010154905060008142610e7b9190611896565b90506000610e8882610cd6565b905062015180670de0b6b3a764000083836064610ea591906118ca565b610eaf91906118ca565b610eb991906118ca565b610ec3919061193b565b87610ece9190611862565b965042600560008a815260200190815260200160002060010181905550836001019350505050610d93565b50606483610f07919061193b565b915060008214610fda57600460009054906101000a900473ffffffffffffffffffffffffffffffffffffffff1673ffffffffffffffffffffffffffffffffffffffff166340c10f1989846040518363ffffffff1660e01b8152600401610f6e929190611aec565b600060405180830381600087803b158015610f8857600080fd5b505af1158015610f9c573d6000803e3d6000fd5b505050507fd8138f8a3f377c5259ca548e70e4c2de94f129f5a11036a15b69513cba2b426a8883604051610fd1929190611aec565b60405180910390a15b8415610fec57610feb8888886110c2565b5b5050505050505050565b60008060009054906101000a900473ffffffffffffffffffffffffffffffffffffffff169050816000806101000a81548173ffffffffffffffffffffffffffffffffffffffff021916908373ffffffffffffffffffffffffffffffffffffffff1602179055508173ffffffffffffffffffffffffffffffffffffffff168173ffffffffffffffffffffffffffffffffffffffff167f8be0079c531659141344cd1fd0a4f28419497f9722a3daafe3b4186f6b6457e060405160405180910390a35050565b600033905090565b600080600084849050905060005b818110156112bc578585828181106110eb576110ea611754565b5b9050602002013593508673ffffffffffffffffffffffffffffffffffffffff166005600086815260200190815260200160002060000160009054906101000a900473ffffffffffffffffffffffffffffffffffffffff1673ffffffffffffffffffffffffffffffffffffffff1614611198576040517f08c379a000000000000000000000000000000000000000000000000000000000815260040161118f90611b61565b60405180910390fd5b600360009054906101000a900473ffffffffffffffffffffffffffffffffffffffff1673ffffffffffffffffffffffffffffffffffffffff166342842e0e3089876040518463ffffffff1660e01b81526004016111f7939291906117c5565b600060405180830381600087803b15801561121157600080fd5b505af1158015611225573d6000803e3d6000fd5b5050505060056000858152602001908152602001600020600080820160006101000a81549073ffffffffffffffffffffffffffffffffffffffff0219169055600182016000905550507f175dc19fb4fe98420fd7e191684ecdc746cb34c7b69706c3713328d25f7be2058488426040516112a1939291906117fc565b60405180910390a182806001019350508060010190506110d0565b50816001546112cb9190611896565b600181905550505050505050565b600080fd5b600080fd5b600080fd5b600080fd5b600080fd5b60008083601f840112611308576113076112e3565b5b8235905067ffffffffffffffff811115611325576113246112e8565b5b602083019150836020820283011115611341576113406112ed565b5b9250929050565b6000806020838503121561135f5761135e6112d9565b5b600083013567ffffffffffffffff81111561137d5761137c6112de565b5b611389858286016112f2565b92509250509250929050565b600073ffffffffffffffffffffffffffffffffffffffff82169050919050565b60006113c082611395565b9050919050565b6113d0816113b5565b81146113db57600080fd5b50565b6000813590506113ed816113c7565b92915050565b6000819050919050565b611406816113f3565b811461141157600080fd5b50565b600081359050611423816113fd565b92915050565b60008083601f84011261143f5761143e6112e3565b5b8235905067ffffffffffffffff81111561145c5761145b6112e8565b5b602083019150836001820283011115611478576114776112ed565b5b9250929050565b60008060008060006080868803121561149b5761149a6112d9565b5b60006114a9888289016113de565b95505060206114ba888289016113de565b94505060406114cb88828901611414565b935050606086013567ffffffffffffffff8111156114ec576114eb6112de565b5b6114f888828901611429565b92509250509295509295909350565b60007fffffffff0000000000000000000000000000000000000000000000000000000082169050919050565b61153c81611507565b82525050565b60006020820190506115576000830184611533565b92915050565b60008060408385031215611574576115736112d9565b5b6000611582858286016113de565b9250506020611593858286016113de565b9150509250929050565b6115a6816113f3565b82525050565b60006020820190506115c1600083018461159d565b92915050565b6000602082840312156115dd576115dc6112d9565b5b60006115eb848285016113de565b91505092915050565b60006020828403121561160a576116096112d9565b5b600061161884828501611414565b91505092915050565b6000604082019050611636600083018561159d565b611643602083018461159d565b9392505050565b600081519050919050565b600082825260208201905092915050565b6000819050602082019050919050565b61167f816113f3565b82525050565b60006116918383611676565b60208301905092915050565b6000602082019050919050565b60006116b58261164a565b6116bf8185611655565b93506116ca83611666565b8060005b838110156116fb5781516116e28882611685565b97506116ed8361169d565b9250506001810190506116ce565b5085935050505092915050565b6000602082019050818103600083015261172281846116aa565b905092915050565b611733816113b5565b82525050565b600060208201905061174e600083018461172a565b92915050565b7f4e487b7100000000000000000000000000000000000000000000000000000000600052603260045260246000fd5b600081519050611792816113c7565b92915050565b6000602082840312156117ae576117ad6112d9565b5b60006117bc84828501611783565b91505092915050565b60006060820190506117da600083018661172a565b6117e7602083018561172a565b6117f4604083018461159d565b949350505050565b6000606082019050611811600083018661159d565b61181e602083018561172a565b61182b604083018461159d565b949350505050565b7f4e487b7100000000000000000000000000000000000000000000000000000000600052601160045260246000fd5b600061186d826113f3565b9150611878836113f3565b92508282019050808211156118905761188f611833565b5b92915050565b60006118a1826113f3565b91506118ac836113f3565b92508282039050818111156118c4576118c3611833565b5b92915050565b60006118d5826113f3565b91506118e0836113f3565b92508282026118ee816113f3565b9150828204841483151761190557611904611833565b5b5092915050565b7f4e487b7100000000000000000000000000000000000000000000000000000000600052601260045260246000fd5b6000611946826113f3565b9150611951836113f3565b9250826119615761196061190c565b5b828204905092915050565b60008151905061197b816113fd565b92915050565b600060208284031215611997576119966112d9565b5b60006119a58482850161196c565b91505092915050565b7f4e487b7100000000000000000000000000000000000000000000000000000000600052604160045260246000fd5b600082825260208201905092915050565b7f4f776e61626c653a206e6577206f776e657220697320746865207a65726f206160008201527f6464726573730000000000000000000000000000000000000000000000000000602082015250565b6000611a4a6026836119dd565b9150611a55826119ee565b604082019050919050565b60006020820190508181036000830152611a7981611a3d565b9050919050565b7f4f776e61626c653a2063616c6c6572206973206e6f7420746865206f776e6572600082015250565b6000611ab66020836119dd565b9150611ac182611a80565b602082019050919050565b60006020820190508181036000830152611ae581611aa9565b9050919050565b6000604082019050611b01600083018561172a565b611b0e602083018461159d565b9392505050565b7f4e6f74204f776e65720000000000000000000000000000000000000000000000600082015250565b6000611b4b6009836119dd565b9150611b5682611b15565b602082019050919050565b60006020820190508181036000830152611b7a81611b3e565b905091905056fea2646970667358221220fe4cddee8e9f3f7775556a8efe3d688418c1318d9fd1144327a299de1bd5ab6c64736f6c63430008110033",
  "linkReferences": {},
  "deployedLinkReferences": {}
}