{
  "_format": "hh-sol-artifact-1",
  "contractName": "NftDescriptor",
  "sourceName": "contracts/utils/NftDescriptor.sol",
  "abi": [
    {
      "inputs": [
        {
          "internalType": "uint256",
          "name": "tokenId",
          "type": "uint256"
        },
        {
          "internalType": "uint256",
          "name": "seed",
          "type": "uint256"
        }
      ],
      "name": "tokenURI",
      "outputs": [
        {
          "internalType": "string",
          "name": "",
          "type": "string"
        }
      ],
      "stateMutability": "pure",
      "type": "function"
    }
  ],
  "bytecode": "0x608060405234801561001057600080fd5b5061365d806100206000396000f3fe608060405234801561001057600080fd5b506004361061002b5760003560e01c806392cb829d14610030575b600080fd5b61004a6004803603810190610045919061262f565b610060565b60405161005791906126ff565b60405180910390f35b60606000604051806080016040528064e8d4a51000655af3107a4000866100879190612750565b61009191906127b0565b81526020016305f5e1006402540be400866100ac9190612750565b6100b691906127b0565b8152602001612710620f4240866100cd9190612750565b6100d791906127b0565b81526020016064856100e99190612750565b81525090506000610123655af3107a40008561010591906127b0565b83600060048110610119576101186127e1565b5b6020020151610348565b905060006101696402540be40064e8d4a51000876101419190612750565b61014b91906127b0565b8460016004811061015f5761015e6127e1565b5b6020020151610773565b905060006101ac620f42406305f5e100886101849190612750565b61018e91906127b0565b856002600481106101a2576101a16127e1565b5b6020020151610b9e565b905060006101eb6064612710896101c39190612750565b6101cd91906127b0565b866003600481106101e1576101e06127e1565b5b6020020151610f50565b9050600084600001518460000151846000015184600001516040518060400160405280600681526020017f3c2f7376673e000000000000000000000000000000000000000000000000000081525060405160200161024d959493929190612af8565b60405160208183030381529060405290506000610269826110a5565b905060006040518060400160405280601381526020017f466c61707079204f776c20546573746e65742e0000000000000000000000000081525090506103196102b18c61121d565b82848a602001518b60400151602001518b602001518c60400151602001518c602001518d60400151602001518d602001518e60400151602001516040516020016103059b9a999897969594939291906130d2565b6040516020818303038152906040526110a5565b60405160200161032991906132d5565b6040516020818303038152906040529850505050505050505092915050565b6103506125b3565b600061035b836112eb565b9050606080600a86036103d9576040518060400160405280600481526020017f272d2d270000000000000000000000000000000000000000000000000000000081525091506040518060400160405280600481526020017f466c61740000000000000000000000000000000000000000000000000000000081525090505b600b8603610452576040518060400160405280600681526020017f282828292929000000000000000000000000000000000000000000000000000081525091506040518060400160405280600981526020017f54776f20426c6f636b000000000000000000000000000000000000000000000081525090505b600c86036104cb576040518060400160405280600681526020017f3d2a3d3d2a3d000000000000000000000000000000000000000000000000000081525091506040518060400160405280600881526020017f5069677461696c7300000000000000000000000000000000000000000000000081525090505b600d8603610544576040518060400160405280600381526020017f2f2f2f000000000000000000000000000000000000000000000000000000000081525091506040518060400160405280600481526020017f50756e6b0000000000000000000000000000000000000000000000000000000081525090505b600e86036105bd576040518060400160405280600581526020017f285c5f2f2900000000000000000000000000000000000000000000000000000081525091506040518060400160405280600881526020017f466561746865727300000000000000000000000000000000000000000000000081525090505b600f8603610636576040518060400160405280600481526020017f2f2d2d2f0000000000000000000000000000000000000000000000000000000081525091506040518060400160405280600581526020017f486f726e7300000000000000000000000000000000000000000000000000000081525090505b601086036106af576040518060400160405280600381526020017f7e7e7e000000000000000000000000000000000000000000000000000000000081525091506040518060400160405280600a81526020017f4375726c7920686169720000000000000000000000000000000000000000000081525090505b60118603610728576040518060400160405280600381526020017f5c5c5c000000000000000000000000000000000000000000000000000000000081525091506040518060400160405280600c81526020017f526576657273652050756e6b000000000000000000000000000000000000000081525090505b604051806060016040528084600001518460405160200161074a9291906133db565b604051602081830303815290604052815260200182815260200184815250935050505092915050565b61077b6125b3565b6000610786836112eb565b9050606080600a8603610804576040518060400160405280600581526020017f286f2c6f2900000000000000000000000000000000000000000000000000000081525091506040518060400160405280600981526020017f45796573206f70656e000000000000000000000000000000000000000000000081525090505b600b860361087d576040518060400160405280600581526020017f282d2c2d2900000000000000000000000000000000000000000000000000000081525091506040518060400160405280600881526020017f536c656570696e6700000000000000000000000000000000000000000000000081525090505b600c86036108f6576040518060400160405280600581526020017f286f2c2d2900000000000000000000000000000000000000000000000000000081525091506040518060400160405280600481526020017f57696e6b0000000000000000000000000000000000000000000000000000000081525090505b600d860361096f576040518060400160405280600581526020017f286f2c4f2900000000000000000000000000000000000000000000000000000081525091506040518060400160405280600a81526020017f537573706963696f75730000000000000000000000000000000000000000000081525090505b600e86036109e8576040518060400160405280600581526020017f285e2c5e2900000000000000000000000000000000000000000000000000000081525091506040518060400160405280600581526020017f536d696c6500000000000000000000000000000000000000000000000000000081525090505b600f8603610a61576040518060400160405280600581526020017f286f2d6f2900000000000000000000000000000000000000000000000000000081525091506040518060400160405280600781526020017f476c61737365730000000000000000000000000000000000000000000000000081525090505b60108603610ada576040518060400160405280600581526020017f5b3d2c3d5d00000000000000000000000000000000000000000000000000000081525091506040518060400160405280600581526020017f526f626f7400000000000000000000000000000000000000000000000000000081525090505b60108603610b53576040518060400160405280600581526020017f28242c242900000000000000000000000000000000000000000000000000000081525091506040518060400160405280600a81526020017f5768656e204c616d626f0000000000000000000000000000000000000000000081525090505b6040518060600160405280846000015184604051602001610b7592919061346c565b604051602081830303815290604052815260200182815260200184815250935050505092915050565b610ba66125b3565b6000610bb1836112eb565b9050606080600a8603610c2f576040518060400160405280600b81526020017f2f2f2f5b203a2d5d5c5c5c00000000000000000000000000000000000000000081525091506040518060400160405280600881526020017f466561746865727300000000000000000000000000000000000000000000000081525090505b600b8603610ca8576040518060400160405280600b81526020017f2f2f2f7b5c532f7d5c5c5c00000000000000000000000000000000000000000081525091506040518060400160405280600481526020017f537761670000000000000000000000000000000000000000000000000000000081525090505b600c8603610d21576040518060400160405280600b81526020017f2f2f2f7b3d7c3d7d5c5c5c00000000000000000000000000000000000000000081525091506040518060400160405280600881526020017f4d757363756c617200000000000000000000000000000000000000000000000081525090505b600d8603610d9a576040518060400160405280600b81526020017f2f2f2f285c2b2f295c5c5c00000000000000000000000000000000000000000081525091506040518060400160405280600681526020017f507269657374000000000000000000000000000000000000000000000000000081525090505b600e8603610e13576040518060400160405280600b81526020017f2f2f2f7b203a7e7d5c5c5c00000000000000000000000000000000000000000081525091506040518060400160405280600581526020017f536869727400000000000000000000000000000000000000000000000000000081525090505b600f8603610e8c576040518060400160405280600b81526020017f2f2f2f7b5c3a2f7d5c5c5c00000000000000000000000000000000000000000081525091506040518060400160405280600481526020017f537569740000000000000000000000000000000000000000000000000000000081525090505b60108603610f05576040518060400160405280600b81526020017f2f2f2f7b5c2a2f7d5c5c5c00000000000000000000000000000000000000000081525091506040518060400160405280600681526020017f4d6564616c73000000000000000000000000000000000000000000000000000081525090505b6040518060600160405280846000015184604051602001610f279291906134fd565b604051602081830303815290604052815260200182815260200184815250935050505092915050565b610f586125b3565b6000610f63836112eb565b9050606080600a8603610fe1576040518060400160405280600581526020017f7e227e227e00000000000000000000000000000000000000000000000000000081525091506040518060400160405280600c81526020017f486f6c64696e6720666f6f64000000000000000000000000000000000000000081525090505b600b860361105a576040518060400160405280600381526020017f222022000000000000000000000000000000000000000000000000000000000081525091506040518060400160405280600681526020017f4e6f726d616c000000000000000000000000000000000000000000000000000081525090505b604051806060016040528084600001518460405160200161107c9291906134fd565b604051602081830303815290604052815260200182815260200184815250935050505092915050565b606060008251036110c757604051806020016040528060008152509050611218565b60006040518060600160405280604081526020016135e860409139905060006003600285516110f69190613542565b61110091906127b0565b600461110c9190613576565b9050600060208261111d9190613542565b67ffffffffffffffff811115611136576111356135b8565b5b6040519080825280601f01601f1916602001820160405280156111685781602001600182028036833780820191505090505b509050818152600183018586518101602084015b818310156111d7576003830192508251603f8160121c168501518253600182019150603f81600c1c168501518253600182019150603f8160061c168501518253600182019150603f811685015182536001820191505061117c565b6003895106600181146111f157600281146112015761120c565b613d3d60f01b600283035261120c565b603d60f81b60018303525b50505050508093505050505b919050565b60606000600161122c84612460565b01905060008167ffffffffffffffff81111561124b5761124a6135b8565b5b6040519080825280601f01601f19166020018201604052801561127d5781602001600182028036833780820191505090505b509050600082602001820190505b6001156112e0578080600190039150507f3031323334353637383961626364656600000000000000000000000000000000600a86061a8153600a85816112d4576112d3612721565b5b0494506000850361128b575b819350505050919050565b6112f36125da565b600a82036113815760405180604001604052806040518060400160405280600781526020017f236536303034390000000000000000000000000000000000000000000000000081525081526020016040518060400160405280600b81526020017f5265642053757072696d65000000000000000000000000000000000000000000815250815250905061245b565b600b820361140f5760405180604001604052806040518060400160405280600781526020017f233030424646460000000000000000000000000000000000000000000000000081525081526020016040518060400160405280600881526020017f4465657020536b79000000000000000000000000000000000000000000000000815250815250905061245b565b600c820361149d5760405180604001604052806040518060400160405280600781526020017f233431363945310000000000000000000000000000000000000000000000000081525081526020016040518060400160405280600a81526020017f526f79616c20426c756500000000000000000000000000000000000000000000815250815250905061245b565b600d820361152b5760405180604001604052806040518060400160405280600781526020017f233030666666660000000000000000000000000000000000000000000000000081525081526020016040518060400160405280600481526020017f4171756100000000000000000000000000000000000000000000000000000000815250815250905061245b565b600e82036115b95760405180604001604052806040518060400160405280600781526020017f233062623466660000000000000000000000000000000000000000000000000081525081526020016040518060400160405280600981526020017f426c756520426f6c740000000000000000000000000000000000000000000000815250815250905061245b565b600f82036116475760405180604001604052806040518060400160405280600781526020017f233138353366660000000000000000000000000000000000000000000000000081525081526020016040518060400160405280600881526020017f426c756520525942000000000000000000000000000000000000000000000000815250815250905061245b565b601082036116d55760405180604001604052806040518060400160405280600781526020017f233335643433350000000000000000000000000000000000000000000000000081525081526020016040518060400160405280600c81526020017f4861636b657220477265656e0000000000000000000000000000000000000000815250815250905061245b565b601182036117635760405180604001604052806040518060400160405280600781526020017f233631666637350000000000000000000000000000000000000000000000000081525081526020016040518060400160405280600e81526020017f53637265616d696e20477265656e000000000000000000000000000000000000815250815250905061245b565b601282036117f15760405180604001604052806040518060400160405280600781526020017f233030626661300000000000000000000000000000000000000000000000000081525081526020016040518060400160405280600f81526020017f43617269626265616e20477265656e0000000000000000000000000000000000815250815250905061245b565b6013820361187f5760405180604001604052806040518060400160405280600781526020017f236666613330300000000000000000000000000000000000000000000000000081525081526020016040518060400160405280600681526020017f4f72616e67650000000000000000000000000000000000000000000000000000815250815250905061245b565b6014820361190d5760405180604001604052806040518060400160405280600781526020017f234641383037320000000000000000000000000000000000000000000000000081525081526020016040518060400160405280600681526020017f53616c6d6f6e0000000000000000000000000000000000000000000000000000815250815250905061245b565b6015820361199b5760405180604001604052806040518060400160405280600781526020017f236430663430300000000000000000000000000000000000000000000000000081525081526020016040518060400160405280600481526020017f4c696d6500000000000000000000000000000000000000000000000000000000815250815250905061245b565b60168203611a295760405180604001604052806040518060400160405280600781526020017f233962313966350000000000000000000000000000000000000000000000000081525081526020016040518060400160405280600a81526020017f507572706c652058313100000000000000000000000000000000000000000000815250815250905061245b565b60178203611ab75760405180604001604052806040518060400160405280600781526020017f234646303046460000000000000000000000000000000000000000000000000081525081526020016040518060400160405280600781526020017f4d6167656e746100000000000000000000000000000000000000000000000000815250815250905061245b565b60188203611b455760405180604001604052806040518060400160405280600781526020017f236634366139620000000000000000000000000000000000000000000000000081525081526020016040518060400160405280600881526020017f4379636c616d656e000000000000000000000000000000000000000000000000815250815250905061245b565b60198203611bd35760405180604001604052806040518060400160405280600781526020017f233934303044330000000000000000000000000000000000000000000000000081525081526020016040518060400160405280600b81526020017f4461726b2056696f6c6574000000000000000000000000000000000000000000815250815250905061245b565b601a8203611c615760405180604001604052806040518060400160405280600781526020017f234646453442350000000000000000000000000000000000000000000000000081525081526020016040518060400160405280600881526020017f4d6f63636173696e000000000000000000000000000000000000000000000000815250815250905061245b565b601b8203611cef5760405180604001604052806040518060400160405280600781526020017f234643453734430000000000000000000000000000000000000000000000000081525081526020016040518060400160405280600681526020017f50617374656c0000000000000000000000000000000000000000000000000000815250815250905061245b565b601c8203611d7d5760405180604001604052806040518060400160405280600781526020017f236565656565650000000000000000000000000000000000000000000000000081525081526020016040518060400160405280600b81526020017f4272696768742047726179000000000000000000000000000000000000000000815250815250905061245b565b601d8203611e0b5760405180604001604052806040518060400160405280600781526020017f233730383039300000000000000000000000000000000000000000000000000081525081526020016040518060400160405280600a81526020017f53616c7465206772617900000000000000000000000000000000000000000000815250815250905061245b565b601e8203611e995760405180604001604052806040518060400160405280600781526020017f233746464630300000000000000000000000000000000000000000000000000081525081526020016040518060400160405280600a81526020017f4368617274726575736500000000000000000000000000000000000000000000815250815250905061245b565b601f8203611f275760405180604001604052806040518060400160405280600781526020017f234144464632460000000000000000000000000000000000000000000000000081525081526020016040518060400160405280600c81526020017f477265656e2059656c6c6f770000000000000000000000000000000000000000815250815250905061245b565b60208203611fb55760405180604001604052806040518060400160405280600781526020017f234444413044440000000000000000000000000000000000000000000000000081525081526020016040518060400160405280600481526020017f506c756d00000000000000000000000000000000000000000000000000000000815250815250905061245b565b602182036120435760405180604001604052806040518060400160405280600781526020017f233837434546410000000000000000000000000000000000000000000000000081525081526020016040518060400160405280600d81526020017f4c69676874736b7920426c756500000000000000000000000000000000000000815250815250905061245b565b602282036120d15760405180604001604052806040518060400160405280600781526020017f233938464239380000000000000000000000000000000000000000000000000081525081526020016040518060400160405280600a81526020017f50616c6520477265656e00000000000000000000000000000000000000000000815250815250905061245b565b6023820361215f5760405180604001604052806040518060400160405280600781526020017f233746464644340000000000000000000000000000000000000000000000000081525081526020016040518060400160405280600a81526020017f417175616d6172696e6500000000000000000000000000000000000000000000815250815250905061245b565b602482036121ed5760405180604001604052806040518060400160405280600781526020017f234646443730300000000000000000000000000000000000000000000000000081525081526020016040518060400160405280600481526020017f476f6c6400000000000000000000000000000000000000000000000000000000815250815250905061245b565b6025820361227b5760405180604001604052806040518060400160405280600781526020017f234646313439330000000000000000000000000000000000000000000000000081525081526020016040518060400160405280600981526020017f446565702050696e6b0000000000000000000000000000000000000000000000815250815250905061245b565b602682036123095760405180604001604052806040518060400160405280600781526020017f234646363942340000000000000000000000000000000000000000000000000081525081526020016040518060400160405280600881526020017f486f742050696e6b000000000000000000000000000000000000000000000000815250815250905061245b565b602782036123975760405180604001604052806040518060400160405280600781526020017f234443313433430000000000000000000000000000000000000000000000000081525081526020016040518060400160405280600781526020017f4372696d736f6e00000000000000000000000000000000000000000000000000815250815250905061245b565b602882036124255760405180604001604052806040518060400160405280600781526020017f234646303030300000000000000000000000000000000000000000000000000081525081526020016040518060400160405280600381526020017f5265640000000000000000000000000000000000000000000000000000000000815250815250905061245b565b60405180604001604052806040518060200160405280600081525081526020016040518060200160405280600081525081525090505b919050565b600080600090507a184f03e93ff9f4daa797ed6e38ed64bf6a1f01000000000000000083106124be577a184f03e93ff9f4daa797ed6e38ed64bf6a1f01000000000000000083816124b4576124b3612721565b5b0492506040810190505b6d04ee2d6d415b85acef810000000083106124fb576d04ee2d6d415b85acef810000000083816124f1576124f0612721565b5b0492506020810190505b662386f26fc10000831061252a57662386f26fc1000083816125205761251f612721565b5b0492506010810190505b6305f5e1008310612553576305f5e100838161254957612548612721565b5b0492506008810190505b612710831061257857612710838161256e5761256d612721565b5b0492506004810190505b6064831061259b576064838161259157612590612721565b5b0492506002810190505b600a83106125aa576001810190505b80915050919050565b604051806060016040528060608152602001606081526020016125d46125da565b81525090565b604051806040016040528060608152602001606081525090565b600080fd5b6000819050919050565b61260c816125f9565b811461261757600080fd5b50565b60008135905061262981612603565b92915050565b60008060408385031215612646576126456125f4565b5b60006126548582860161261a565b92505060206126658582860161261a565b9150509250929050565b600081519050919050565b600082825260208201905092915050565b60005b838110156126a957808201518184015260208101905061268e565b60008484015250505050565b6000601f19601f8301169050919050565b60006126d18261266f565b6126db818561267a565b93506126eb81856020860161268b565b6126f4816126b5565b840191505092915050565b6000602082019050818103600083015261271981846126c6565b905092915050565b7f4e487b7100000000000000000000000000000000000000000000000000000000600052601260045260246000fd5b600061275b826125f9565b9150612766836125f9565b92508261277657612775612721565b5b828206905092915050565b7f4e487b7100000000000000000000000000000000000000000000000000000000600052601160045260246000fd5b60006127bb826125f9565b91506127c6836125f9565b9250826127d6576127d5612721565b5b828204905092915050565b7f4e487b7100000000000000000000000000000000000000000000000000000000600052603260045260246000fd5b600081905092915050565b7f3c7376672077696474683d2233323022206865696768743d223332302220766960008201527f6577426f783d2230203020333230203332302220786d6c6e733d22687474703a60208201527f2f2f7777772e77332e6f72672f323030302f737667223e000000000000000000604082015250565b600061289d605783612810565b91506128a88261281b565b605782019050919050565b7f3c726563742077696474683d223130302522206865696768743d22313030252260008201527f2066696c6c3d2223303431343231222f3e000000000000000000000000000000602082015250565b600061290f603183612810565b915061291a826128b3565b603182019050919050565b7f3c7465787420783d223137302220793d223133302220666f6e742d66616d696c60008201527f793d22436f75726965722c6d6f6e6f73706163652220666f6e742d776569676860208201527f743d223730302220666f6e742d73697a653d2232302220746578742d616e636860408201527f6f723d226d6964646c6522206c65747465722d73706163696e673d2231223e00606082015250565b60006129cd607f83612810565b91506129d882612925565b607f82019050919050565b7f3c616e696d617465206174747269627574654e616d653d226479222076616c7560008201527f65733d22303b35303b3022206475723d2233732220726570656174436f756e7460208201527f3d22696e646566696e69746522202f3e00000000000000000000000000000000604082015250565b6000612a65605083612810565b9150612a70826129e3565b605082019050919050565b6000612a868261266f565b612a908185612810565b9350612aa081856020860161268b565b80840191505092915050565b7f3c2f746578743e00000000000000000000000000000000000000000000000000600082015250565b6000612ae2600783612810565b9150612aed82612aac565b600782019050919050565b6000612b0382612890565b9150612b0e82612902565b9150612b19826129c0565b9150612b2482612a58565b9150612b308288612a7b565b9150612b3c8287612a7b565b9150612b488286612a7b565b9150612b548285612a7b565b9150612b5f82612ad5565b9150612b6b8284612a7b565b91508190509695505050505050565b7f7b00000000000000000000000000000000000000000000000000000000000000600082015250565b6000612bb0600183612810565b9150612bbb82612b7a565b600182019050919050565b7f226e616d65223a22466c61707079204f776c2d546573746e6574202300000000600082015250565b6000612bfc601c83612810565b9150612c0782612bc6565b601c82019050919050565b7f222c000000000000000000000000000000000000000000000000000000000000600082015250565b6000612c48600283612810565b9150612c5382612c12565b600282019050919050565b7f226465736372697074696f6e223a220000000000000000000000000000000000600082015250565b6000612c94600f83612810565b9150612c9f82612c5e565b600f82019050919050565b7f22696d616765223a202200000000000000000000000000000000000000000000600082015250565b6000612ce0600a83612810565b9150612ceb82612caa565b600a82019050919050565b7f646174613a696d6167652f7376672b786d6c3b6261736536342c000000000000600082015250565b6000612d2c601a83612810565b9150612d3782612cf6565b601a82019050919050565b7f2261747472696275746573223a205b7b2274726169745f74797065223a20224860008201527f656164222c202276616c7565223a202200000000000000000000000000000000602082015250565b6000612d9e603083612810565b9150612da982612d42565b603082019050919050565b7f2028000000000000000000000000000000000000000000000000000000000000600082015250565b6000612dea600283612810565b9150612df582612db4565b600282019050919050565b7f2900000000000000000000000000000000000000000000000000000000000000600082015250565b6000612e36600183612810565b9150612e4182612e00565b600182019050919050565b7f227d2c0000000000000000000000000000000000000000000000000000000000600082015250565b6000612e82600383612810565b9150612e8d82612e4c565b600382019050919050565b7f7b2274726169745f74797065223a202246616365222c202276616c7565223a2060008201527f2200000000000000000000000000000000000000000000000000000000000000602082015250565b6000612ef4602183612810565b9150612eff82612e98565b602182019050919050565b7f7b2274726169745f74797065223a2022426f6479222c202276616c7565223a2060008201527f2200000000000000000000000000000000000000000000000000000000000000602082015250565b6000612f66602183612810565b9150612f7182612f0a565b602182019050919050565b7f7b2274726169745f74797065223a2022466f6f74222c202276616c7565223a2060008201527f2200000000000000000000000000000000000000000000000000000000000000602082015250565b6000612fd8602183612810565b9150612fe382612f7c565b602182019050919050565b7f227d000000000000000000000000000000000000000000000000000000000000600082015250565b6000613024600283612810565b915061302f82612fee565b600282019050919050565b7f5d00000000000000000000000000000000000000000000000000000000000000600082015250565b6000613070600183612810565b915061307b8261303a565b600182019050919050565b7f7d00000000000000000000000000000000000000000000000000000000000000600082015250565b60006130bc600183612810565b91506130c782613086565b600182019050919050565b60006130dd82612ba3565b91506130e882612bef565b91506130f4828e612a7b565b91506130ff82612c3b565b915061310a82612c87565b9150613116828d612a7b565b915061312182612c3b565b915061312c82612cd3565b915061313782612d1f565b9150613143828c612a7b565b915061314e82612c3b565b915061315982612d91565b9150613165828b612a7b565b915061317082612ddd565b915061317c828a612a7b565b915061318782612e29565b915061319282612e75565b915061319d82612ee7565b91506131a98289612a7b565b91506131b482612ddd565b91506131c08288612a7b565b91506131cb82612e29565b91506131d682612e75565b91506131e182612f59565b91506131ed8287612a7b565b91506131f882612ddd565b91506132048286612a7b565b915061320f82612e29565b915061321a82612e75565b915061322582612fcb565b91506132318285612a7b565b915061323c82612ddd565b91506132488284612a7b565b915061325382612e29565b915061325e82613017565b915061326982613063565b9150613274826130af565b91508190509c9b505050505050505050505050565b7f646174613a6170706c69636174696f6e2f6a736f6e3b6261736536342c000000600082015250565b60006132bf601d83612810565b91506132ca82613289565b601d82019050919050565b60006132e0826132b2565b91506132ec8284612a7b565b915081905092915050565b7f3c747370616e2066696c6c3d2200000000000000000000000000000000000000600082015250565b600061332d600d83612810565b9150613338826132f7565b600d82019050919050565b7f223e000000000000000000000000000000000000000000000000000000000000600082015250565b6000613379600283612810565b915061338482613343565b600282019050919050565b7f3c2f747370616e3e000000000000000000000000000000000000000000000000600082015250565b60006133c5600883612810565b91506133d08261338f565b600882019050919050565b60006133e682613320565b91506133f28285612a7b565b91506133fd8261336c565b91506134098284612a7b565b9150613414826133b8565b91508190509392505050565b7f3c747370616e2064793d2232302220783d22313730222066696c6c3d22000000600082015250565b6000613456601d83612810565b915061346182613420565b601d82019050919050565b600061347782613449565b91506134838285612a7b565b915061348e8261336c565b915061349a8284612a7b565b91506134a5826133b8565b91508190509392505050565b7f3c747370616e2064793d2232352220783d22313730222066696c6c3d22000000600082015250565b60006134e7601d83612810565b91506134f2826134b1565b601d82019050919050565b6000613508826134da565b91506135148285612a7b565b915061351f8261336c565b915061352b8284612a7b565b9150613536826133b8565b91508190509392505050565b600061354d826125f9565b9150613558836125f9565b92508282019050808211156135705761356f612781565b5b92915050565b6000613581826125f9565b915061358c836125f9565b925082820261359a816125f9565b915082820484148315176135b1576135b0612781565b5b5092915050565b7f4e487b7100000000000000000000000000000000000000000000000000000000600052604160045260246000fdfe4142434445464748494a4b4c4d4e4f505152535455565758595a6162636465666768696a6b6c6d6e6f707172737475767778797a303132333435363738392b2fa26469706673582212207b5a643c764c22cb9a67a099e5c29d80357bd971dc598204f28c195d6d23c0d164736f6c63430008110033",
  "linkReferences": {},
  "deployedLinkReferences": {}
}