{
  "_format": "hh-sol-artifact-1",
  "contractName": "FlappyOwlNftTestnet",
  "sourceName": "contracts/ERC721/FlappyOwlNftTestnet.sol",
  "abi": [
    {
      "inputs": [
        {
          "internalType": "contract INftFactory",
          "name": "newFactory",
          "type": "address"
        }
      ],
      "stateMutability": "nonpayable",
      "type": "constructor"
    },
    {
      "inputs": [],
      "name": "ApprovalCallerNotOwnerNorApproved",
      "type": "error"
    },
    {
      "inputs": [],
      "name": "ApprovalQueryForNonexistentToken",
      "type": "error"
    },
    {
      "inputs": [],
      "name": "BalanceQueryForZeroAddress",
      "type": "error"
    },
    {
      "inputs": [],
      "name": "MintERC2309QuantityExceedsLimit",
      "type": "error"
    },
    {
      "inputs": [],
      "name": "MintToZeroAddress",
      "type": "error"
    },
    {
      "inputs": [],
      "name": "MintZeroQuantity",
      "type": "error"
    },
    {
      "inputs": [
        {
          "internalType": "address",
          "name": "operator",
          "type": "address"
        }
      ],
      "name": "OperatorNotAllowed",
      "type": "error"
    },
    {
      "inputs": [],
      "name": "OwnerQueryForNonexistentToken",
      "type": "error"
    },
    {
      "inputs": [],
      "name": "OwnershipNotInitializedForExtraData",
      "type": "error"
    },
    {
      "inputs": [],
      "name": "TransferCallerNotOwnerNorApproved",
      "type": "error"
    },
    {
      "inputs": [],
      "name": "TransferFromIncorrectOwner",
      "type": "error"
    },
    {
      "inputs": [],
      "name": "TransferToNonERC721ReceiverImplementer",
      "type": "error"
    },
    {
      "inputs": [],
      "name": "TransferToZeroAddress",
      "type": "error"
    },
    {
      "inputs": [],
      "name": "URIQueryForNonexistentToken",
      "type": "error"
    },
    {
      "anonymous": false,
      "inputs": [
        {
          "indexed": true,
          "internalType": "address",
          "name": "owner",
          "type": "address"
        },
        {
          "indexed": true,
          "internalType": "address",
          "name": "approved",
          "type": "address"
        },
        {
          "indexed": true,
          "internalType": "uint256",
          "name": "tokenId",
          "type": "uint256"
        }
      ],
      "name": "Approval",
      "type": "event"
    },
    {
      "anonymous": false,
      "inputs": [
        {
          "indexed": true,
          "internalType": "address",
          "name": "owner",
          "type": "address"
        },
        {
          "indexed": true,
          "internalType": "address",
          "name": "operator",
          "type": "address"
        },
        {
          "indexed": false,
          "internalType": "bool",
          "name": "approved",
          "type": "bool"
        }
      ],
      "name": "ApprovalForAll",
      "type": "event"
    },
    {
      "anonymous": false,
      "inputs": [
        {
          "indexed": true,
          "internalType": "uint256",
          "name": "fromTokenId",
          "type": "uint256"
        },
        {
          "indexed": false,
          "internalType": "uint256",
          "name": "toTokenId",
          "type": "uint256"
        },
        {
          "indexed": true,
          "internalType": "address",
          "name": "from",
          "type": "address"
        },
        {
          "indexed": true,
          "internalType": "address",
          "name": "to",
          "type": "address"
        }
      ],
      "name": "ConsecutiveTransfer",
      "type": "event"
    },
    {
      "anonymous": false,
      "inputs": [
        {
          "indexed": true,
          "internalType": "address",
          "name": "previousOwner",
          "type": "address"
        },
        {
          "indexed": true,
          "internalType": "address",
          "name": "newOwner",
          "type": "address"
        }
      ],
      "name": "OwnershipTransferred",
      "type": "event"
    },
    {
      "anonymous": false,
      "inputs": [
        {
          "indexed": true,
          "internalType": "address",
          "name": "from",
          "type": "address"
        },
        {
          "indexed": true,
          "internalType": "address",
          "name": "to",
          "type": "address"
        },
        {
          "indexed": true,
          "internalType": "uint256",
          "name": "tokenId",
          "type": "uint256"
        }
      ],
      "name": "Transfer",
      "type": "event"
    },
    {
      "inputs": [],
      "name": "OPERATOR_FILTER_REGISTRY",
      "outputs": [
        {
          "internalType": "contract IOperatorFilterRegistry",
          "name": "",
          "type": "address"
        }
      ],
      "stateMutability": "view",
      "type": "function"
    },
    {
      "inputs": [
        {
          "internalType": "address[]",
          "name": "_recipients",
          "type": "address[]"
        },
        {
          "internalType": "uint256",
          "name": "_mintAmount",
          "type": "uint256"
        }
      ],
      "name": "airdrop",
      "outputs": [],
      "stateMutability": "nonpayable",
      "type": "function"
    },
    {
      "inputs": [
        {
          "internalType": "address",
          "name": "to",
          "type": "address"
        },
        {
          "internalType": "uint256",
          "name": "tokenId",
          "type": "uint256"
        }
      ],
      "name": "approve",
      "outputs": [],
      "stateMutability": "payable",
      "type": "function"
    },
    {
      "inputs": [
        {
          "internalType": "address",
          "name": "owner",
          "type": "address"
        }
      ],
      "name": "balanceOf",
      "outputs": [
        {
          "internalType": "uint256",
          "name": "",
          "type": "uint256"
        }
      ],
      "stateMutability": "view",
      "type": "function"
    },
    {
      "inputs": [],
      "name": "beneficiaryAddress",
      "outputs": [
        {
          "internalType": "address",
          "name": "",
          "type": "address"
        }
      ],
      "stateMutability": "view",
      "type": "function"
    },
    {
      "inputs": [],
      "name": "factory",
      "outputs": [
        {
          "internalType": "contract INftFactory",
          "name": "",
          "type": "address"
        }
      ],
      "stateMutability": "view",
      "type": "function"
    },
    {
      "inputs": [
        {
          "internalType": "uint256",
          "name": "tokenId",
          "type": "uint256"
        }
      ],
      "name": "getApproved",
      "outputs": [
        {
          "internalType": "address",
          "name": "",
          "type": "address"
        }
      ],
      "stateMutability": "view",
      "type": "function"
    },
    {
      "inputs": [
        {
          "internalType": "uint256",
          "name": "tokenId",
          "type": "uint256"
        }
      ],
      "name": "getSeed",
      "outputs": [
        {
          "internalType": "uint256",
          "name": "",
          "type": "uint256"
        }
      ],
      "stateMutability": "view",
      "type": "function"
    },
    {
      "inputs": [],
      "name": "getmintCount",
      "outputs": [
        {
          "internalType": "uint256",
          "name": "",
          "type": "uint256"
        }
      ],
      "stateMutability": "view",
      "type": "function"
    },
    {
      "inputs": [
        {
          "internalType": "address",
          "name": "owner",
          "type": "address"
        },
        {
          "internalType": "address",
          "name": "operator",
          "type": "address"
        }
      ],
      "name": "isApprovedForAll",
      "outputs": [
        {
          "internalType": "bool",
          "name": "",
          "type": "bool"
        }
      ],
      "stateMutability": "view",
      "type": "function"
    },
    {
      "inputs": [],
      "name": "isPublicMint",
      "outputs": [
        {
          "internalType": "bool",
          "name": "",
          "type": "bool"
        }
      ],
      "stateMutability": "view",
      "type": "function"
    },
    {
      "inputs": [],
      "name": "maxMintPerWallet",
      "outputs": [
        {
          "internalType": "uint256",
          "name": "",
          "type": "uint256"
        }
      ],
      "stateMutability": "view",
      "type": "function"
    },
    {
      "inputs": [],
      "name": "maxSupply",
      "outputs": [
        {
          "internalType": "uint256",
          "name": "",
          "type": "uint256"
        }
      ],
      "stateMutability": "view",
      "type": "function"
    },
    {
      "inputs": [
        {
          "internalType": "uint256",
          "name": "_mintAmount",
          "type": "uint256"
        }
      ],
      "name": "mint",
      "outputs": [],
      "stateMutability": "payable",
      "type": "function"
    },
    {
      "inputs": [],
      "name": "mintCost",
      "outputs": [
        {
          "internalType": "uint256",
          "name": "",
          "type": "uint256"
        }
      ],
      "stateMutability": "view",
      "type": "function"
    },
    {
      "inputs": [
        {
          "internalType": "address",
          "name": "",
          "type": "address"
        }
      ],
      "name": "mintCount",
      "outputs": [
        {
          "internalType": "uint256",
          "name": "",
          "type": "uint256"
        }
      ],
      "stateMutability": "view",
      "type": "function"
    },
    {
      "inputs": [],
      "name": "name",
      "outputs": [
        {
          "internalType": "string",
          "name": "",
          "type": "string"
        }
      ],
      "stateMutability": "view",
      "type": "function"
    },
    {
      "inputs": [],
      "name": "owner",
      "outputs": [
        {
          "internalType": "address",
          "name": "",
          "type": "address"
        }
      ],
      "stateMutability": "view",
      "type": "function"
    },
    {
      "inputs": [
        {
          "internalType": "uint256",
          "name": "tokenId",
          "type": "uint256"
        }
      ],
      "name": "ownerOf",
      "outputs": [
        {
          "internalType": "address",
          "name": "",
          "type": "address"
        }
      ],
      "stateMutability": "view",
      "type": "function"
    },
    {
      "inputs": [],
      "name": "renounceOwnership",
      "outputs": [],
      "stateMutability": "nonpayable",
      "type": "function"
    },
    {
      "inputs": [],
      "name": "royaltyAddress",
      "outputs": [
        {
          "internalType": "address",
          "name": "",
          "type": "address"
        }
      ],
      "stateMutability": "view",
      "type": "function"
    },
    {
      "inputs": [
        {
          "internalType": "uint256",
          "name": "_tokenId",
          "type": "uint256"
        },
        {
          "internalType": "uint256",
          "name": "_salePrice",
          "type": "uint256"
        }
      ],
      "name": "royaltyInfo",
      "outputs": [
        {
          "internalType": "address",
          "name": "receiver",
          "type": "address"
        },
        {
          "internalType": "uint256",
          "name": "royaltyAmount",
          "type": "uint256"
        }
      ],
      "stateMutability": "view",
      "type": "function"
    },
    {
      "inputs": [
        {
          "internalType": "address",
          "name": "from",
          "type": "address"
        },
        {
          "internalType": "address",
          "name": "to",
          "type": "address"
        },
        {
          "internalType": "uint256",
          "name": "tokenId",
          "type": "uint256"
        }
      ],
      "name": "safeTransferFrom",
      "outputs": [],
      "stateMutability": "payable",
      "type": "function"
    },
    {
      "inputs": [
        {
          "internalType": "address",
          "name": "from",
          "type": "address"
        },
        {
          "internalType": "address",
          "name": "to",
          "type": "address"
        },
        {
          "internalType": "uint256",
          "name": "tokenId",
          "type": "uint256"
        },
        {
          "internalType": "bytes",
          "name": "data",
          "type": "bytes"
        }
      ],
      "name": "safeTransferFrom",
      "outputs": [],
      "stateMutability": "payable",
      "type": "function"
    },
    {
      "inputs": [
        {
          "internalType": "address",
          "name": "operator",
          "type": "address"
        },
        {
          "internalType": "bool",
          "name": "approved",
          "type": "bool"
        }
      ],
      "name": "setApprovalForAll",
      "outputs": [],
      "stateMutability": "nonpayable",
      "type": "function"
    },
    {
      "inputs": [
        {
          "internalType": "contract INftFactory",
          "name": "newFactory",
          "type": "address"
        }
      ],
      "name": "setFactory",
      "outputs": [],
      "stateMutability": "nonpayable",
      "type": "function"
    },
    {
      "inputs": [
        {
          "internalType": "bool",
          "name": "value",
          "type": "bool"
        }
      ],
      "name": "setSoldOut",
      "outputs": [],
      "stateMutability": "nonpayable",
      "type": "function"
    },
    {
      "inputs": [
        {
          "internalType": "bytes4",
          "name": "interfaceId",
          "type": "bytes4"
        }
      ],
      "name": "supportsInterface",
      "outputs": [
        {
          "internalType": "bool",
          "name": "",
          "type": "bool"
        }
      ],
      "stateMutability": "view",
      "type": "function"
    },
    {
      "inputs": [],
      "name": "symbol",
      "outputs": [
        {
          "internalType": "string",
          "name": "",
          "type": "string"
        }
      ],
      "stateMutability": "view",
      "type": "function"
    },
    {
      "inputs": [
        {
          "internalType": "uint256",
          "name": "tokenId",
          "type": "uint256"
        }
      ],
      "name": "tokenURI",
      "outputs": [
        {
          "internalType": "string",
          "name": "",
          "type": "string"
        }
      ],
      "stateMutability": "view",
      "type": "function"
    },
    {
      "inputs": [],
      "name": "totalSupply",
      "outputs": [
        {
          "internalType": "uint256",
          "name": "",
          "type": "uint256"
        }
      ],
      "stateMutability": "view",
      "type": "function"
    },
    {
      "inputs": [
        {
          "internalType": "address",
          "name": "from",
          "type": "address"
        },
        {
          "internalType": "address",
          "name": "to",
          "type": "address"
        },
        {
          "internalType": "uint256",
          "name": "tokenId",
          "type": "uint256"
        }
      ],
      "name": "transferFrom",
      "outputs": [],
      "stateMutability": "payable",
      "type": "function"
    },
    {
      "inputs": [
        {
          "internalType": "address",
          "name": "newOwner",
          "type": "address"
        }
      ],
      "name": "transferOwnership",
      "outputs": [],
      "stateMutability": "nonpayable",
      "type": "function"
    },
    {
      "inputs": [
        {
          "internalType": "address",
          "name": "_beneficiaryReceiver",
          "type": "address"
        },
        {
          "internalType": "address",
          "name": "_royaltiesReceiver",
          "type": "address"
        }
      ],
      "name": "updateFoundationAddress",
      "outputs": [],
      "stateMutability": "nonpayable",
      "type": "function"
    },
    {
      "inputs": [
        {
          "internalType": "uint256",
          "name": "_royalties",
          "type": "uint256"
        }
      ],
      "name": "updateRoyalties",
      "outputs": [],
      "stateMutability": "nonpayable",
      "type": "function"
    }
  ],
  "bytecode": "0x60806040526001600c60006101000a81548160ff021916908315150217905550615208600d55670de0b6b3a7640000600e556015600f5560056010553480156200004857600080fd5b50604051620042a4380380620042a483398181016040528101906200006e9190620005af565b733cc6cdda760b79bafa08df41ecfa224f810dceb660016040518060400160405280601381526020017f466c617070794f776c4e6674546573746e6574000000000000000000000000008152506040518060400160405280600381526020017f4f574c000000000000000000000000000000000000000000000000000000000081525081600290816200010291906200085b565b5080600390816200011491906200085b565b50620001256200043460201b60201c565b600081905550505060006daaeb6d7670e522a718067333cd4e73ffffffffffffffffffffffffffffffffffffffff163b111562000322578015620001e8576daaeb6d7670e522a718067333cd4e73ffffffffffffffffffffffffffffffffffffffff16637d3e3dbe30846040518363ffffffff1660e01b8152600401620001ae92919062000953565b600060405180830381600087803b158015620001c957600080fd5b505af1158015620001de573d6000803e3d6000fd5b5050505062000321565b600073ffffffffffffffffffffffffffffffffffffffff168273ffffffffffffffffffffffffffffffffffffffff1614620002a2576daaeb6d7670e522a718067333cd4e73ffffffffffffffffffffffffffffffffffffffff1663a0af290330846040518363ffffffff1660e01b81526004016200026892919062000953565b600060405180830381600087803b1580156200028357600080fd5b505af115801562000298573d6000803e3d6000fd5b5050505062000320565b6daaeb6d7670e522a718067333cd4e73ffffffffffffffffffffffffffffffffffffffff16634420e486306040518263ffffffff1660e01b8152600401620002eb919062000980565b600060405180830381600087803b1580156200030657600080fd5b505af11580156200031b573d6000803e3d6000fd5b505050505b5b5b505062000344620003386200043960201b60201c565b6200044160201b60201c565b60016009819055506200035c6200050760201b60201c565b601160006101000a81548173ffffffffffffffffffffffffffffffffffffffff021916908373ffffffffffffffffffffffffffffffffffffffff160217905550620003ac6200050760201b60201c565b601260006101000a81548173ffffffffffffffffffffffffffffffffffffffff021916908373ffffffffffffffffffffffffffffffffffffffff16021790555080600c60016101000a81548173ffffffffffffffffffffffffffffffffffffffff021916908373ffffffffffffffffffffffffffffffffffffffff160217905550506200099d565b600090565b600033905090565b6000600860009054906101000a900473ffffffffffffffffffffffffffffffffffffffff16905081600860006101000a81548173ffffffffffffffffffffffffffffffffffffffff021916908373ffffffffffffffffffffffffffffffffffffffff1602179055508173ffffffffffffffffffffffffffffffffffffffff168173ffffffffffffffffffffffffffffffffffffffff167f8be0079c531659141344cd1fd0a4f28419497f9722a3daafe3b4186f6b6457e060405160405180910390a35050565b6000600860009054906101000a900473ffffffffffffffffffffffffffffffffffffffff16905090565b600080fd5b600073ffffffffffffffffffffffffffffffffffffffff82169050919050565b6000620005638262000536565b9050919050565b6000620005778262000556565b9050919050565b62000589816200056a565b81146200059557600080fd5b50565b600081519050620005a9816200057e565b92915050565b600060208284031215620005c857620005c762000531565b5b6000620005d88482850162000598565b91505092915050565b600081519050919050565b7f4e487b7100000000000000000000000000000000000000000000000000000000600052604160045260246000fd5b7f4e487b7100000000000000000000000000000000000000000000000000000000600052602260045260246000fd5b600060028204905060018216806200066357607f821691505b6020821081036200067957620006786200061b565b5b50919050565b60008190508160005260206000209050919050565b60006020601f8301049050919050565b600082821b905092915050565b600060088302620006e37fffffffffffffffffffffffffffffffffffffffffffffffffffffffffffffffff82620006a4565b620006ef8683620006a4565b95508019841693508086168417925050509392505050565b6000819050919050565b6000819050919050565b60006200073c62000736620007308462000707565b62000711565b62000707565b9050919050565b6000819050919050565b62000758836200071b565b62000770620007678262000743565b848454620006b1565b825550505050565b600090565b6200078762000778565b620007948184846200074d565b505050565b5b81811015620007bc57620007b06000826200077d565b6001810190506200079a565b5050565b601f8211156200080b57620007d5816200067f565b620007e08462000694565b81016020851015620007f0578190505b62000808620007ff8562000694565b83018262000799565b50505b505050565b600082821c905092915050565b6000620008306000198460080262000810565b1980831691505092915050565b60006200084b83836200081d565b9150826002028217905092915050565b6200086682620005e1565b67ffffffffffffffff811115620008825762000881620005ec565b5b6200088e82546200064a565b6200089b828285620007c0565b600060209050601f831160018114620008d35760008415620008be578287015190505b620008ca85826200083d565b8655506200093a565b601f198416620008e3866200067f565b60005b828110156200090d57848901518255600182019150602085019450602081019050620008e6565b868310156200092d578489015162000929601f8916826200081d565b8355505b6001600288020188555050505b505050505050565b6200094d8162000556565b82525050565b60006040820190506200096a600083018562000942565b62000979602083018462000942565b9392505050565b600060208201905062000997600083018462000942565b92915050565b6138f780620009ad6000396000f3fe6080604052600436106102045760003560e01c80639658730b11610118578063c45a0155116100a0578063d9ef157a1161006f578063d9ef157a14610717578063e0d4ea3714610740578063e985e9c51461077d578063ed9ec888146107ba578063f2fde38b146107f757610204565b8063c45a015514610659578063c87b56dd14610684578063d5abeb01146106c1578063d9c4870e146106ec57610204565b8063af1fb607116100e7578063af1fb60714610595578063b228d925146105be578063b88d4fde146105e9578063bdb4b84814610605578063c204642c1461063057610204565b80639658730b146104fc578063a0712d6814610525578063a22cb46514610541578063ad2f852a1461056a57610204565b806341f434341161019b5780636352211e1161016a5780636352211e1461041557806370a0823114610452578063715018a61461048f5780638da5cb5b146104a657806395d89b41146104d157610204565b806341f434341461037a57806342842e0e146103a55780635619f443146103c15780635bb47808146103ec57610204565b806318160ddd116101d757806318160ddd146102ca57806323b872dd146102f55780632a55205a146103115780633057931f1461034f57610204565b806301ffc9a71461020957806306fdde0314610246578063081812fc14610271578063095ea7b3146102ae575b600080fd5b34801561021557600080fd5b50610230600480360381019061022b9190612720565b610820565b60405161023d9190612768565b60405180910390f35b34801561025257600080fd5b5061025b6108b2565b6040516102689190612813565b60405180910390f35b34801561027d57600080fd5b506102986004803603810190610293919061286b565b610944565b6040516102a591906128d9565b60405180910390f35b6102c860048036038101906102c39190612920565b6109c3565b005b3480156102d657600080fd5b506102df610b07565b6040516102ec919061296f565b60405180910390f35b61030f600480360381019061030a919061298a565b610b1e565b005b34801561031d57600080fd5b50610338600480360381019061033391906129dd565b610b6d565b604051610346929190612a1d565b60405180910390f35b34801561035b57600080fd5b50610364610bb8565b6040516103719190612768565b60405180910390f35b34801561038657600080fd5b5061038f610bcb565b60405161039c9190612aa5565b60405180910390f35b6103bf60048036038101906103ba919061298a565b610bdd565b005b3480156103cd57600080fd5b506103d6610c2c565b6040516103e3919061296f565b60405180910390f35b3480156103f857600080fd5b50610413600480360381019061040e9190612afe565b610c73565b005b34801561042157600080fd5b5061043c6004803603810190610437919061286b565b610cbf565b60405161044991906128d9565b60405180910390f35b34801561045e57600080fd5b5061047960048036038101906104749190612b2b565b610cd1565b604051610486919061296f565b60405180910390f35b34801561049b57600080fd5b506104a4610d89565b005b3480156104b257600080fd5b506104bb610d9d565b6040516104c891906128d9565b60405180910390f35b3480156104dd57600080fd5b506104e6610dc7565b6040516104f39190612813565b60405180910390f35b34801561050857600080fd5b50610523600480360381019061051e919061286b565b610e59565b005b61053f600480360381019061053a919061286b565b610e6b565b005b34801561054d57600080fd5b5061056860048036038101906105639190612b84565b6111be565b005b34801561057657600080fd5b5061057f6112c9565b60405161058c91906128d9565b60405180910390f35b3480156105a157600080fd5b506105bc60048036038101906105b79190612bc4565b6112ef565b005b3480156105ca57600080fd5b506105d361137d565b6040516105e0919061296f565b60405180910390f35b61060360048036038101906105fe9190612d39565b611383565b005b34801561061157600080fd5b5061061a6113d4565b604051610627919061296f565b60405180910390f35b34801561063c57600080fd5b5061065760048036038101906106529190612e84565b6113da565b005b34801561066557600080fd5b5061066e61150f565b60405161067b9190612f01565b60405180910390f35b34801561069057600080fd5b506106ab60048036038101906106a6919061286b565b611535565b6040516106b89190612813565b60405180910390f35b3480156106cd57600080fd5b506106d6611642565b6040516106e3919061296f565b60405180910390f35b3480156106f857600080fd5b50610701611648565b60405161070e91906128d9565b60405180910390f35b34801561072357600080fd5b5061073e60048036038101906107399190612f1c565b61166e565b005b34801561074c57600080fd5b506107676004803603810190610762919061286b565b611693565b604051610774919061296f565b60405180910390f35b34801561078957600080fd5b506107a4600480360381019061079f9190612bc4565b6116f8565b6040516107b19190612768565b60405180910390f35b3480156107c657600080fd5b506107e160048036038101906107dc9190612b2b565b61178c565b6040516107ee919061296f565b60405180910390f35b34801561080357600080fd5b5061081e60048036038101906108199190612b2b565b6117a4565b005b60006301ffc9a760e01b827bffffffffffffffffffffffffffffffffffffffffffffffffffffffff1916148061087b57506380ac58cd60e01b827bffffffffffffffffffffffffffffffffffffffffffffffffffffffff1916145b806108ab5750635b5e139f60e01b827bffffffffffffffffffffffffffffffffffffffffffffffffffffffff1916145b9050919050565b6060600280546108c190612f78565b80601f01602080910402602001604051908101604052809291908181526020018280546108ed90612f78565b801561093a5780601f1061090f5761010080835404028352916020019161093a565b820191906000526020600020905b81548152906001019060200180831161091d57829003601f168201915b5050505050905090565b600061094f82611827565b610985576040517fcf4700e400000000000000000000000000000000000000000000000000000000815260040160405180910390fd5b6006600083815260200190815260200160002060000160009054906101000a900473ffffffffffffffffffffffffffffffffffffffff169050919050565b60006109ce82610cbf565b90508073ffffffffffffffffffffffffffffffffffffffff166109ef611886565b73ffffffffffffffffffffffffffffffffffffffff1614610a5257610a1b81610a16611886565b6116f8565b610a51576040517fcfb3b94200000000000000000000000000000000000000000000000000000000815260040160405180910390fd5b5b826006600084815260200190815260200160002060000160006101000a81548173ffffffffffffffffffffffffffffffffffffffff021916908373ffffffffffffffffffffffffffffffffffffffff160217905550818373ffffffffffffffffffffffffffffffffffffffff168273ffffffffffffffffffffffffffffffffffffffff167f8c5be1e5ebec7d5bd14f71427d1e84f3dd0314c0f7b2291e5b200ac8c7c3b92560405160405180910390a4505050565b6000610b1161188e565b6001546000540303905090565b823373ffffffffffffffffffffffffffffffffffffffff168173ffffffffffffffffffffffffffffffffffffffff1614610b5c57610b5b33611893565b5b610b67848484611990565b50505050565b600080601260009054906101000a900473ffffffffffffffffffffffffffffffffffffffff169150606483601054610ba59190612fd8565b610baf9190613049565b90509250929050565b600c60009054906101000a900460ff1681565b6daaeb6d7670e522a718067333cd4e81565b823373ffffffffffffffffffffffffffffffffffffffff168173ffffffffffffffffffffffffffffffffffffffff1614610c1b57610c1a33611893565b5b610c26848484611cb2565b50505050565b6000600b60003373ffffffffffffffffffffffffffffffffffffffff1673ffffffffffffffffffffffffffffffffffffffff16815260200190815260200160002054905090565b610c7b611cd2565b80600c60016101000a81548173ffffffffffffffffffffffffffffffffffffffff021916908373ffffffffffffffffffffffffffffffffffffffff16021790555050565b6000610cca82611d50565b9050919050565b60008073ffffffffffffffffffffffffffffffffffffffff168273ffffffffffffffffffffffffffffffffffffffff1603610d38576040517f8f4eb60400000000000000000000000000000000000000000000000000000000815260040160405180910390fd5b67ffffffffffffffff600560008473ffffffffffffffffffffffffffffffffffffffff1673ffffffffffffffffffffffffffffffffffffffff16815260200190815260200160002054169050919050565b610d91611cd2565b610d9b6000611e1c565b565b6000600860009054906101000a900473ffffffffffffffffffffffffffffffffffffffff16905090565b606060038054610dd690612f78565b80601f0160208091040260200160405190810160405280929190818152602001828054610e0290612f78565b8015610e4f5780601f10610e2457610100808354040283529160200191610e4f565b820191906000526020600020905b815481529060010190602001808311610e3257829003601f168201915b5050505050905090565b610e61611cd2565b8060108190555050565b610e73611ee2565b803373ffffffffffffffffffffffffffffffffffffffff163273ffffffffffffffffffffffffffffffffffffffff1614610ee2576040517f08c379a0000000000000000000000000000000000000000000000000000000008152600401610ed9906130c6565b60405180910390fd5b60008111610f25576040517f08c379a0000000000000000000000000000000000000000000000000000000008152600401610f1c90613132565b60405180910390fd5b600d5481610f31610b07565b610f3b9190613152565b1115610f7c576040517f08c379a0000000000000000000000000000000000000000000000000000000008152600401610f73906131d2565b60405180910390fd5b600c60009054906101000a900460ff16610fcb576040517f08c379a0000000000000000000000000000000000000000000000000000000008152600401610fc29061323e565b60405180910390fd5b600f5482600b60003373ffffffffffffffffffffffffffffffffffffffff1673ffffffffffffffffffffffffffffffffffffffff168152602001908152602001600020546110199190613152565b111561105a576040517f08c379a0000000000000000000000000000000000000000000000000000000008152600401611051906132aa565b60405180910390fd5b81600e546110689190612fd8565b3410156110aa576040517f08c379a00000000000000000000000000000000000000000000000000000000081526004016110a190613316565b60405180910390fd5b81600b60003373ffffffffffffffffffffffffffffffffffffffff1673ffffffffffffffffffffffffffffffffffffffff16815260200190815260200160002060008282546110f99190613152565b9250508190555061110982611f31565b6111133383611f8c565b600d5461111e610b07565b1061113f576000600c60006101000a81548160ff0219169083151502179055505b60004711156111b257601160009054906101000a900473ffffffffffffffffffffffffffffffffffffffff1673ffffffffffffffffffffffffffffffffffffffff166108fc479081150290604051600060405180830381858888f193505050501580156111b0573d6000803e3d6000fd5b505b506111bb611faa565b50565b80600760006111cb611886565b73ffffffffffffffffffffffffffffffffffffffff1673ffffffffffffffffffffffffffffffffffffffff16815260200190815260200160002060008473ffffffffffffffffffffffffffffffffffffffff1673ffffffffffffffffffffffffffffffffffffffff16815260200190815260200160002060006101000a81548160ff0219169083151502179055508173ffffffffffffffffffffffffffffffffffffffff16611278611886565b73ffffffffffffffffffffffffffffffffffffffff167f17307eab39ab6107e8899845ad3d59bd9653f200f220920489ca2b5937696c31836040516112bd9190612768565b60405180910390a35050565b601260009054906101000a900473ffffffffffffffffffffffffffffffffffffffff1681565b6112f7611cd2565b81601160006101000a81548173ffffffffffffffffffffffffffffffffffffffff021916908373ffffffffffffffffffffffffffffffffffffffff16021790555080601260006101000a81548173ffffffffffffffffffffffffffffffffffffffff021916908373ffffffffffffffffffffffffffffffffffffffff1602179055505050565b600f5481565b833373ffffffffffffffffffffffffffffffffffffffff168173ffffffffffffffffffffffffffffffffffffffff16146113c1576113c033611893565b5b6113cd85858585611fb4565b5050505050565b600e5481565b6113e2611cd2565b6113ea611ee2565b6000811161142d576040517f08c379a000000000000000000000000000000000000000000000000000000000815260040161142490613132565b60405180910390fd5b600d5481611439610b07565b6114439190613152565b1115611484576040517f08c379a000000000000000000000000000000000000000000000000000000000815260040161147b906131d2565b60405180910390fd5b60008251905060005b818110156114d55761149e83611f31565b6114c28482815181106114b4576114b3613336565b5b602002602001015184611f8c565b80806114cd90613365565b91505061148d565b50600d546114e1610b07565b10611502576000600c60006101000a81548160ff0219169083151502179055505b5061150b611faa565b5050565b600c60019054906101000a900473ffffffffffffffffffffffffffffffffffffffff1681565b606061154082611827565b61157f576040517f08c379a0000000000000000000000000000000000000000000000000000000008152600401611576906133f9565b60405180910390fd5b6000600a6000848152602001908152602001600020549050600c60019054906101000a900473ffffffffffffffffffffffffffffffffffffffff1673ffffffffffffffffffffffffffffffffffffffff166392cb829d84836040518363ffffffff1660e01b81526004016115f4929190613419565b600060405180830381865afa158015611611573d6000803e3d6000fd5b505050506040513d6000823e3d601f19601f8201168201806040525081019061163a91906134e3565b915050919050565b600d5481565b601160009054906101000a900473ffffffffffffffffffffffffffffffffffffffff1681565b611676611cd2565b80600c60006101000a81548160ff02191690831515021790555050565b600061169e82611827565b6116dd576040517f08c379a00000000000000000000000000000000000000000000000000000000081526004016116d4906133f9565b60405180910390fd5b600a6000838152602001908152602001600020549050919050565b6000600760008473ffffffffffffffffffffffffffffffffffffffff1673ffffffffffffffffffffffffffffffffffffffff16815260200190815260200160002060008373ffffffffffffffffffffffffffffffffffffffff1673ffffffffffffffffffffffffffffffffffffffff16815260200190815260200160002060009054906101000a900460ff16905092915050565b600b6020528060005260406000206000915090505481565b6117ac611cd2565b600073ffffffffffffffffffffffffffffffffffffffff168173ffffffffffffffffffffffffffffffffffffffff160361181b576040517f08c379a00000000000000000000000000000000000000000000000000000000081526004016118129061359e565b60405180910390fd5b61182481611e1c565b50565b60008161183261188e565b11158015611841575060005482105b801561187f575060007c0100000000000000000000000000000000000000000000000000000000600460008581526020019081526020016000205416145b9050919050565b600033905090565b600090565b60006daaeb6d7670e522a718067333cd4e73ffffffffffffffffffffffffffffffffffffffff163b111561198d576daaeb6d7670e522a718067333cd4e73ffffffffffffffffffffffffffffffffffffffff1663c617113430836040518363ffffffff1660e01b815260040161190a9291906135be565b602060405180830381865afa158015611927573d6000803e3d6000fd5b505050506040513d601f19601f8201168201806040525081019061194b91906135fc565b61198c57806040517fede71dcc00000000000000000000000000000000000000000000000000000000815260040161198391906128d9565b60405180910390fd5b5b50565b600061199b82611d50565b90508373ffffffffffffffffffffffffffffffffffffffff168173ffffffffffffffffffffffffffffffffffffffff1614611a02576040517fa114810000000000000000000000000000000000000000000000000000000000815260040160405180910390fd5b600080611a0e84612027565b91509150611a248187611a1f611886565b61204e565b611a7057611a3986611a34611886565b6116f8565b611a6f576040517f59c896be00000000000000000000000000000000000000000000000000000000815260040160405180910390fd5b5b600073ffffffffffffffffffffffffffffffffffffffff168573ffffffffffffffffffffffffffffffffffffffff1603611ad6576040517fea553b3400000000000000000000000000000000000000000000000000000000815260040160405180910390fd5b611ae38686866001612092565b8015611aee57600082555b600560008773ffffffffffffffffffffffffffffffffffffffff1673ffffffffffffffffffffffffffffffffffffffff168152602001908152602001600020600081546001900391905081905550600560008673ffffffffffffffffffffffffffffffffffffffff1673ffffffffffffffffffffffffffffffffffffffff1681526020019081526020016000206000815460010191905081905550611bbc85611b98888887612098565b7c0200000000000000000000000000000000000000000000000000000000176120c0565b600460008681526020019081526020016000208190555060007c0200000000000000000000000000000000000000000000000000000000841603611c425760006001850190506000600460008381526020019081526020016000205403611c40576000548114611c3f578360046000838152602001908152602001600020819055505b5b505b838573ffffffffffffffffffffffffffffffffffffffff168773ffffffffffffffffffffffffffffffffffffffff167fddf252ad1be2c89b69c2b068fc378daa952ba7f163c4a11628f55a4df523b3ef60405160405180910390a4611caa86868660016120eb565b505050505050565b611ccd83838360405180602001604052806000815250611383565b505050565b611cda6120f1565b73ffffffffffffffffffffffffffffffffffffffff16611cf8610d9d565b73ffffffffffffffffffffffffffffffffffffffff1614611d4e576040517f08c379a0000000000000000000000000000000000000000000000000000000008152600401611d4590613675565b60405180910390fd5b565b60008082905080611d5f61188e565b11611de557600054811015611de45760006004600083815260200190815260200160002054905060007c0100000000000000000000000000000000000000000000000000000000821603611de2575b60008103611dd8576004600083600190039350838152602001908152602001600020549050611dae565b8092505050611e17565b505b5b6040517fdf2d9b4200000000000000000000000000000000000000000000000000000000815260040160405180910390fd5b919050565b6000600860009054906101000a900473ffffffffffffffffffffffffffffffffffffffff16905081600860006101000a81548173ffffffffffffffffffffffffffffffffffffffff021916908373ffffffffffffffffffffffffffffffffffffffff1602179055508173ffffffffffffffffffffffffffffffffffffffff168173ffffffffffffffffffffffffffffffffffffffff167f8be0079c531659141344cd1fd0a4f28419497f9722a3daafe3b4186f6b6457e060405160405180910390a35050565b600260095403611f27576040517f08c379a0000000000000000000000000000000000000000000000000000000008152600401611f1e906136e1565b60405180910390fd5b6002600981905550565b6000611f3b6120f9565b905060005b82811015611f8757611f5182612102565b600a60008481526020019081526020016000208190555081611f7290613365565b91508080611f7f90613365565b915050611f40565b505050565b611fa68282604051806020016040528060008152506122b1565b5050565b6001600981905550565b611fbf848484610b1e565b60008373ffffffffffffffffffffffffffffffffffffffff163b1461202157611fea8484848461234e565b612020576040517fd1a57ed600000000000000000000000000000000000000000000000000000000815260040160405180910390fd5b5b50505050565b60008060006006600085815260200190815260200160002090508092508254915050915091565b600073ffffffffffffffffffffffffffffffffffffffff8316925073ffffffffffffffffffffffffffffffffffffffff821691508382148383141790509392505050565b50505050565b60008060e883901c905060e86120af86868461249e565b62ffffff16901b9150509392505050565b600073ffffffffffffffffffffffffffffffffffffffff83169250814260a01b178317905092915050565b50505050565b600033905090565b60008054905090565b60008061210e836124a7565b90506000600a6014603084901c6121259190613701565b61212f9190613152565b600a60078461213e9190613701565b6121489190613152565b60646121549190612fd8565b61215e9190613152565b90506000600a6014606085901c6121759190613701565b61217f9190613152565b600a6006606086901c6121929190613701565b61219c9190613152565b60646121a89190612fd8565b6121b29190613152565b90506000600a6014609086901c6121c99190613701565b6121d39190613152565b600a6007609087901c6121e69190613701565b6121f09190613152565b60646121fc9190612fd8565b6122069190613152565b90506000600a601460c087901c61221d9190613701565b6122279190613152565b600a600260c088901c61223a9190613701565b6122449190613152565b60646122509190612fd8565b61225a9190613152565b90508082848661271061226d9190612fd8565b6122779190613152565b6127106122849190612fd8565b61228e9190613152565b61271061229b9190612fd8565b6122a59190613152565b95505050505050919050565b6122bb83836124e9565b60008373ffffffffffffffffffffffffffffffffffffffff163b1461234957600080549050600083820390505b6122fb600086838060010194508661234e565b612331576040517fd1a57ed600000000000000000000000000000000000000000000000000000000815260040160405180910390fd5b8181106122e857816000541461234657600080fd5b50505b505050565b60008373ffffffffffffffffffffffffffffffffffffffff1663150b7a02612374611886565b8786866040518563ffffffff1660e01b81526004016123969493929190613787565b6020604051808303816000875af19250505080156123d257506040513d601f19601f820116820180604052508101906123cf91906137e8565b60015b61244b573d8060008114612402576040519150601f19603f3d011682016040523d82523d6000602084013e612407565b606091505b506000815103612443576040517fd1a57ed600000000000000000000000000000000000000000000000000000000815260040160405180910390fd5b805181602001fd5b63150b7a0260e01b7bffffffffffffffffffffffffffffffffffffffffffffffffffffffff1916817bffffffffffffffffffffffffffffffffffffffffffffffffffffffff191614915050949350505050565b60009392505050565b60006001436124b69190613815565b40826040516020016124c9929190613895565b6040516020818303038152906040528051906020012060001c9050919050565b60008054905060008203612529576040517fb562e8dd00000000000000000000000000000000000000000000000000000000815260040160405180910390fd5b6125366000848385612092565b600160406001901b178202600560008573ffffffffffffffffffffffffffffffffffffffff1673ffffffffffffffffffffffffffffffffffffffff168152602001908152602001600020600082825401925050819055506125ad8361259e6000866000612098565b6125a7856126a4565b176120c0565b6004600083815260200190815260200160002081905550600080838301905073ffffffffffffffffffffffffffffffffffffffff85169150828260007fddf252ad1be2c89b69c2b068fc378daa952ba7f163c4a11628f55a4df523b3ef600080a4600183015b81811461264e57808360007fddf252ad1be2c89b69c2b068fc378daa952ba7f163c4a11628f55a4df523b3ef600080a4600181019050612613565b5060008203612689576040517f2e07630000000000000000000000000000000000000000000000000000000000815260040160405180910390fd5b80600081905550505061269f60008483856120eb565b505050565b60006001821460e11b9050919050565b6000604051905090565b600080fd5b600080fd5b60007fffffffff0000000000000000000000000000000000000000000000000000000082169050919050565b6126fd816126c8565b811461270857600080fd5b50565b60008135905061271a816126f4565b92915050565b600060208284031215612736576127356126be565b5b60006127448482850161270b565b91505092915050565b60008115159050919050565b6127628161274d565b82525050565b600060208201905061277d6000830184612759565b92915050565b600081519050919050565b600082825260208201905092915050565b60005b838110156127bd5780820151818401526020810190506127a2565b60008484015250505050565b6000601f19601f8301169050919050565b60006127e582612783565b6127ef818561278e565b93506127ff81856020860161279f565b612808816127c9565b840191505092915050565b6000602082019050818103600083015261282d81846127da565b905092915050565b6000819050919050565b61284881612835565b811461285357600080fd5b50565b6000813590506128658161283f565b92915050565b600060208284031215612881576128806126be565b5b600061288f84828501612856565b91505092915050565b600073ffffffffffffffffffffffffffffffffffffffff82169050919050565b60006128c382612898565b9050919050565b6128d3816128b8565b82525050565b60006020820190506128ee60008301846128ca565b92915050565b6128fd816128b8565b811461290857600080fd5b50565b60008135905061291a816128f4565b92915050565b60008060408385031215612937576129366126be565b5b60006129458582860161290b565b925050602061295685828601612856565b9150509250929050565b61296981612835565b82525050565b60006020820190506129846000830184612960565b92915050565b6000806000606084860312156129a3576129a26126be565b5b60006129b18682870161290b565b93505060206129c28682870161290b565b92505060406129d386828701612856565b9150509250925092565b600080604083850312156129f4576129f36126be565b5b6000612a0285828601612856565b9250506020612a1385828601612856565b9150509250929050565b6000604082019050612a3260008301856128ca565b612a3f6020830184612960565b9392505050565b6000819050919050565b6000612a6b612a66612a6184612898565b612a46565b612898565b9050919050565b6000612a7d82612a50565b9050919050565b6000612a8f82612a72565b9050919050565b612a9f81612a84565b82525050565b6000602082019050612aba6000830184612a96565b92915050565b6000612acb826128b8565b9050919050565b612adb81612ac0565b8114612ae657600080fd5b50565b600081359050612af881612ad2565b92915050565b600060208284031215612b1457612b136126be565b5b6000612b2284828501612ae9565b91505092915050565b600060208284031215612b4157612b406126be565b5b6000612b4f8482850161290b565b91505092915050565b612b618161274d565b8114612b6c57600080fd5b50565b600081359050612b7e81612b58565b92915050565b60008060408385031215612b9b57612b9a6126be565b5b6000612ba98582860161290b565b9250506020612bba85828601612b6f565b9150509250929050565b60008060408385031215612bdb57612bda6126be565b5b6000612be98582860161290b565b9250506020612bfa8582860161290b565b9150509250929050565b600080fd5b600080fd5b7f4e487b7100000000000000000000000000000000000000000000000000000000600052604160045260246000fd5b612c46826127c9565b810181811067ffffffffffffffff82111715612c6557612c64612c0e565b5b80604052505050565b6000612c786126b4565b9050612c848282612c3d565b919050565b600067ffffffffffffffff821115612ca457612ca3612c0e565b5b612cad826127c9565b9050602081019050919050565b82818337600083830152505050565b6000612cdc612cd784612c89565b612c6e565b905082815260208101848484011115612cf857612cf7612c09565b5b612d03848285612cba565b509392505050565b600082601f830112612d2057612d1f612c04565b5b8135612d30848260208601612cc9565b91505092915050565b60008060008060808587031215612d5357612d526126be565b5b6000612d618782880161290b565b9450506020612d728782880161290b565b9350506040612d8387828801612856565b925050606085013567ffffffffffffffff811115612da457612da36126c3565b5b612db087828801612d0b565b91505092959194509250565b600067ffffffffffffffff821115612dd757612dd6612c0e565b5b602082029050602081019050919050565b600080fd5b6000612e00612dfb84612dbc565b612c6e565b90508083825260208201905060208402830185811115612e2357612e22612de8565b5b835b81811015612e4c5780612e38888261290b565b845260208401935050602081019050612e25565b5050509392505050565b600082601f830112612e6b57612e6a612c04565b5b8135612e7b848260208601612ded565b91505092915050565b60008060408385031215612e9b57612e9a6126be565b5b600083013567ffffffffffffffff811115612eb957612eb86126c3565b5b612ec585828601612e56565b9250506020612ed685828601612856565b9150509250929050565b6000612eeb82612a72565b9050919050565b612efb81612ee0565b82525050565b6000602082019050612f166000830184612ef2565b92915050565b600060208284031215612f3257612f316126be565b5b6000612f4084828501612b6f565b91505092915050565b7f4e487b7100000000000000000000000000000000000000000000000000000000600052602260045260246000fd5b60006002820490506001821680612f9057607f821691505b602082108103612fa357612fa2612f49565b5b50919050565b7f4e487b7100000000000000000000000000000000000000000000000000000000600052601160045260246000fd5b6000612fe382612835565b9150612fee83612835565b9250828202612ffc81612835565b9150828204841483151761301357613012612fa9565b5b5092915050565b7f4e487b7100000000000000000000000000000000000000000000000000000000600052601260045260246000fd5b600061305482612835565b915061305f83612835565b92508261306f5761306e61301a565b5b828204905092915050565b7f5468652063616c6c657220697320616e6f7468657220636f6e74726163740000600082015250565b60006130b0601e8361278e565b91506130bb8261307a565b602082019050919050565b600060208201905081810360008301526130df816130a3565b9050919050565b7f496e76616c6964206d696e7420616d6f756e7421000000000000000000000000600082015250565b600061311c60148361278e565b9150613127826130e6565b602082019050919050565b6000602082019050818103600083015261314b8161310f565b9050919050565b600061315d82612835565b915061316883612835565b92508282019050808211156131805761317f612fa9565b5b92915050565b7f57696c6c20657863656564206d6178696d756d20737570706c79210000000000600082015250565b60006131bc601b8361278e565b91506131c782613186565b602082019050919050565b600060208201905081810360008301526131eb816131af565b9050919050565b7f536f6c64206f7574210000000000000000000000000000000000000000000000600082015250565b600061322860098361278e565b9150613233826131f2565b602082019050919050565b600060208201905081810360008301526132578161321b565b9050919050565b7f5065722077616c6c6574206c696d697420726561636865642100000000000000600082015250565b600061329460198361278e565b915061329f8261325e565b602082019050919050565b600060208201905081810360008301526132c381613287565b9050919050565b7f496e73756666696369656e742066756e64732100000000000000000000000000600082015250565b600061330060138361278e565b915061330b826132ca565b602082019050919050565b6000602082019050818103600083015261332f816132f3565b9050919050565b7f4e487b7100000000000000000000000000000000000000000000000000000000600052603260045260246000fd5b600061337082612835565b91507fffffffffffffffffffffffffffffffffffffffffffffffffffffffffffffffff82036133a2576133a1612fa9565b5b600182019050919050565b7f546f6b656e20494420646f6573206e6f742065786973742e0000000000000000600082015250565b60006133e360188361278e565b91506133ee826133ad565b602082019050919050565b60006020820190508181036000830152613412816133d6565b9050919050565b600060408201905061342e6000830185612960565b61343b6020830184612960565b9392505050565b600067ffffffffffffffff82111561345d5761345c612c0e565b5b613466826127c9565b9050602081019050919050565b600061348661348184613442565b612c6e565b9050828152602081018484840111156134a2576134a1612c09565b5b6134ad84828561279f565b509392505050565b600082601f8301126134ca576134c9612c04565b5b81516134da848260208601613473565b91505092915050565b6000602082840312156134f9576134f86126be565b5b600082015167ffffffffffffffff811115613517576135166126c3565b5b613523848285016134b5565b91505092915050565b7f4f776e61626c653a206e6577206f776e657220697320746865207a65726f206160008201527f6464726573730000000000000000000000000000000000000000000000000000602082015250565b600061358860268361278e565b91506135938261352c565b604082019050919050565b600060208201905081810360008301526135b78161357b565b9050919050565b60006040820190506135d360008301856128ca565b6135e060208301846128ca565b9392505050565b6000815190506135f681612b58565b92915050565b600060208284031215613612576136116126be565b5b6000613620848285016135e7565b91505092915050565b7f4f776e61626c653a2063616c6c6572206973206e6f7420746865206f776e6572600082015250565b600061365f60208361278e565b915061366a82613629565b602082019050919050565b6000602082019050818103600083015261368e81613652565b9050919050565b7f5265656e7472616e637947756172643a207265656e7472616e742063616c6c00600082015250565b60006136cb601f8361278e565b91506136d682613695565b602082019050919050565b600060208201905081810360008301526136fa816136be565b9050919050565b600061370c82612835565b915061371783612835565b9250826137275761372661301a565b5b828206905092915050565b600081519050919050565b600082825260208201905092915050565b600061375982613732565b613763818561373d565b935061377381856020860161279f565b61377c816127c9565b840191505092915050565b600060808201905061379c60008301876128ca565b6137a960208301866128ca565b6137b66040830185612960565b81810360608301526137c8818461374e565b905095945050505050565b6000815190506137e2816126f4565b92915050565b6000602082840312156137fe576137fd6126be565b5b600061380c848285016137d3565b91505092915050565b600061382082612835565b915061382b83612835565b925082820390508181111561384357613842612fa9565b5b92915050565b6000819050919050565b6000819050919050565b61386e61386982613849565b613853565b82525050565b6000819050919050565b61388f61388a82612835565b613874565b82525050565b60006138a1828561385d565b6020820191506138b1828461387e565b602082019150819050939250505056fea26469706673582212201e5b840cc56e579e8a038c6a362098bb5fd19d1930c9be5542b992689003159964736f6c63430008110033",
  "linkReferences": {},
  "deployedLinkReferences": {}
}