{
  "_format": "hh-sol-artifact-1",
  "contractName": "StakeableNft",
  "sourceName": "contracts/ERC721/StakeableNft.sol",
  "abi": [
    {
      "inputs": [
        {
          "internalType": "contract INftFactory",
          "name": "newFactory",
          "type": "address"
        }
      ],
      "stateMutability": "nonpayable",
      "type": "constructor"
    },
    {
      "inputs": [],
      "name": "ApprovalCallerNotOwnerNorApproved",
      "type": "error"
    },
    {
      "inputs": [],
      "name": "ApprovalQueryForNonexistentToken",
      "type": "error"
    },
    {
      "inputs": [],
      "name": "BalanceQueryForZeroAddress",
      "type": "error"
    },
    {
      "inputs": [],
      "name": "MintERC2309QuantityExceedsLimit",
      "type": "error"
    },
    {
      "inputs": [],
      "name": "MintToZeroAddress",
      "type": "error"
    },
    {
      "inputs": [],
      "name": "MintZeroQuantity",
      "type": "error"
    },
    {
      "inputs": [
        {
          "internalType": "address",
          "name": "operator",
          "type": "address"
        }
      ],
      "name": "OperatorNotAllowed",
      "type": "error"
    },
    {
      "inputs": [],
      "name": "OwnerQueryForNonexistentToken",
      "type": "error"
    },
    {
      "inputs": [],
      "name": "OwnershipNotInitializedForExtraData",
      "type": "error"
    },
    {
      "inputs": [],
      "name": "TransferCallerNotOwnerNorApproved",
      "type": "error"
    },
    {
      "inputs": [],
      "name": "TransferFromIncorrectOwner",
      "type": "error"
    },
    {
      "inputs": [],
      "name": "TransferToNonERC721ReceiverImplementer",
      "type": "error"
    },
    {
      "inputs": [],
      "name": "TransferToZeroAddress",
      "type": "error"
    },
    {
      "inputs": [],
      "name": "URIQueryForNonexistentToken",
      "type": "error"
    },
    {
      "anonymous": false,
      "inputs": [
        {
          "indexed": true,
          "internalType": "address",
          "name": "owner",
          "type": "address"
        },
        {
          "indexed": true,
          "internalType": "address",
          "name": "approved",
          "type": "address"
        },
        {
          "indexed": true,
          "internalType": "uint256",
          "name": "tokenId",
          "type": "uint256"
        }
      ],
      "name": "Approval",
      "type": "event"
    },
    {
      "anonymous": false,
      "inputs": [
        {
          "indexed": true,
          "internalType": "address",
          "name": "owner",
          "type": "address"
        },
        {
          "indexed": true,
          "internalType": "address",
          "name": "operator",
          "type": "address"
        },
        {
          "indexed": false,
          "internalType": "bool",
          "name": "approved",
          "type": "bool"
        }
      ],
      "name": "ApprovalForAll",
      "type": "event"
    },
    {
      "anonymous": false,
      "inputs": [
        {
          "indexed": true,
          "internalType": "uint256",
          "name": "fromTokenId",
          "type": "uint256"
        },
        {
          "indexed": false,
          "internalType": "uint256",
          "name": "toTokenId",
          "type": "uint256"
        },
        {
          "indexed": true,
          "internalType": "address",
          "name": "from",
          "type": "address"
        },
        {
          "indexed": true,
          "internalType": "address",
          "name": "to",
          "type": "address"
        }
      ],
      "name": "ConsecutiveTransfer",
      "type": "event"
    },
    {
      "anonymous": false,
      "inputs": [
        {
          "indexed": true,
          "internalType": "address",
          "name": "previousOwner",
          "type": "address"
        },
        {
          "indexed": true,
          "internalType": "address",
          "name": "newOwner",
          "type": "address"
        }
      ],
      "name": "OwnershipTransferred",
      "type": "event"
    },
    {
      "anonymous": false,
      "inputs": [
        {
          "indexed": true,
          "internalType": "address",
          "name": "from",
          "type": "address"
        },
        {
          "indexed": true,
          "internalType": "address",
          "name": "to",
          "type": "address"
        },
        {
          "indexed": true,
          "internalType": "uint256",
          "name": "tokenId",
          "type": "uint256"
        }
      ],
      "name": "Transfer",
      "type": "event"
    },
    {
      "inputs": [],
      "name": "OPERATOR_FILTER_REGISTRY",
      "outputs": [
        {
          "internalType": "contract IOperatorFilterRegistry",
          "name": "",
          "type": "address"
        }
      ],
      "stateMutability": "view",
      "type": "function"
    },
    {
      "inputs": [
        {
          "internalType": "address[]",
          "name": "_recipients",
          "type": "address[]"
        },
        {
          "internalType": "uint256",
          "name": "_mintAmount",
          "type": "uint256"
        }
      ],
      "name": "airdrop",
      "outputs": [],
      "stateMutability": "nonpayable",
      "type": "function"
    },
    {
      "inputs": [
        {
          "internalType": "address",
          "name": "to",
          "type": "address"
        },
        {
          "internalType": "uint256",
          "name": "tokenId",
          "type": "uint256"
        }
      ],
      "name": "approve",
      "outputs": [],
      "stateMutability": "payable",
      "type": "function"
    },
    {
      "inputs": [
        {
          "internalType": "address",
          "name": "owner",
          "type": "address"
        }
      ],
      "name": "balanceOf",
      "outputs": [
        {
          "internalType": "uint256",
          "name": "",
          "type": "uint256"
        }
      ],
      "stateMutability": "view",
      "type": "function"
    },
    {
      "inputs": [],
      "name": "beneficiaryAddress",
      "outputs": [
        {
          "internalType": "address",
          "name": "",
          "type": "address"
        }
      ],
      "stateMutability": "view",
      "type": "function"
    },
    {
      "inputs": [],
      "name": "factory",
      "outputs": [
        {
          "internalType": "contract INftFactory",
          "name": "",
          "type": "address"
        }
      ],
      "stateMutability": "view",
      "type": "function"
    },
    {
      "inputs": [
        {
          "internalType": "uint256",
          "name": "tokenId",
          "type": "uint256"
        }
      ],
      "name": "getApproved",
      "outputs": [
        {
          "internalType": "address",
          "name": "",
          "type": "address"
        }
      ],
      "stateMutability": "view",
      "type": "function"
    },
    {
      "inputs": [
        {
          "internalType": "uint256",
          "name": "tokenId",
          "type": "uint256"
        }
      ],
      "name": "getSeed",
      "outputs": [
        {
          "internalType": "uint256",
          "name": "",
          "type": "uint256"
        }
      ],
      "stateMutability": "view",
      "type": "function"
    },
    {
      "inputs": [],
      "name": "getmintCount",
      "outputs": [
        {
          "internalType": "uint256",
          "name": "",
          "type": "uint256"
        }
      ],
      "stateMutability": "view",
      "type": "function"
    },
    {
      "inputs": [
        {
          "internalType": "address",
          "name": "owner",
          "type": "address"
        },
        {
          "internalType": "address",
          "name": "operator",
          "type": "address"
        }
      ],
      "name": "isApprovedForAll",
      "outputs": [
        {
          "internalType": "bool",
          "name": "",
          "type": "bool"
        }
      ],
      "stateMutability": "view",
      "type": "function"
    },
    {
      "inputs": [],
      "name": "isPublicMint",
      "outputs": [
        {
          "internalType": "bool",
          "name": "",
          "type": "bool"
        }
      ],
      "stateMutability": "view",
      "type": "function"
    },
    {
      "inputs": [],
      "name": "maxMintPerWallet",
      "outputs": [
        {
          "internalType": "uint256",
          "name": "",
          "type": "uint256"
        }
      ],
      "stateMutability": "view",
      "type": "function"
    },
    {
      "inputs": [],
      "name": "maxSupply",
      "outputs": [
        {
          "internalType": "uint256",
          "name": "",
          "type": "uint256"
        }
      ],
      "stateMutability": "view",
      "type": "function"
    },
    {
      "inputs": [
        {
          "internalType": "uint256",
          "name": "_mintAmount",
          "type": "uint256"
        }
      ],
      "name": "mint",
      "outputs": [],
      "stateMutability": "payable",
      "type": "function"
    },
    {
      "inputs": [],
      "name": "mintCost",
      "outputs": [
        {
          "internalType": "uint256",
          "name": "",
          "type": "uint256"
        }
      ],
      "stateMutability": "view",
      "type": "function"
    },
    {
      "inputs": [
        {
          "internalType": "address",
          "name": "",
          "type": "address"
        }
      ],
      "name": "mintCount",
      "outputs": [
        {
          "internalType": "uint256",
          "name": "",
          "type": "uint256"
        }
      ],
      "stateMutability": "view",
      "type": "function"
    },
    {
      "inputs": [],
      "name": "name",
      "outputs": [
        {
          "internalType": "string",
          "name": "",
          "type": "string"
        }
      ],
      "stateMutability": "view",
      "type": "function"
    },
    {
      "inputs": [],
      "name": "owner",
      "outputs": [
        {
          "internalType": "address",
          "name": "",
          "type": "address"
        }
      ],
      "stateMutability": "view",
      "type": "function"
    },
    {
      "inputs": [
        {
          "internalType": "uint256",
          "name": "tokenId",
          "type": "uint256"
        }
      ],
      "name": "ownerOf",
      "outputs": [
        {
          "internalType": "address",
          "name": "",
          "type": "address"
        }
      ],
      "stateMutability": "view",
      "type": "function"
    },
    {
      "inputs": [],
      "name": "renounceOwnership",
      "outputs": [],
      "stateMutability": "nonpayable",
      "type": "function"
    },
    {
      "inputs": [],
      "name": "royaltyAddress",
      "outputs": [
        {
          "internalType": "address",
          "name": "",
          "type": "address"
        }
      ],
      "stateMutability": "view",
      "type": "function"
    },
    {
      "inputs": [
        {
          "internalType": "uint256",
          "name": "_tokenId",
          "type": "uint256"
        },
        {
          "internalType": "uint256",
          "name": "_salePrice",
          "type": "uint256"
        }
      ],
      "name": "royaltyInfo",
      "outputs": [
        {
          "internalType": "address",
          "name": "receiver",
          "type": "address"
        },
        {
          "internalType": "uint256",
          "name": "royaltyAmount",
          "type": "uint256"
        }
      ],
      "stateMutability": "view",
      "type": "function"
    },
    {
      "inputs": [
        {
          "internalType": "address",
          "name": "from",
          "type": "address"
        },
        {
          "internalType": "address",
          "name": "to",
          "type": "address"
        },
        {
          "internalType": "uint256",
          "name": "tokenId",
          "type": "uint256"
        }
      ],
      "name": "safeTransferFrom",
      "outputs": [],
      "stateMutability": "payable",
      "type": "function"
    },
    {
      "inputs": [
        {
          "internalType": "address",
          "name": "from",
          "type": "address"
        },
        {
          "internalType": "address",
          "name": "to",
          "type": "address"
        },
        {
          "internalType": "uint256",
          "name": "tokenId",
          "type": "uint256"
        },
        {
          "internalType": "bytes",
          "name": "data",
          "type": "bytes"
        }
      ],
      "name": "safeTransferFrom",
      "outputs": [],
      "stateMutability": "payable",
      "type": "function"
    },
    {
      "inputs": [
        {
          "internalType": "address",
          "name": "operator",
          "type": "address"
        },
        {
          "internalType": "bool",
          "name": "approved",
          "type": "bool"
        }
      ],
      "name": "setApprovalForAll",
      "outputs": [],
      "stateMutability": "nonpayable",
      "type": "function"
    },
    {
      "inputs": [
        {
          "internalType": "contract INftFactory",
          "name": "newFactory",
          "type": "address"
        }
      ],
      "name": "setFactory",
      "outputs": [],
      "stateMutability": "nonpayable",
      "type": "function"
    },
    {
      "inputs": [
        {
          "internalType": "bool",
          "name": "value",
          "type": "bool"
        }
      ],
      "name": "setSoldOut",
      "outputs": [],
      "stateMutability": "nonpayable",
      "type": "function"
    },
    {
      "inputs": [
        {
          "internalType": "bytes4",
          "name": "interfaceId",
          "type": "bytes4"
        }
      ],
      "name": "supportsInterface",
      "outputs": [
        {
          "internalType": "bool",
          "name": "",
          "type": "bool"
        }
      ],
      "stateMutability": "view",
      "type": "function"
    },
    {
      "inputs": [],
      "name": "symbol",
      "outputs": [
        {
          "internalType": "string",
          "name": "",
          "type": "string"
        }
      ],
      "stateMutability": "view",
      "type": "function"
    },
    {
      "inputs": [
        {
          "internalType": "uint256",
          "name": "tokenId",
          "type": "uint256"
        }
      ],
      "name": "tokenURI",
      "outputs": [
        {
          "internalType": "string",
          "name": "",
          "type": "string"
        }
      ],
      "stateMutability": "view",
      "type": "function"
    },
    {
      "inputs": [],
      "name": "totalSupply",
      "outputs": [
        {
          "internalType": "uint256",
          "name": "",
          "type": "uint256"
        }
      ],
      "stateMutability": "view",
      "type": "function"
    },
    {
      "inputs": [
        {
          "internalType": "address",
          "name": "from",
          "type": "address"
        },
        {
          "internalType": "address",
          "name": "to",
          "type": "address"
        },
        {
          "internalType": "uint256",
          "name": "tokenId",
          "type": "uint256"
        }
      ],
      "name": "transferFrom",
      "outputs": [],
      "stateMutability": "payable",
      "type": "function"
    },
    {
      "inputs": [
        {
          "internalType": "address",
          "name": "newOwner",
          "type": "address"
        }
      ],
      "name": "transferOwnership",
      "outputs": [],
      "stateMutability": "nonpayable",
      "type": "function"
    },
    {
      "inputs": [
        {
          "internalType": "address",
          "name": "_beneficiaryReceiver",
          "type": "address"
        },
        {
          "internalType": "address",
          "name": "_royaltiesReceiver",
          "type": "address"
        }
      ],
      "name": "updateFoundationAddress",
      "outputs": [],
      "stateMutability": "nonpayable",
      "type": "function"
    },
    {
      "inputs": [
        {
          "internalType": "uint256",
          "name": "_royalties",
          "type": "uint256"
        }
      ],
      "name": "updateRoyalties",
      "outputs": [],
      "stateMutability": "nonpayable",
      "type": "function"
    }
  ],
  "bytecode": "0x60806040526001600c60006101000a81548160ff021916908315150217905550615208600d556611c37937e08000600e556015600f5560056010553480156200004757600080fd5b50604051620042d4380380620042d483398181016040528101906200006d9190620005ae565b733cc6cdda760b79bafa08df41ecfa224f810dceb660016040518060400160405280600c81526020017f5374616b6561626c654e667400000000000000000000000000000000000000008152506040518060400160405280600481526020017f784e46540000000000000000000000000000000000000000000000000000000081525081600290816200010191906200085a565b5080600390816200011391906200085a565b50620001246200043360201b60201c565b600081905550505060006daaeb6d7670e522a718067333cd4e73ffffffffffffffffffffffffffffffffffffffff163b111562000321578015620001e7576daaeb6d7670e522a718067333cd4e73ffffffffffffffffffffffffffffffffffffffff16637d3e3dbe30846040518363ffffffff1660e01b8152600401620001ad92919062000952565b600060405180830381600087803b158015620001c857600080fd5b505af1158015620001dd573d6000803e3d6000fd5b5050505062000320565b600073ffffffffffffffffffffffffffffffffffffffff168273ffffffffffffffffffffffffffffffffffffffff1614620002a1576daaeb6d7670e522a718067333cd4e73ffffffffffffffffffffffffffffffffffffffff1663a0af290330846040518363ffffffff1660e01b81526004016200026792919062000952565b600060405180830381600087803b1580156200028257600080fd5b505af115801562000297573d6000803e3d6000fd5b505050506200031f565b6daaeb6d7670e522a718067333cd4e73ffffffffffffffffffffffffffffffffffffffff16634420e486306040518263ffffffff1660e01b8152600401620002ea91906200097f565b600060405180830381600087803b1580156200030557600080fd5b505af11580156200031a573d6000803e3d6000fd5b505050505b5b5b505062000343620003376200043860201b60201c565b6200044060201b60201c565b60016009819055506200035b6200050660201b60201c565b601160006101000a81548173ffffffffffffffffffffffffffffffffffffffff021916908373ffffffffffffffffffffffffffffffffffffffff160217905550620003ab6200050660201b60201c565b601260006101000a81548173ffffffffffffffffffffffffffffffffffffffff021916908373ffffffffffffffffffffffffffffffffffffffff16021790555080600c60016101000a81548173ffffffffffffffffffffffffffffffffffffffff021916908373ffffffffffffffffffffffffffffffffffffffff160217905550506200099c565b600090565b600033905090565b6000600860009054906101000a900473ffffffffffffffffffffffffffffffffffffffff16905081600860006101000a81548173ffffffffffffffffffffffffffffffffffffffff021916908373ffffffffffffffffffffffffffffffffffffffff1602179055508173ffffffffffffffffffffffffffffffffffffffff168173ffffffffffffffffffffffffffffffffffffffff167f8be0079c531659141344cd1fd0a4f28419497f9722a3daafe3b4186f6b6457e060405160405180910390a35050565b6000600860009054906101000a900473ffffffffffffffffffffffffffffffffffffffff16905090565b600080fd5b600073ffffffffffffffffffffffffffffffffffffffff82169050919050565b6000620005628262000535565b9050919050565b6000620005768262000555565b9050919050565b620005888162000569565b81146200059457600080fd5b50565b600081519050620005a8816200057d565b92915050565b600060208284031215620005c757620005c662000530565b5b6000620005d78482850162000597565b91505092915050565b600081519050919050565b7f4e487b7100000000000000000000000000000000000000000000000000000000600052604160045260246000fd5b7f4e487b7100000000000000000000000000000000000000000000000000000000600052602260045260246000fd5b600060028204905060018216806200066257607f821691505b6020821081036200067857620006776200061a565b5b50919050565b60008190508160005260206000209050919050565b60006020601f8301049050919050565b600082821b905092915050565b600060088302620006e27fffffffffffffffffffffffffffffffffffffffffffffffffffffffffffffffff82620006a3565b620006ee8683620006a3565b95508019841693508086168417925050509392505050565b6000819050919050565b6000819050919050565b60006200073b620007356200072f8462000706565b62000710565b62000706565b9050919050565b6000819050919050565b62000757836200071a565b6200076f620007668262000742565b848454620006b0565b825550505050565b600090565b6200078662000777565b620007938184846200074c565b505050565b5b81811015620007bb57620007af6000826200077c565b60018101905062000799565b5050565b601f8211156200080a57620007d4816200067e565b620007df8462000693565b81016020851015620007ef578190505b62000807620007fe8562000693565b83018262000798565b50505b505050565b600082821c905092915050565b60006200082f600019846008026200080f565b1980831691505092915050565b60006200084a83836200081c565b9150826002028217905092915050565b6200086582620005e0565b67ffffffffffffffff811115620008815762000880620005eb565b5b6200088d825462000649565b6200089a828285620007bf565b600060209050601f831160018114620008d25760008415620008bd578287015190505b620008c985826200083c565b86555062000939565b601f198416620008e2866200067e565b60005b828110156200090c57848901518255600182019150602085019450602081019050620008e5565b868310156200092c578489015162000928601f8916826200081c565b8355505b6001600288020188555050505b505050505050565b6200094c8162000555565b82525050565b600060408201905062000969600083018562000941565b62000978602083018462000941565b9392505050565b600060208201905062000996600083018462000941565b92915050565b61392880620009ac6000396000f3fe6080604052600436106102045760003560e01c80639658730b11610118578063c45a0155116100a0578063d9ef157a1161006f578063d9ef157a14610717578063e0d4ea3714610740578063e985e9c51461077d578063ed9ec888146107ba578063f2fde38b146107f757610204565b8063c45a015514610659578063c87b56dd14610684578063d5abeb01146106c1578063d9c4870e146106ec57610204565b8063af1fb607116100e7578063af1fb60714610595578063b228d925146105be578063b88d4fde146105e9578063bdb4b84814610605578063c204642c1461063057610204565b80639658730b146104fc578063a0712d6814610525578063a22cb46514610541578063ad2f852a1461056a57610204565b806341f434341161019b5780636352211e1161016a5780636352211e1461041557806370a0823114610452578063715018a61461048f5780638da5cb5b146104a657806395d89b41146104d157610204565b806341f434341461037a57806342842e0e146103a55780635619f443146103c15780635bb47808146103ec57610204565b806318160ddd116101d757806318160ddd146102ca57806323b872dd146102f55780632a55205a146103115780633057931f1461034f57610204565b806301ffc9a71461020957806306fdde0314610246578063081812fc14610271578063095ea7b3146102ae575b600080fd5b34801561021557600080fd5b50610230600480360381019061022b9190612751565b610820565b60405161023d9190612799565b60405180910390f35b34801561025257600080fd5b5061025b6108b2565b6040516102689190612844565b60405180910390f35b34801561027d57600080fd5b506102986004803603810190610293919061289c565b610944565b6040516102a5919061290a565b60405180910390f35b6102c860048036038101906102c39190612951565b6109c3565b005b3480156102d657600080fd5b506102df610b07565b6040516102ec91906129a0565b60405180910390f35b61030f600480360381019061030a91906129bb565b610b1e565b005b34801561031d57600080fd5b5061033860048036038101906103339190612a0e565b610b6d565b604051610346929190612a4e565b60405180910390f35b34801561035b57600080fd5b50610364610bb8565b6040516103719190612799565b60405180910390f35b34801561038657600080fd5b5061038f610bcb565b60405161039c9190612ad6565b60405180910390f35b6103bf60048036038101906103ba91906129bb565b610bdd565b005b3480156103cd57600080fd5b506103d6610c2c565b6040516103e391906129a0565b60405180910390f35b3480156103f857600080fd5b50610413600480360381019061040e9190612b2f565b610c73565b005b34801561042157600080fd5b5061043c6004803603810190610437919061289c565b610cbf565b604051610449919061290a565b60405180910390f35b34801561045e57600080fd5b5061047960048036038101906104749190612b5c565b610cd1565b60405161048691906129a0565b60405180910390f35b34801561049b57600080fd5b506104a4610d89565b005b3480156104b257600080fd5b506104bb610d9d565b6040516104c8919061290a565b60405180910390f35b3480156104dd57600080fd5b506104e6610dc7565b6040516104f39190612844565b60405180910390f35b34801561050857600080fd5b50610523600480360381019061051e919061289c565b610e59565b005b61053f600480360381019061053a919061289c565b610e6b565b005b34801561054d57600080fd5b5061056860048036038101906105639190612bb5565b611203565b005b34801561057657600080fd5b5061057f61130e565b60405161058c919061290a565b60405180910390f35b3480156105a157600080fd5b506105bc60048036038101906105b79190612bf5565b611334565b005b3480156105ca57600080fd5b506105d36113c2565b6040516105e091906129a0565b60405180910390f35b61060360048036038101906105fe9190612d6a565b6113c8565b005b34801561061157600080fd5b5061061a611419565b60405161062791906129a0565b60405180910390f35b34801561063c57600080fd5b5061065760048036038101906106529190612eb5565b61141f565b005b34801561066557600080fd5b5061066e611599565b60405161067b9190612f32565b60405180910390f35b34801561069057600080fd5b506106ab60048036038101906106a6919061289c565b6115bf565b6040516106b89190612844565b60405180910390f35b3480156106cd57600080fd5b506106d66116cc565b6040516106e391906129a0565b60405180910390f35b3480156106f857600080fd5b506107016116d2565b60405161070e919061290a565b60405180910390f35b34801561072357600080fd5b5061073e60048036038101906107399190612f4d565b6116f8565b005b34801561074c57600080fd5b506107676004803603810190610762919061289c565b61171d565b60405161077491906129a0565b60405180910390f35b34801561078957600080fd5b506107a4600480360381019061079f9190612bf5565b611782565b6040516107b19190612799565b60405180910390f35b3480156107c657600080fd5b506107e160048036038101906107dc9190612b5c565b611816565b6040516107ee91906129a0565b60405180910390f35b34801561080357600080fd5b5061081e60048036038101906108199190612b5c565b61182e565b005b60006301ffc9a760e01b827bffffffffffffffffffffffffffffffffffffffffffffffffffffffff1916148061087b57506380ac58cd60e01b827bffffffffffffffffffffffffffffffffffffffffffffffffffffffff1916145b806108ab5750635b5e139f60e01b827bffffffffffffffffffffffffffffffffffffffffffffffffffffffff1916145b9050919050565b6060600280546108c190612fa9565b80601f01602080910402602001604051908101604052809291908181526020018280546108ed90612fa9565b801561093a5780601f1061090f5761010080835404028352916020019161093a565b820191906000526020600020905b81548152906001019060200180831161091d57829003601f168201915b5050505050905090565b600061094f826118b1565b610985576040517fcf4700e400000000000000000000000000000000000000000000000000000000815260040160405180910390fd5b6006600083815260200190815260200160002060000160009054906101000a900473ffffffffffffffffffffffffffffffffffffffff169050919050565b60006109ce82610cbf565b90508073ffffffffffffffffffffffffffffffffffffffff166109ef611910565b73ffffffffffffffffffffffffffffffffffffffff1614610a5257610a1b81610a16611910565b611782565b610a51576040517fcfb3b94200000000000000000000000000000000000000000000000000000000815260040160405180910390fd5b5b826006600084815260200190815260200160002060000160006101000a81548173ffffffffffffffffffffffffffffffffffffffff021916908373ffffffffffffffffffffffffffffffffffffffff160217905550818373ffffffffffffffffffffffffffffffffffffffff168273ffffffffffffffffffffffffffffffffffffffff167f8c5be1e5ebec7d5bd14f71427d1e84f3dd0314c0f7b2291e5b200ac8c7c3b92560405160405180910390a4505050565b6000610b11611918565b6001546000540303905090565b823373ffffffffffffffffffffffffffffffffffffffff168173ffffffffffffffffffffffffffffffffffffffff1614610b5c57610b5b3361191d565b5b610b67848484611a1a565b50505050565b600080601260009054906101000a900473ffffffffffffffffffffffffffffffffffffffff169150606483601054610ba59190613009565b610baf919061307a565b90509250929050565b600c60009054906101000a900460ff1681565b6daaeb6d7670e522a718067333cd4e81565b823373ffffffffffffffffffffffffffffffffffffffff168173ffffffffffffffffffffffffffffffffffffffff1614610c1b57610c1a3361191d565b5b610c26848484611d3c565b50505050565b6000600b60003373ffffffffffffffffffffffffffffffffffffffff1673ffffffffffffffffffffffffffffffffffffffff16815260200190815260200160002054905090565b610c7b611d5c565b80600c60016101000a81548173ffffffffffffffffffffffffffffffffffffffff021916908373ffffffffffffffffffffffffffffffffffffffff16021790555050565b6000610cca82611dda565b9050919050565b60008073ffffffffffffffffffffffffffffffffffffffff168273ffffffffffffffffffffffffffffffffffffffff1603610d38576040517f8f4eb60400000000000000000000000000000000000000000000000000000000815260040160405180910390fd5b67ffffffffffffffff600560008473ffffffffffffffffffffffffffffffffffffffff1673ffffffffffffffffffffffffffffffffffffffff16815260200190815260200160002054169050919050565b610d91611d5c565b610d9b6000611ea6565b565b6000600860009054906101000a900473ffffffffffffffffffffffffffffffffffffffff16905090565b606060038054610dd690612fa9565b80601f0160208091040260200160405190810160405280929190818152602001828054610e0290612fa9565b8015610e4f5780601f10610e2457610100808354040283529160200191610e4f565b820191906000526020600020905b815481529060010190602001808311610e3257829003601f168201915b5050505050905090565b610e61611d5c565b8060108190555050565b600260095403610eb0576040517f08c379a0000000000000000000000000000000000000000000000000000000008152600401610ea7906130f7565b60405180910390fd5b6002600981905550803373ffffffffffffffffffffffffffffffffffffffff163273ffffffffffffffffffffffffffffffffffffffff1614610f27576040517f08c379a0000000000000000000000000000000000000000000000000000000008152600401610f1e90613163565b60405180910390fd5b60008111610f6a576040517f08c379a0000000000000000000000000000000000000000000000000000000008152600401610f61906131cf565b60405180910390fd5b600d5481610f76610b07565b610f8091906131ef565b1115610fc1576040517f08c379a0000000000000000000000000000000000000000000000000000000008152600401610fb89061326f565b60405180910390fd5b600c60009054906101000a900460ff16611010576040517f08c379a0000000000000000000000000000000000000000000000000000000008152600401611007906132db565b60405180910390fd5b600f5482600b60003373ffffffffffffffffffffffffffffffffffffffff1673ffffffffffffffffffffffffffffffffffffffff1681526020019081526020016000205461105e91906131ef565b111561109f576040517f08c379a000000000000000000000000000000000000000000000000000000000815260040161109690613347565b60405180910390fd5b81600e546110ad9190613009565b3410156110ef576040517f08c379a00000000000000000000000000000000000000000000000000000000081526004016110e6906133b3565b60405180910390fd5b81600b60003373ffffffffffffffffffffffffffffffffffffffff1673ffffffffffffffffffffffffffffffffffffffff168152602001908152602001600020600082825461113e91906131ef565b9250508190555061114e82611f6c565b6111583383611fc7565b600d54611163610b07565b10611184576000600c60006101000a81548160ff0219169083151502179055505b60004711156111f757601160009054906101000a900473ffffffffffffffffffffffffffffffffffffffff1673ffffffffffffffffffffffffffffffffffffffff166108fc479081150290604051600060405180830381858888f193505050501580156111f5573d6000803e3d6000fd5b505b50600160098190555050565b8060076000611210611910565b73ffffffffffffffffffffffffffffffffffffffff1673ffffffffffffffffffffffffffffffffffffffff16815260200190815260200160002060008473ffffffffffffffffffffffffffffffffffffffff1673ffffffffffffffffffffffffffffffffffffffff16815260200190815260200160002060006101000a81548160ff0219169083151502179055508173ffffffffffffffffffffffffffffffffffffffff166112bd611910565b73ffffffffffffffffffffffffffffffffffffffff167f17307eab39ab6107e8899845ad3d59bd9653f200f220920489ca2b5937696c31836040516113029190612799565b60405180910390a35050565b601260009054906101000a900473ffffffffffffffffffffffffffffffffffffffff1681565b61133c611d5c565b81601160006101000a81548173ffffffffffffffffffffffffffffffffffffffff021916908373ffffffffffffffffffffffffffffffffffffffff16021790555080601260006101000a81548173ffffffffffffffffffffffffffffffffffffffff021916908373ffffffffffffffffffffffffffffffffffffffff1602179055505050565b600f5481565b833373ffffffffffffffffffffffffffffffffffffffff168173ffffffffffffffffffffffffffffffffffffffff1614611406576114053361191d565b5b61141285858585611fe5565b5050505050565b600e5481565b611427611d5c565b60026009540361146c576040517f08c379a0000000000000000000000000000000000000000000000000000000008152600401611463906130f7565b60405180910390fd5b6002600981905550600081116114b7576040517f08c379a00000000000000000000000000000000000000000000000000000000081526004016114ae906131cf565b60405180910390fd5b600d54816114c3610b07565b6114cd91906131ef565b111561150e576040517f08c379a00000000000000000000000000000000000000000000000000000000081526004016115059061326f565b60405180910390fd5b60008251905060005b8181101561155f5761152883611f6c565b61154c84828151811061153e5761153d6133d3565b5b602002602001015184611fc7565b808061155790613402565b915050611517565b50600d5461156b610b07565b1061158c576000600c60006101000a81548160ff0219169083151502179055505b5060016009819055505050565b600c60019054906101000a900473ffffffffffffffffffffffffffffffffffffffff1681565b60606115ca826118b1565b611609576040517f08c379a000000000000000000000000000000000000000000000000000000000815260040161160090613496565b60405180910390fd5b6000600a6000848152602001908152602001600020549050600c60019054906101000a900473ffffffffffffffffffffffffffffffffffffffff1673ffffffffffffffffffffffffffffffffffffffff166392cb829d84836040518363ffffffff1660e01b815260040161167e9291906134b6565b600060405180830381865afa15801561169b573d6000803e3d6000fd5b505050506040513d6000823e3d601f19601f820116820180604052508101906116c49190613580565b915050919050565b600d5481565b601160009054906101000a900473ffffffffffffffffffffffffffffffffffffffff1681565b611700611d5c565b80600c60006101000a81548160ff02191690831515021790555050565b6000611728826118b1565b611767576040517f08c379a000000000000000000000000000000000000000000000000000000000815260040161175e90613496565b60405180910390fd5b600a6000838152602001908152602001600020549050919050565b6000600760008473ffffffffffffffffffffffffffffffffffffffff1673ffffffffffffffffffffffffffffffffffffffff16815260200190815260200160002060008373ffffffffffffffffffffffffffffffffffffffff1673ffffffffffffffffffffffffffffffffffffffff16815260200190815260200160002060009054906101000a900460ff16905092915050565b600b6020528060005260406000206000915090505481565b611836611d5c565b600073ffffffffffffffffffffffffffffffffffffffff168173ffffffffffffffffffffffffffffffffffffffff16036118a5576040517f08c379a000000000000000000000000000000000000000000000000000000000815260040161189c9061363b565b60405180910390fd5b6118ae81611ea6565b50565b6000816118bc611918565b111580156118cb575060005482105b8015611909575060007c0100000000000000000000000000000000000000000000000000000000600460008581526020019081526020016000205416145b9050919050565b600033905090565b600090565b60006daaeb6d7670e522a718067333cd4e73ffffffffffffffffffffffffffffffffffffffff163b1115611a17576daaeb6d7670e522a718067333cd4e73ffffffffffffffffffffffffffffffffffffffff1663c617113430836040518363ffffffff1660e01b815260040161199492919061365b565b602060405180830381865afa1580156119b1573d6000803e3d6000fd5b505050506040513d601f19601f820116820180604052508101906119d59190613699565b611a1657806040517fede71dcc000000000000000000000000000000000000000000000000000000008152600401611a0d919061290a565b60405180910390fd5b5b50565b6000611a2582611dda565b90508373ffffffffffffffffffffffffffffffffffffffff168173ffffffffffffffffffffffffffffffffffffffff1614611a8c576040517fa114810000000000000000000000000000000000000000000000000000000000815260040160405180910390fd5b600080611a9884612058565b91509150611aae8187611aa9611910565b61207f565b611afa57611ac386611abe611910565b611782565b611af9576040517f59c896be00000000000000000000000000000000000000000000000000000000815260040160405180910390fd5b5b600073ffffffffffffffffffffffffffffffffffffffff168573ffffffffffffffffffffffffffffffffffffffff1603611b60576040517fea553b3400000000000000000000000000000000000000000000000000000000815260040160405180910390fd5b611b6d86868660016120c3565b8015611b7857600082555b600560008773ffffffffffffffffffffffffffffffffffffffff1673ffffffffffffffffffffffffffffffffffffffff168152602001908152602001600020600081546001900391905081905550600560008673ffffffffffffffffffffffffffffffffffffffff1673ffffffffffffffffffffffffffffffffffffffff1681526020019081526020016000206000815460010191905081905550611c4685611c228888876120c9565b7c0200000000000000000000000000000000000000000000000000000000176120f1565b600460008681526020019081526020016000208190555060007c0200000000000000000000000000000000000000000000000000000000841603611ccc5760006001850190506000600460008381526020019081526020016000205403611cca576000548114611cc9578360046000838152602001908152602001600020819055505b5b505b838573ffffffffffffffffffffffffffffffffffffffff168773ffffffffffffffffffffffffffffffffffffffff167fddf252ad1be2c89b69c2b068fc378daa952ba7f163c4a11628f55a4df523b3ef60405160405180910390a4611d34868686600161211c565b505050505050565b611d57838383604051806020016040528060008152506113c8565b505050565b611d64612122565b73ffffffffffffffffffffffffffffffffffffffff16611d82610d9d565b73ffffffffffffffffffffffffffffffffffffffff1614611dd8576040517f08c379a0000000000000000000000000000000000000000000000000000000008152600401611dcf90613712565b60405180910390fd5b565b60008082905080611de9611918565b11611e6f57600054811015611e6e5760006004600083815260200190815260200160002054905060007c0100000000000000000000000000000000000000000000000000000000821603611e6c575b60008103611e62576004600083600190039350838152602001908152602001600020549050611e38565b8092505050611ea1565b505b5b6040517fdf2d9b4200000000000000000000000000000000000000000000000000000000815260040160405180910390fd5b919050565b6000600860009054906101000a900473ffffffffffffffffffffffffffffffffffffffff16905081600860006101000a81548173ffffffffffffffffffffffffffffffffffffffff021916908373ffffffffffffffffffffffffffffffffffffffff1602179055508173ffffffffffffffffffffffffffffffffffffffff168173ffffffffffffffffffffffffffffffffffffffff167f8be0079c531659141344cd1fd0a4f28419497f9722a3daafe3b4186f6b6457e060405160405180910390a35050565b6000611f7661212a565b905060005b82811015611fc257611f8c82612133565b600a60008481526020019081526020016000208190555081611fad90613402565b91508080611fba90613402565b915050611f7b565b505050565b611fe18282604051806020016040528060008152506122e2565b5050565b611ff0848484610b1e565b60008373ffffffffffffffffffffffffffffffffffffffff163b146120525761201b8484848461237f565b612051576040517fd1a57ed600000000000000000000000000000000000000000000000000000000815260040160405180910390fd5b5b50505050565b60008060006006600085815260200190815260200160002090508092508254915050915091565b600073ffffffffffffffffffffffffffffffffffffffff8316925073ffffffffffffffffffffffffffffffffffffffff821691508382148383141790509392505050565b50505050565b60008060e883901c905060e86120e08686846124cf565b62ffffff16901b9150509392505050565b600073ffffffffffffffffffffffffffffffffffffffff83169250814260a01b178317905092915050565b50505050565b600033905090565b60008054905090565b60008061213f836124d8565b90506000600a6014603084901c6121569190613732565b61216091906131ef565b600a60078461216f9190613732565b61217991906131ef565b60646121859190613009565b61218f91906131ef565b90506000600a6014606085901c6121a69190613732565b6121b091906131ef565b600a6006606086901c6121c39190613732565b6121cd91906131ef565b60646121d99190613009565b6121e391906131ef565b90506000600a6014609086901c6121fa9190613732565b61220491906131ef565b600a6007609087901c6122179190613732565b61222191906131ef565b606461222d9190613009565b61223791906131ef565b90506000600a601460c087901c61224e9190613732565b61225891906131ef565b600a600260c088901c61226b9190613732565b61227591906131ef565b60646122819190613009565b61228b91906131ef565b90508082848661271061229e9190613009565b6122a891906131ef565b6127106122b59190613009565b6122bf91906131ef565b6127106122cc9190613009565b6122d691906131ef565b95505050505050919050565b6122ec838361251a565b60008373ffffffffffffffffffffffffffffffffffffffff163b1461237a57600080549050600083820390505b61232c600086838060010194508661237f565b612362576040517fd1a57ed600000000000000000000000000000000000000000000000000000000815260040160405180910390fd5b81811061231957816000541461237757600080fd5b50505b505050565b60008373ffffffffffffffffffffffffffffffffffffffff1663150b7a026123a5611910565b8786866040518563ffffffff1660e01b81526004016123c794939291906137b8565b6020604051808303816000875af192505050801561240357506040513d601f19601f820116820180604052508101906124009190613819565b60015b61247c573d8060008114612433576040519150601f19603f3d011682016040523d82523d6000602084013e612438565b606091505b506000815103612474576040517fd1a57ed600000000000000000000000000000000000000000000000000000000815260040160405180910390fd5b805181602001fd5b63150b7a0260e01b7bffffffffffffffffffffffffffffffffffffffffffffffffffffffff1916817bffffffffffffffffffffffffffffffffffffffffffffffffffffffff191614915050949350505050565b60009392505050565b60006001436124e79190613846565b40826040516020016124fa9291906138c6565b6040516020818303038152906040528051906020012060001c9050919050565b6000805490506000820361255a576040517fb562e8dd00000000000000000000000000000000000000000000000000000000815260040160405180910390fd5b61256760008483856120c3565b600160406001901b178202600560008573ffffffffffffffffffffffffffffffffffffffff1673ffffffffffffffffffffffffffffffffffffffff168152602001908152602001600020600082825401925050819055506125de836125cf60008660006120c9565b6125d8856126d5565b176120f1565b6004600083815260200190815260200160002081905550600080838301905073ffffffffffffffffffffffffffffffffffffffff85169150828260007fddf252ad1be2c89b69c2b068fc378daa952ba7f163c4a11628f55a4df523b3ef600080a4600183015b81811461267f57808360007fddf252ad1be2c89b69c2b068fc378daa952ba7f163c4a11628f55a4df523b3ef600080a4600181019050612644565b50600082036126ba576040517f2e07630000000000000000000000000000000000000000000000000000000000815260040160405180910390fd5b8060008190555050506126d0600084838561211c565b505050565b60006001821460e11b9050919050565b6000604051905090565b600080fd5b600080fd5b60007fffffffff0000000000000000000000000000000000000000000000000000000082169050919050565b61272e816126f9565b811461273957600080fd5b50565b60008135905061274b81612725565b92915050565b600060208284031215612767576127666126ef565b5b60006127758482850161273c565b91505092915050565b60008115159050919050565b6127938161277e565b82525050565b60006020820190506127ae600083018461278a565b92915050565b600081519050919050565b600082825260208201905092915050565b60005b838110156127ee5780820151818401526020810190506127d3565b60008484015250505050565b6000601f19601f8301169050919050565b6000612816826127b4565b61282081856127bf565b93506128308185602086016127d0565b612839816127fa565b840191505092915050565b6000602082019050818103600083015261285e818461280b565b905092915050565b6000819050919050565b61287981612866565b811461288457600080fd5b50565b60008135905061289681612870565b92915050565b6000602082840312156128b2576128b16126ef565b5b60006128c084828501612887565b91505092915050565b600073ffffffffffffffffffffffffffffffffffffffff82169050919050565b60006128f4826128c9565b9050919050565b612904816128e9565b82525050565b600060208201905061291f60008301846128fb565b92915050565b61292e816128e9565b811461293957600080fd5b50565b60008135905061294b81612925565b92915050565b60008060408385031215612968576129676126ef565b5b60006129768582860161293c565b925050602061298785828601612887565b9150509250929050565b61299a81612866565b82525050565b60006020820190506129b56000830184612991565b92915050565b6000806000606084860312156129d4576129d36126ef565b5b60006129e28682870161293c565b93505060206129f38682870161293c565b9250506040612a0486828701612887565b9150509250925092565b60008060408385031215612a2557612a246126ef565b5b6000612a3385828601612887565b9250506020612a4485828601612887565b9150509250929050565b6000604082019050612a6360008301856128fb565b612a706020830184612991565b9392505050565b6000819050919050565b6000612a9c612a97612a92846128c9565b612a77565b6128c9565b9050919050565b6000612aae82612a81565b9050919050565b6000612ac082612aa3565b9050919050565b612ad081612ab5565b82525050565b6000602082019050612aeb6000830184612ac7565b92915050565b6000612afc826128e9565b9050919050565b612b0c81612af1565b8114612b1757600080fd5b50565b600081359050612b2981612b03565b92915050565b600060208284031215612b4557612b446126ef565b5b6000612b5384828501612b1a565b91505092915050565b600060208284031215612b7257612b716126ef565b5b6000612b808482850161293c565b91505092915050565b612b928161277e565b8114612b9d57600080fd5b50565b600081359050612baf81612b89565b92915050565b60008060408385031215612bcc57612bcb6126ef565b5b6000612bda8582860161293c565b9250506020612beb85828601612ba0565b9150509250929050565b60008060408385031215612c0c57612c0b6126ef565b5b6000612c1a8582860161293c565b9250506020612c2b8582860161293c565b9150509250929050565b600080fd5b600080fd5b7f4e487b7100000000000000000000000000000000000000000000000000000000600052604160045260246000fd5b612c77826127fa565b810181811067ffffffffffffffff82111715612c9657612c95612c3f565b5b80604052505050565b6000612ca96126e5565b9050612cb58282612c6e565b919050565b600067ffffffffffffffff821115612cd557612cd4612c3f565b5b612cde826127fa565b9050602081019050919050565b82818337600083830152505050565b6000612d0d612d0884612cba565b612c9f565b905082815260208101848484011115612d2957612d28612c3a565b5b612d34848285612ceb565b509392505050565b600082601f830112612d5157612d50612c35565b5b8135612d61848260208601612cfa565b91505092915050565b60008060008060808587031215612d8457612d836126ef565b5b6000612d928782880161293c565b9450506020612da38782880161293c565b9350506040612db487828801612887565b925050606085013567ffffffffffffffff811115612dd557612dd46126f4565b5b612de187828801612d3c565b91505092959194509250565b600067ffffffffffffffff821115612e0857612e07612c3f565b5b602082029050602081019050919050565b600080fd5b6000612e31612e2c84612ded565b612c9f565b90508083825260208201905060208402830185811115612e5457612e53612e19565b5b835b81811015612e7d5780612e69888261293c565b845260208401935050602081019050612e56565b5050509392505050565b600082601f830112612e9c57612e9b612c35565b5b8135612eac848260208601612e1e565b91505092915050565b60008060408385031215612ecc57612ecb6126ef565b5b600083013567ffffffffffffffff811115612eea57612ee96126f4565b5b612ef685828601612e87565b9250506020612f0785828601612887565b9150509250929050565b6000612f1c82612aa3565b9050919050565b612f2c81612f11565b82525050565b6000602082019050612f476000830184612f23565b92915050565b600060208284031215612f6357612f626126ef565b5b6000612f7184828501612ba0565b91505092915050565b7f4e487b7100000000000000000000000000000000000000000000000000000000600052602260045260246000fd5b60006002820490506001821680612fc157607f821691505b602082108103612fd457612fd3612f7a565b5b50919050565b7f4e487b7100000000000000000000000000000000000000000000000000000000600052601160045260246000fd5b600061301482612866565b915061301f83612866565b925082820261302d81612866565b9150828204841483151761304457613043612fda565b5b5092915050565b7f4e487b7100000000000000000000000000000000000000000000000000000000600052601260045260246000fd5b600061308582612866565b915061309083612866565b9250826130a05761309f61304b565b5b828204905092915050565b7f5265656e7472616e637947756172643a207265656e7472616e742063616c6c00600082015250565b60006130e1601f836127bf565b91506130ec826130ab565b602082019050919050565b60006020820190508181036000830152613110816130d4565b9050919050565b7f5468652063616c6c657220697320616e6f7468657220636f6e74726163740000600082015250565b600061314d601e836127bf565b915061315882613117565b602082019050919050565b6000602082019050818103600083015261317c81613140565b9050919050565b7f496e76616c6964206d696e7420616d6f756e7421000000000000000000000000600082015250565b60006131b96014836127bf565b91506131c482613183565b602082019050919050565b600060208201905081810360008301526131e8816131ac565b9050919050565b60006131fa82612866565b915061320583612866565b925082820190508082111561321d5761321c612fda565b5b92915050565b7f57696c6c20657863656564206d6178696d756d20737570706c79210000000000600082015250565b6000613259601b836127bf565b915061326482613223565b602082019050919050565b600060208201905081810360008301526132888161324c565b9050919050565b7f536f6c64206f7574210000000000000000000000000000000000000000000000600082015250565b60006132c56009836127bf565b91506132d08261328f565b602082019050919050565b600060208201905081810360008301526132f4816132b8565b9050919050565b7f5065722077616c6c6574206c696d697420726561636865642100000000000000600082015250565b60006133316019836127bf565b915061333c826132fb565b602082019050919050565b6000602082019050818103600083015261336081613324565b9050919050565b7f496e73756666696369656e742066756e64732100000000000000000000000000600082015250565b600061339d6013836127bf565b91506133a882613367565b602082019050919050565b600060208201905081810360008301526133cc81613390565b9050919050565b7f4e487b7100000000000000000000000000000000000000000000000000000000600052603260045260246000fd5b600061340d82612866565b91507fffffffffffffffffffffffffffffffffffffffffffffffffffffffffffffffff820361343f5761343e612fda565b5b600182019050919050565b7f546f6b656e20494420646f6573206e6f742065786973742e0000000000000000600082015250565b60006134806018836127bf565b915061348b8261344a565b602082019050919050565b600060208201905081810360008301526134af81613473565b9050919050565b60006040820190506134cb6000830185612991565b6134d86020830184612991565b9392505050565b600067ffffffffffffffff8211156134fa576134f9612c3f565b5b613503826127fa565b9050602081019050919050565b600061352361351e846134df565b612c9f565b90508281526020810184848401111561353f5761353e612c3a565b5b61354a8482856127d0565b509392505050565b600082601f83011261356757613566612c35565b5b8151613577848260208601613510565b91505092915050565b600060208284031215613596576135956126ef565b5b600082015167ffffffffffffffff8111156135b4576135b36126f4565b5b6135c084828501613552565b91505092915050565b7f4f776e61626c653a206e6577206f776e657220697320746865207a65726f206160008201527f6464726573730000000000000000000000000000000000000000000000000000602082015250565b60006136256026836127bf565b9150613630826135c9565b604082019050919050565b6000602082019050818103600083015261365481613618565b9050919050565b600060408201905061367060008301856128fb565b61367d60208301846128fb565b9392505050565b60008151905061369381612b89565b92915050565b6000602082840312156136af576136ae6126ef565b5b60006136bd84828501613684565b91505092915050565b7f4f776e61626c653a2063616c6c6572206973206e6f7420746865206f776e6572600082015250565b60006136fc6020836127bf565b9150613707826136c6565b602082019050919050565b6000602082019050818103600083015261372b816136ef565b9050919050565b600061373d82612866565b915061374883612866565b9250826137585761375761304b565b5b828206905092915050565b600081519050919050565b600082825260208201905092915050565b600061378a82613763565b613794818561376e565b93506137a48185602086016127d0565b6137ad816127fa565b840191505092915050565b60006080820190506137cd60008301876128fb565b6137da60208301866128fb565b6137e76040830185612991565b81810360608301526137f9818461377f565b905095945050505050565b60008151905061381381612725565b92915050565b60006020828403121561382f5761382e6126ef565b5b600061383d84828501613804565b91505092915050565b600061385182612866565b915061385c83612866565b925082820390508181111561387457613873612fda565b5b92915050565b6000819050919050565b6000819050919050565b61389f61389a8261387a565b613884565b82525050565b6000819050919050565b6138c06138bb82612866565b6138a5565b82525050565b60006138d2828561388e565b6020820191506138e282846138af565b602082019150819050939250505056fea2646970667358221220d23f1e424a62652b5c4f47cfdd45c55c56032513c2407c6cb68ec1ef3ae359bd64736f6c63430008110033",
  "linkReferences": {},
  "deployedLinkReferences": {}
}