{
  "_format": "hh-sol-artifact-1",
  "contractName": "FlappyOwlVault",
  "sourceName": "contracts/utils/FlappyOwlVault.sol",
  "abi": [
    {
      "inputs": [
        {
          "internalType": "address",
          "name": "_nftAddress",
          "type": "address"
        },
        {
          "internalType": "address",
          "name": "_tokenAddress",
          "type": "address"
        }
      ],
      "stateMutability": "nonpayable",
      "type": "constructor"
    },
    {
      "inputs": [],
      "name": "PikaBounchingVault__ItemAlreadyStaked",
      "type": "error"
    },
    {
      "inputs": [],
      "name": "PikaBounchingVault__NotItemOwner",
      "type": "error"
    },
    {
      "anonymous": false,
      "inputs": [
        {
          "indexed": false,
          "internalType": "address",
          "name": "owner",
          "type": "address"
        },
        {
          "indexed": false,
          "internalType": "uint256",
          "name": "reward",
          "type": "uint256"
        }
      ],
      "name": "Claimed",
      "type": "event"
    },
    {
      "anonymous": false,
      "inputs": [
        {
          "indexed": false,
          "internalType": "uint256",
          "name": "tokenId",
          "type": "uint256"
        },
        {
          "indexed": false,
          "internalType": "address",
          "name": "owner",
          "type": "address"
        },
        {
          "indexed": false,
          "internalType": "uint256",
          "name": "timestamp",
          "type": "uint256"
        }
      ],
      "name": "ItemStaked",
      "type": "event"
    },
    {
      "anonymous": false,
      "inputs": [
        {
          "indexed": false,
          "internalType": "uint256",
          "name": "tokenId",
          "type": "uint256"
        },
        {
          "indexed": false,
          "internalType": "address",
          "name": "owner",
          "type": "address"
        },
        {
          "indexed": false,
          "internalType": "uint256",
          "name": "timestamp",
          "type": "uint256"
        }
      ],
      "name": "ItemUnstaked",
      "type": "event"
    },
    {
      "anonymous": false,
      "inputs": [
        {
          "indexed": true,
          "internalType": "address",
          "name": "previousOwner",
          "type": "address"
        },
        {
          "indexed": true,
          "internalType": "address",
          "name": "newOwner",
          "type": "address"
        }
      ],
      "name": "OwnershipTransferred",
      "type": "event"
    },
    {
      "inputs": [
        {
          "internalType": "address",
          "name": "user",
          "type": "address"
        }
      ],
      "name": "balanceOf",
      "outputs": [
        {
          "internalType": "uint256",
          "name": "nftStakedbalance",
          "type": "uint256"
        }
      ],
      "stateMutability": "view",
      "type": "function"
    },
    {
      "inputs": [
        {
          "internalType": "uint256",
          "name": "stakingPeriod",
          "type": "uint256"
        }
      ],
      "name": "calculateReward",
      "outputs": [
        {
          "internalType": "uint256",
          "name": "rewardEstimate",
          "type": "uint256"
        }
      ],
      "stateMutability": "view",
      "type": "function"
    },
    {
      "inputs": [
        {
          "internalType": "uint256[]",
          "name": "tokenIds",
          "type": "uint256[]"
        }
      ],
      "name": "claim",
      "outputs": [],
      "stateMutability": "nonpayable",
      "type": "function"
    },
    {
      "inputs": [
        {
          "internalType": "uint256",
          "name": "_tokenId",
          "type": "uint256"
        }
      ],
      "name": "getRewardEarnedPerNft",
      "outputs": [
        {
          "internalType": "uint256",
          "name": "rewardEarned",
          "type": "uint256"
        },
        {
          "internalType": "uint256",
          "name": "stakingPeriod",
          "type": "uint256"
        }
      ],
      "stateMutability": "view",
      "type": "function"
    },
    {
      "inputs": [
        {
          "internalType": "address",
          "name": "user",
          "type": "address"
        }
      ],
      "name": "getTotalRewardEarned",
      "outputs": [
        {
          "internalType": "uint256",
          "name": "rewardEarned",
          "type": "uint256"
        }
      ],
      "stateMutability": "view",
      "type": "function"
    },
    {
      "inputs": [
        {
          "internalType": "address",
          "name": "",
          "type": "address"
        },
        {
          "internalType": "address",
          "name": "",
          "type": "address"
        },
        {
          "internalType": "uint256",
          "name": "",
          "type": "uint256"
        },
        {
          "internalType": "bytes",
          "name": "",
          "type": "bytes"
        }
      ],
      "name": "onERC721Received",
      "outputs": [
        {
          "internalType": "bytes4",
          "name": "",
          "type": "bytes4"
        }
      ],
      "stateMutability": "pure",
      "type": "function"
    },
    {
      "inputs": [],
      "name": "owner",
      "outputs": [
        {
          "internalType": "address",
          "name": "",
          "type": "address"
        }
      ],
      "stateMutability": "view",
      "type": "function"
    },
    {
      "inputs": [],
      "name": "renounceOwnership",
      "outputs": [],
      "stateMutability": "nonpayable",
      "type": "function"
    },
    {
      "inputs": [
        {
          "internalType": "uint256[]",
          "name": "tokenIds",
          "type": "uint256[]"
        }
      ],
      "name": "stake",
      "outputs": [],
      "stateMutability": "nonpayable",
      "type": "function"
    },
    {
      "inputs": [
        {
          "internalType": "address",
          "name": "user",
          "type": "address"
        }
      ],
      "name": "tokensOfOwner",
      "outputs": [
        {
          "internalType": "uint256[]",
          "name": "tokens",
          "type": "uint256[]"
        }
      ],
      "stateMutability": "view",
      "type": "function"
    },
    {
      "inputs": [],
      "name": "totalItemsStaked",
      "outputs": [
        {
          "internalType": "uint256",
          "name": "",
          "type": "uint256"
        }
      ],
      "stateMutability": "view",
      "type": "function"
    },
    {
      "inputs": [
        {
          "internalType": "address",
          "name": "newOwner",
          "type": "address"
        }
      ],
      "name": "transferOwnership",
      "outputs": [],
      "stateMutability": "nonpayable",
      "type": "function"
    },
    {
      "inputs": [
        {
          "internalType": "uint256[]",
          "name": "tokenIds",
          "type": "uint256[]"
        }
      ],
      "name": "unstake",
      "outputs": [],
      "stateMutability": "nonpayable",
      "type": "function"
    },
    {
      "inputs": [
        {
          "internalType": "address",
          "name": "_nftAddress",
          "type": "address"
        },
        {
          "internalType": "address",
          "name": "_tokenAddress",
          "type": "address"
        }
      ],
      "name": "updateVaultInterface",
      "outputs": [],
      "stateMutability": "nonpayable",
      "type": "function"
    }
  ],
  "bytecode": "0x60806040523480156200001157600080fd5b5060405162001df638038062001df6833981810160405281019062000037919062000217565b620000576200004b620000e160201b60201c565b620000e960201b60201c565b81600260006101000a81548173ffffffffffffffffffffffffffffffffffffffff021916908373ffffffffffffffffffffffffffffffffffffffff16021790555080600360006101000a81548173ffffffffffffffffffffffffffffffffffffffff021916908373ffffffffffffffffffffffffffffffffffffffff16021790555050506200025e565b600033905090565b60008060009054906101000a900473ffffffffffffffffffffffffffffffffffffffff169050816000806101000a81548173ffffffffffffffffffffffffffffffffffffffff021916908373ffffffffffffffffffffffffffffffffffffffff1602179055508173ffffffffffffffffffffffffffffffffffffffff168173ffffffffffffffffffffffffffffffffffffffff167f8be0079c531659141344cd1fd0a4f28419497f9722a3daafe3b4186f6b6457e060405160405180910390a35050565b600080fd5b600073ffffffffffffffffffffffffffffffffffffffff82169050919050565b6000620001df82620001b2565b9050919050565b620001f181620001d2565b8114620001fd57600080fd5b50565b6000815190506200021181620001e6565b92915050565b60008060408385031215620002315762000230620001ad565b5b6000620002418582860162000200565b9250506020620002548582860162000200565b9150509250929050565b611b88806200026e6000396000f3fe608060405234801561001057600080fd5b50600436106100ea5760003560e01c806370a082311161008c5780638da5cb5b116100665780638da5cb5b1461025c578063d2d7231f1461027a578063e449f341146102aa578063f2fde38b146102c6576100ea565b806370a08231146101f2578063715018a6146102225780638462151c1461022c576100ea565b806333e58779116100c857806333e5877914610157578063454938e0146101755780635704589c146101a55780636ba4c138146101d6576100ea565b80630fbf0a93146100ef578063150b7a021461010b57806325ae6bae1461013b575b600080fd5b61010960048036038101906101049190611319565b6102e2565b005b61012560048036038101906101209190611450565b61063d565b6040516101329190611513565b60405180910390f35b6101556004803603810190610150919061152e565b610652565b005b61015f6106e0565b60405161016c919061157d565b60405180910390f35b61018f600480360381019061018a9190611598565b6106e6565b60405161019c919061157d565b60405180910390f35b6101bf60048036038101906101ba91906115c5565b6107c5565b6040516101cd9291906115f2565b60405180910390f35b6101f060048036038101906101eb9190611319565b610852565b005b61020c60048036038101906102079190611598565b610863565b604051610219919061157d565b60405180910390f35b61022a610985565b005b61024660048036038101906102419190611598565b610999565b60405161025391906116d9565b60405180910390f35b610264610b5a565b604051610271919061170a565b60405180910390f35b610294600480360381019061028f91906115c5565b610b83565b6040516102a1919061157d565b60405180910390f35b6102c460048036038101906102bf9190611319565b610b95565b005b6102e060048036038101906102db9190611598565b610ba6565b005b600080600084849050905060005b818110156106215785858281811061030b5761030a611725565b5b905060200201359350600073ffffffffffffffffffffffffffffffffffffffff166004600086815260200190815260200160002060000160009054906101000a900473ffffffffffffffffffffffffffffffffffffffff1673ffffffffffffffffffffffffffffffffffffffff16146103b0576040517fe172d6ce00000000000000000000000000000000000000000000000000000000815260040160405180910390fd5b3373ffffffffffffffffffffffffffffffffffffffff16600260009054906101000a900473ffffffffffffffffffffffffffffffffffffffff1673ffffffffffffffffffffffffffffffffffffffff16636352211e866040518263ffffffff1660e01b8152600401610422919061157d565b602060405180830381865afa15801561043f573d6000803e3d6000fd5b505050506040513d601f19601f820116820180604052508101906104639190611769565b73ffffffffffffffffffffffffffffffffffffffff16146104b0576040517fc7ceed2a00000000000000000000000000000000000000000000000000000000815260040160405180910390fd5b600260009054906101000a900473ffffffffffffffffffffffffffffffffffffffff1673ffffffffffffffffffffffffffffffffffffffff166342842e0e3330876040518463ffffffff1660e01b815260040161050f93929190611796565b600060405180830381600087803b15801561052957600080fd5b505af115801561053d573d6000803e3d6000fd5b5050505060405180604001604052803373ffffffffffffffffffffffffffffffffffffffff168152602001428152506004600086815260200190815260200160002060008201518160000160006101000a81548173ffffffffffffffffffffffffffffffffffffffff021916908373ffffffffffffffffffffffffffffffffffffffff160217905550602082015181600101559050507f718e21c56085c799f7e177a1bd6691cdbf9c929d9760133b991577c488715290843342604051610606939291906117cd565b60405180910390a182806001019350508060010190506102f0565b50816001546106309190611833565b6001819055505050505050565b600063150b7a0260e01b905095945050505050565b61065a610c29565b80600360006101000a81548173ffffffffffffffffffffffffffffffffffffffff021916908373ffffffffffffffffffffffffffffffffffffffff16021790555081600260006101000a81548173ffffffffffffffffffffffffffffffffffffffff021916908373ffffffffffffffffffffffffffffffffffffffff1602179055505050565b60015481565b60008060006106f484610999565b905060008151905060005b818110156107ad576000600460008584815181106107205761071f611725565b5b602002602001015181526020019081526020016000206001015490506000814261074a9190611867565b9050600061075782610ca7565b905062015180670de0b6b3a764000083836064610774919061189b565b61077e919061189b565b610788919061189b565b610792919061190c565b8761079d9190611833565b96508360010193505050506106ff565b506064836107bb919061190c565b9350505050919050565b60008060006004600085815260200190815260200160002060010154905080426107ef9190611867565b915060006107fc83610ca7565b9050600062015180670de0b6b3a76400008584606461081b919061189b565b610825919061189b565b61082f919061189b565b610839919061190c565b9050606481610848919061190c565b9450505050915091565b61085f3383836000610d55565b5050565b600080600260009054906101000a900473ffffffffffffffffffffffffffffffffffffffff1673ffffffffffffffffffffffffffffffffffffffff166318160ddd6040518163ffffffff1660e01b8152600401602060405180830381865afa1580156108d3573d6000803e3d6000fd5b505050506040513d601f19601f820116820180604052508101906108f79190611952565b905060005b81811161097e578373ffffffffffffffffffffffffffffffffffffffff166004600083815260200190815260200160002060000160009054906101000a900473ffffffffffffffffffffffffffffffffffffffff1673ffffffffffffffffffffffffffffffffffffffff1603610973576001830192505b8060010190506108fc565b5050919050565b61098d610c29565b6109976000610fc7565b565b606060006109a683610863565b90506000600260009054906101000a900473ffffffffffffffffffffffffffffffffffffffff1673ffffffffffffffffffffffffffffffffffffffff166318160ddd6040518163ffffffff1660e01b8152600401602060405180830381865afa158015610a17573d6000803e3d6000fd5b505050506040513d601f19601f82011682018060405250810190610a3b9190611952565b90508167ffffffffffffffff811115610a5757610a5661197f565b5b604051908082528060200260200182016040528015610a855781602001602082028036833780820191505090505b5092506000808303610a9957505050610b55565b60005b828111610b50578573ffffffffffffffffffffffffffffffffffffffff166004600083815260200190815260200160002060000160009054906101000a900473ffffffffffffffffffffffffffffffffffffffff1673ffffffffffffffffffffffffffffffffffffffff1603610b355780858381518110610b2057610b1f611725565b5b60200260200101818152505081806001019250505b838203610b455750505050610b55565b806001019050610a9c565b505050505b919050565b60008060009054906101000a900473ffffffffffffffffffffffffffffffffffffffff16905090565b6000610b8e82610ca7565b9050919050565b610ba23383836001610d55565b5050565b610bae610c29565b600073ffffffffffffffffffffffffffffffffffffffff168173ffffffffffffffffffffffffffffffffffffffff1603610c1d576040517f08c379a0000000000000000000000000000000000000000000000000000000008152600401610c1490611a31565b60405180910390fd5b610c2681610fc7565b50565b610c3161108b565b73ffffffffffffffffffffffffffffffffffffffff16610c4f610b5a565b73ffffffffffffffffffffffffffffffffffffffff1614610ca5576040517f08c379a0000000000000000000000000000000000000000000000000000000008152600401610c9c90611a9d565b60405180910390fd5b565b600062278d008211610cc9576001546064610cc2919061190c565b9050610d50565b62278d006003610cd9919061189b565b821015610cf65760015460c8610cef919061190c565b9050610d4f565b62278d006006610d06919061189b565b821015610d2457600154610190610d1d919061190c565b9050610d4e565b62278d006006610d34919061189b565b8210610d4d57600154610320610d4a919061190c565b90505b5b5b5b919050565b60008060008086869050905060005b81811015610eca57878782818110610d7f57610d7e611725565b5b9050602002013594508873ffffffffffffffffffffffffffffffffffffffff166004600087815260200190815260200160002060000160009054906101000a900473ffffffffffffffffffffffffffffffffffffffff1673ffffffffffffffffffffffffffffffffffffffff1614610e23576040517fc7ceed2a00000000000000000000000000000000000000000000000000000000815260040160405180910390fd5b60006004600087815260200190815260200160002060010154905060008142610e4c9190611867565b90506000610e5982610ca7565b905062015180670de0b6b3a764000083836064610e76919061189b565b610e80919061189b565b610e8a919061189b565b610e94919061190c565b87610e9f9190611833565b965042600460008a815260200190815260200160002060010181905550836001019350505050610d64565b50606483610ed8919061190c565b915060008214610fab57600360009054906101000a900473ffffffffffffffffffffffffffffffffffffffff1673ffffffffffffffffffffffffffffffffffffffff166340c10f1989846040518363ffffffff1660e01b8152600401610f3f929190611abd565b600060405180830381600087803b158015610f5957600080fd5b505af1158015610f6d573d6000803e3d6000fd5b505050507fd8138f8a3f377c5259ca548e70e4c2de94f129f5a11036a15b69513cba2b426a8883604051610fa2929190611abd565b60405180910390a15b8415610fbd57610fbc888888611093565b5b5050505050505050565b60008060009054906101000a900473ffffffffffffffffffffffffffffffffffffffff169050816000806101000a81548173ffffffffffffffffffffffffffffffffffffffff021916908373ffffffffffffffffffffffffffffffffffffffff1602179055508173ffffffffffffffffffffffffffffffffffffffff168173ffffffffffffffffffffffffffffffffffffffff167f8be0079c531659141344cd1fd0a4f28419497f9722a3daafe3b4186f6b6457e060405160405180910390a35050565b600033905090565b600080600084849050905060005b8181101561128d578585828181106110bc576110bb611725565b5b9050602002013593508673ffffffffffffffffffffffffffffffffffffffff166004600086815260200190815260200160002060000160009054906101000a900473ffffffffffffffffffffffffffffffffffffffff1673ffffffffffffffffffffffffffffffffffffffff1614611169576040517f08c379a000000000000000000000000000000000000000000000000000000000815260040161116090611b32565b60405180910390fd5b600260009054906101000a900473ffffffffffffffffffffffffffffffffffffffff1673ffffffffffffffffffffffffffffffffffffffff166342842e0e3089876040518463ffffffff1660e01b81526004016111c893929190611796565b600060405180830381600087803b1580156111e257600080fd5b505af11580156111f6573d6000803e3d6000fd5b5050505060046000858152602001908152602001600020600080820160006101000a81549073ffffffffffffffffffffffffffffffffffffffff0219169055600182016000905550507f175dc19fb4fe98420fd7e191684ecdc746cb34c7b69706c3713328d25f7be205848842604051611272939291906117cd565b60405180910390a182806001019350508060010190506110a1565b508160015461129c9190611867565b600181905550505050505050565b600080fd5b600080fd5b600080fd5b600080fd5b600080fd5b60008083601f8401126112d9576112d86112b4565b5b8235905067ffffffffffffffff8111156112f6576112f56112b9565b5b602083019150836020820283011115611312576113116112be565b5b9250929050565b600080602083850312156113305761132f6112aa565b5b600083013567ffffffffffffffff81111561134e5761134d6112af565b5b61135a858286016112c3565b92509250509250929050565b600073ffffffffffffffffffffffffffffffffffffffff82169050919050565b600061139182611366565b9050919050565b6113a181611386565b81146113ac57600080fd5b50565b6000813590506113be81611398565b92915050565b6000819050919050565b6113d7816113c4565b81146113e257600080fd5b50565b6000813590506113f4816113ce565b92915050565b60008083601f8401126114105761140f6112b4565b5b8235905067ffffffffffffffff81111561142d5761142c6112b9565b5b602083019150836001820283011115611449576114486112be565b5b9250929050565b60008060008060006080868803121561146c5761146b6112aa565b5b600061147a888289016113af565b955050602061148b888289016113af565b945050604061149c888289016113e5565b935050606086013567ffffffffffffffff8111156114bd576114bc6112af565b5b6114c9888289016113fa565b92509250509295509295909350565b60007fffffffff0000000000000000000000000000000000000000000000000000000082169050919050565b61150d816114d8565b82525050565b60006020820190506115286000830184611504565b92915050565b60008060408385031215611545576115446112aa565b5b6000611553858286016113af565b9250506020611564858286016113af565b9150509250929050565b611577816113c4565b82525050565b6000602082019050611592600083018461156e565b92915050565b6000602082840312156115ae576115ad6112aa565b5b60006115bc848285016113af565b91505092915050565b6000602082840312156115db576115da6112aa565b5b60006115e9848285016113e5565b91505092915050565b6000604082019050611607600083018561156e565b611614602083018461156e565b9392505050565b600081519050919050565b600082825260208201905092915050565b6000819050602082019050919050565b611650816113c4565b82525050565b60006116628383611647565b60208301905092915050565b6000602082019050919050565b60006116868261161b565b6116908185611626565b935061169b83611637565b8060005b838110156116cc5781516116b38882611656565b97506116be8361166e565b92505060018101905061169f565b5085935050505092915050565b600060208201905081810360008301526116f3818461167b565b905092915050565b61170481611386565b82525050565b600060208201905061171f60008301846116fb565b92915050565b7f4e487b7100000000000000000000000000000000000000000000000000000000600052603260045260246000fd5b60008151905061176381611398565b92915050565b60006020828403121561177f5761177e6112aa565b5b600061178d84828501611754565b91505092915050565b60006060820190506117ab60008301866116fb565b6117b860208301856116fb565b6117c5604083018461156e565b949350505050565b60006060820190506117e2600083018661156e565b6117ef60208301856116fb565b6117fc604083018461156e565b949350505050565b7f4e487b7100000000000000000000000000000000000000000000000000000000600052601160045260246000fd5b600061183e826113c4565b9150611849836113c4565b925082820190508082111561186157611860611804565b5b92915050565b6000611872826113c4565b915061187d836113c4565b925082820390508181111561189557611894611804565b5b92915050565b60006118a6826113c4565b91506118b1836113c4565b92508282026118bf816113c4565b915082820484148315176118d6576118d5611804565b5b5092915050565b7f4e487b7100000000000000000000000000000000000000000000000000000000600052601260045260246000fd5b6000611917826113c4565b9150611922836113c4565b925082611932576119316118dd565b5b828204905092915050565b60008151905061194c816113ce565b92915050565b600060208284031215611968576119676112aa565b5b60006119768482850161193d565b91505092915050565b7f4e487b7100000000000000000000000000000000000000000000000000000000600052604160045260246000fd5b600082825260208201905092915050565b7f4f776e61626c653a206e6577206f776e657220697320746865207a65726f206160008201527f6464726573730000000000000000000000000000000000000000000000000000602082015250565b6000611a1b6026836119ae565b9150611a26826119bf565b604082019050919050565b60006020820190508181036000830152611a4a81611a0e565b9050919050565b7f4f776e61626c653a2063616c6c6572206973206e6f7420746865206f776e6572600082015250565b6000611a876020836119ae565b9150611a9282611a51565b602082019050919050565b60006020820190508181036000830152611ab681611a7a565b9050919050565b6000604082019050611ad260008301856116fb565b611adf602083018461156e565b9392505050565b7f4e6f74204f776e65720000000000000000000000000000000000000000000000600082015250565b6000611b1c6009836119ae565b9150611b2782611ae6565b602082019050919050565b60006020820190508181036000830152611b4b81611b0f565b905091905056fea26469706673582212203b4c8a35083c1d3b3b606a3297984841d79601aaab6589a782c1cdf3a205bd7764736f6c63430008110033",
  "linkReferences": {},
  "deployedLinkReferences": {}
}